{
	"Contracts/CreditDataLedger.sol": {
		"CreditDataLedger": {
			"abi": [
				{
					"inputs": [
						{
							"internalType": "address",
							"name": "_bankRegistryAddress",
							"type": "address"
						}
					],
					"stateMutability": "nonpayable",
					"type": "constructor"
				},
				{
					"anonymous": false,
					"inputs": [
						{
							"indexed": true,
							"internalType": "address",
							"name": "userAddress",
							"type": "address"
						},
						{
							"indexed": true,
							"internalType": "address",
							"name": "bankAddress",
							"type": "address"
						},
						{
							"indexed": false,
							"internalType": "uint256",
							"name": "entryId",
							"type": "uint256"
						}
					],
					"name": "CreditDataAdded",
					"type": "event"
				},
				{
					"inputs": [
						{
							"internalType": "address",
							"name": "_userAddress",
							"type": "address"
						},
						{
							"internalType": "string",
							"name": "_entryDetails",
							"type": "string"
						}
					],
					"name": "addCreditEntry",
					"outputs": [],
					"stateMutability": "nonpayable",
					"type": "function"
				},
				{
					"inputs": [],
					"name": "bankRegistryAddress",
					"outputs": [
						{
							"internalType": "address",
							"name": "",
							"type": "address"
						}
					],
					"stateMutability": "view",
					"type": "function"
				},
				{
					"inputs": [],
					"name": "entryCounter",
					"outputs": [
						{
							"internalType": "uint256",
							"name": "",
							"type": "uint256"
						}
					],
					"stateMutability": "view",
					"type": "function"
				},
				{
					"inputs": [
						{
							"internalType": "address",
							"name": "_userAddress",
							"type": "address"
						}
					],
					"name": "getUserCreditHistory",
					"outputs": [
						{
							"components": [
								{
									"internalType": "uint256",
									"name": "entryId",
									"type": "uint256"
								},
								{
									"internalType": "string",
									"name": "entryDetails",
									"type": "string"
								},
								{
									"internalType": "address",
									"name": "reportingBank",
									"type": "address"
								},
								{
									"internalType": "uint256",
									"name": "timestamp",
									"type": "uint256"
								}
							],
							"internalType": "struct CreditDataLedger.CreditEntry[]",
							"name": "",
							"type": "tuple[]"
						}
					],
					"stateMutability": "view",
					"type": "function"
				},
				{
					"inputs": [
						{
							"internalType": "address",
							"name": "",
							"type": "address"
						},
						{
							"internalType": "uint256",
							"name": "",
							"type": "uint256"
						}
					],
					"name": "userCreditHistory",
					"outputs": [
						{
							"internalType": "uint256",
							"name": "entryId",
							"type": "uint256"
						},
						{
							"internalType": "string",
							"name": "entryDetails",
							"type": "string"
						},
						{
							"internalType": "address",
							"name": "reportingBank",
							"type": "address"
						},
						{
							"internalType": "uint256",
							"name": "timestamp",
							"type": "uint256"
						}
					],
					"stateMutability": "view",
					"type": "function"
				}
			],
			"devdoc": {
				"author": "Divij (with Gemini)",
				"events": {
					"CreditDataAdded(address,address,uint256)": {
						"params": {
							"bankAddress": "The address of the bank that submitted the data.",
							"entryId": "The unique ID of this new credit entry.",
							"userAddress": "The address of the customer whose credit is being updated."
						}
					}
				},
				"kind": "dev",
				"methods": {
					"addCreditEntry(address,string)": {
						"params": {
							"_entryDetails": "A string containing the details of the credit event (e.g., loan status).",
							"_userAddress": "The address of the customer whose credit history is being updated."
						}
					},
					"constructor": {
						"params": {
							"_bankRegistryAddress": "The address of the deployed BankRegistry contract."
						}
					},
					"getUserCreditHistory(address)": {
						"params": {
							"_userAddress": "The address of the customer to look up."
						},
						"returns": {
							"_0": "An array of CreditEntry structs containing the customer's full history."
						}
					}
				},
				"title": "CreditDataLedger",
				"version": 1
			},
			"evm": {
				"assembly": "    /* \"Contracts/CreditDataLedger.sol\":700:4683  contract CreditDataLedger {... */\n  mstore(0x40, 0x80)\n    /* \"Contracts/CreditDataLedger.sol\":2385:2567  constructor(address _bankRegistryAddress) {... */\n  callvalue\n  dup1\n  iszero\n  tag_1\n  jumpi\n  revert(0x00, 0x00)\ntag_1:\n  pop\n  mload(0x40)\n  sub(codesize, bytecodeSize)\n  dup1\n  bytecodeSize\n  dup4\n  codecopy\n  dup2\n  dup2\n  add\n  0x40\n  mstore\n  dup2\n  add\n  swap1\n  tag_2\n  swap2\n  swap1\n  tag_3\n  jump\t// in\ntag_2:\n    /* \"Contracts/CreditDataLedger.sol\":2477:2478  0 */\n  0x00\n    /* \"Contracts/CreditDataLedger.sol\":2445:2479  _bankRegistryAddress != address(0) */\n  0xffffffffffffffffffffffffffffffffffffffff\n  and\n    /* \"Contracts/CreditDataLedger.sol\":2445:2465  _bankRegistryAddress */\n  dup2\n    /* \"Contracts/CreditDataLedger.sol\":2445:2479  _bankRegistryAddress != address(0) */\n  0xffffffffffffffffffffffffffffffffffffffff\n  and\n  sub\n    /* \"Contracts/CreditDataLedger.sol\":2437:2508  require(_bankRegistryAddress != address(0), \"Invalid registry address\") */\n  tag_6\n  jumpi\n  mload(0x40)\n  0x08c379a000000000000000000000000000000000000000000000000000000000\n  dup2\n  mstore\n  0x04\n  add\n  tag_7\n  swap1\n  tag_8\n  jump\t// in\ntag_7:\n  mload(0x40)\n  dup1\n  swap2\n  sub\n  swap1\n  revert\ntag_6:\n    /* \"Contracts/CreditDataLedger.sol\":2540:2560  _bankRegistryAddress */\n  dup1\n    /* \"Contracts/CreditDataLedger.sol\":2518:2537  bankRegistryAddress */\n  0x00\n  0x00\n    /* \"Contracts/CreditDataLedger.sol\":2518:2560  bankRegistryAddress = _bankRegistryAddress */\n  0x0100\n  exp\n  dup2\n  sload\n  dup2\n  0xffffffffffffffffffffffffffffffffffffffff\n  mul\n  not\n  and\n  swap1\n  dup4\n  0xffffffffffffffffffffffffffffffffffffffff\n  and\n  mul\n  or\n  swap1\n  sstore\n  pop\n    /* \"Contracts/CreditDataLedger.sol\":2385:2567  constructor(address _bankRegistryAddress) {... */\n  pop\n    /* \"Contracts/CreditDataLedger.sol\":700:4683  contract CreditDataLedger {... */\n  jump(tag_9)\n    /* \"#utility.yul\":88:205   */\ntag_11:\n    /* \"#utility.yul\":197:198   */\n  0x00\n    /* \"#utility.yul\":194:195   */\n  0x00\n    /* \"#utility.yul\":187:199   */\n  revert\n    /* \"#utility.yul\":334:460   */\ntag_13:\n    /* \"#utility.yul\":371:378   */\n  0x00\n    /* \"#utility.yul\":411:453   */\n  0xffffffffffffffffffffffffffffffffffffffff\n    /* \"#utility.yul\":404:409   */\n  dup3\n    /* \"#utility.yul\":400:454   */\n  and\n    /* \"#utility.yul\":389:454   */\n  swap1\n  pop\n    /* \"#utility.yul\":334:460   */\n  swap2\n  swap1\n  pop\n  jump\t// out\n    /* \"#utility.yul\":466:562   */\ntag_14:\n    /* \"#utility.yul\":503:510   */\n  0x00\n    /* \"#utility.yul\":532:556   */\n  tag_26\n    /* \"#utility.yul\":550:555   */\n  dup3\n    /* \"#utility.yul\":532:556   */\n  tag_13\n  jump\t// in\ntag_26:\n    /* \"#utility.yul\":521:556   */\n  swap1\n  pop\n    /* \"#utility.yul\":466:562   */\n  swap2\n  swap1\n  pop\n  jump\t// out\n    /* \"#utility.yul\":568:690   */\ntag_15:\n    /* \"#utility.yul\":641:665   */\n  tag_28\n    /* \"#utility.yul\":659:664   */\n  dup2\n    /* \"#utility.yul\":641:665   */\n  tag_14\n  jump\t// in\ntag_28:\n    /* \"#utility.yul\":634:639   */\n  dup2\n    /* \"#utility.yul\":631:666   */\n  eq\n    /* \"#utility.yul\":621:684   */\n  tag_29\n  jumpi\n    /* \"#utility.yul\":680:681   */\n  0x00\n    /* \"#utility.yul\":677:678   */\n  0x00\n    /* \"#utility.yul\":670:682   */\n  revert\n    /* \"#utility.yul\":621:684   */\ntag_29:\n    /* \"#utility.yul\":568:690   */\n  pop\n  jump\t// out\n    /* \"#utility.yul\":696:839   */\ntag_16:\n    /* \"#utility.yul\":753:758   */\n  0x00\n    /* \"#utility.yul\":784:790   */\n  dup2\n    /* \"#utility.yul\":778:791   */\n  mload\n    /* \"#utility.yul\":769:791   */\n  swap1\n  pop\n    /* \"#utility.yul\":800:833   */\n  tag_31\n    /* \"#utility.yul\":827:832   */\n  dup2\n    /* \"#utility.yul\":800:833   */\n  tag_15\n  jump\t// in\ntag_31:\n    /* \"#utility.yul\":696:839   */\n  swap3\n  swap2\n  pop\n  pop\n  jump\t// out\n    /* \"#utility.yul\":845:1196   */\ntag_3:\n    /* \"#utility.yul\":915:921   */\n  0x00\n    /* \"#utility.yul\":964:966   */\n  0x20\n    /* \"#utility.yul\":952:961   */\n  dup3\n    /* \"#utility.yul\":943:950   */\n  dup5\n    /* \"#utility.yul\":939:962   */\n  sub\n    /* \"#utility.yul\":935:967   */\n  slt\n    /* \"#utility.yul\":932:1051   */\n  iszero\n  tag_33\n  jumpi\n    /* \"#utility.yul\":970:1049   */\n  tag_34\n  tag_11\n  jump\t// in\ntag_34:\n    /* \"#utility.yul\":932:1051   */\ntag_33:\n    /* \"#utility.yul\":1090:1091   */\n  0x00\n    /* \"#utility.yul\":1115:1179   */\n  tag_35\n    /* \"#utility.yul\":1171:1178   */\n  dup5\n    /* \"#utility.yul\":1162:1168   */\n  dup3\n    /* \"#utility.yul\":1151:1160   */\n  dup6\n    /* \"#utility.yul\":1147:1169   */\n  add\n    /* \"#utility.yul\":1115:1179   */\n  tag_16\n  jump\t// in\ntag_35:\n    /* \"#utility.yul\":1105:1179   */\n  swap2\n  pop\n    /* \"#utility.yul\":1061:1189   */\n  pop\n    /* \"#utility.yul\":845:1196   */\n  swap3\n  swap2\n  pop\n  pop\n  jump\t// out\n    /* \"#utility.yul\":1202:1371   */\ntag_17:\n    /* \"#utility.yul\":1286:1297   */\n  0x00\n    /* \"#utility.yul\":1320:1326   */\n  dup3\n    /* \"#utility.yul\":1315:1318   */\n  dup3\n    /* \"#utility.yul\":1308:1327   */\n  mstore\n    /* \"#utility.yul\":1360:1364   */\n  0x20\n    /* \"#utility.yul\":1355:1358   */\n  dup3\n    /* \"#utility.yul\":1351:1365   */\n  add\n    /* \"#utility.yul\":1336:1365   */\n  swap1\n  pop\n    /* \"#utility.yul\":1202:1371   */\n  swap3\n  swap2\n  pop\n  pop\n  jump\t// out\n    /* \"#utility.yul\":1377:1551   */\ntag_18:\n    /* \"#utility.yul\":1517:1543   */\n  0x496e76616c696420726567697374727920616464726573730000000000000000\n    /* \"#utility.yul\":1513:1514   */\n  0x00\n    /* \"#utility.yul\":1505:1511   */\n  dup3\n    /* \"#utility.yul\":1501:1515   */\n  add\n    /* \"#utility.yul\":1494:1544   */\n  mstore\n    /* \"#utility.yul\":1377:1551   */\n  pop\n  jump\t// out\n    /* \"#utility.yul\":1557:1923   */\ntag_19:\n    /* \"#utility.yul\":1699:1702   */\n  0x00\n    /* \"#utility.yul\":1720:1787   */\n  tag_39\n    /* \"#utility.yul\":1784:1786   */\n  0x18\n    /* \"#utility.yul\":1779:1782   */\n  dup4\n    /* \"#utility.yul\":1720:1787   */\n  tag_17\n  jump\t// in\ntag_39:\n    /* \"#utility.yul\":1713:1787   */\n  swap2\n  pop\n    /* \"#utility.yul\":1796:1889   */\n  tag_40\n    /* \"#utility.yul\":1885:1888   */\n  dup3\n    /* \"#utility.yul\":1796:1889   */\n  tag_18\n  jump\t// in\ntag_40:\n    /* \"#utility.yul\":1914:1916   */\n  0x20\n    /* \"#utility.yul\":1909:1912   */\n  dup3\n    /* \"#utility.yul\":1905:1917   */\n  add\n    /* \"#utility.yul\":1898:1917   */\n  swap1\n  pop\n    /* \"#utility.yul\":1557:1923   */\n  swap2\n  swap1\n  pop\n  jump\t// out\n    /* \"#utility.yul\":1929:2348   */\ntag_8:\n    /* \"#utility.yul\":2095:2099   */\n  0x00\n    /* \"#utility.yul\":2133:2135   */\n  0x20\n    /* \"#utility.yul\":2122:2131   */\n  dup3\n    /* \"#utility.yul\":2118:2136   */\n  add\n    /* \"#utility.yul\":2110:2136   */\n  swap1\n  pop\n    /* \"#utility.yul\":2182:2191   */\n  dup2\n    /* \"#utility.yul\":2176:2180   */\n  dup2\n    /* \"#utility.yul\":2172:2192   */\n  sub\n    /* \"#utility.yul\":2168:2169   */\n  0x00\n    /* \"#utility.yul\":2157:2166   */\n  dup4\n    /* \"#utility.yul\":2153:2170   */\n  add\n    /* \"#utility.yul\":2146:2193   */\n  mstore\n    /* \"#utility.yul\":2210:2341   */\n  tag_42\n    /* \"#utility.yul\":2336:2340   */\n  dup2\n    /* \"#utility.yul\":2210:2341   */\n  tag_19\n  jump\t// in\ntag_42:\n    /* \"#utility.yul\":2202:2341   */\n  swap1\n  pop\n    /* \"#utility.yul\":1929:2348   */\n  swap2\n  swap1\n  pop\n  jump\t// out\n    /* \"Contracts/CreditDataLedger.sol\":700:4683  contract CreditDataLedger {... */\ntag_9:\n  dataSize(sub_0)\n  dup1\n  dataOffset(sub_0)\n  0x00\n  codecopy\n  0x00\n  return\nstop\n\nsub_0: assembly {\n        /* \"Contracts/CreditDataLedger.sol\":700:4683  contract CreditDataLedger {... */\n      mstore(0x40, 0x80)\n      callvalue\n      dup1\n      iszero\n      tag_1\n      jumpi\n      revert(0x00, 0x00)\n    tag_1:\n      pop\n      jumpi(tag_2, lt(calldatasize, 0x04))\n      shr(0xe0, calldataload(0x00))\n      dup1\n      0x07ed3d1a\n      eq\n      tag_3\n      jumpi\n      dup1\n      0x1621b573\n      eq\n      tag_4\n      jumpi\n      dup1\n      0x62da8313\n      eq\n      tag_5\n      jumpi\n      dup1\n      0x669d5521\n      eq\n      tag_6\n      jumpi\n      dup1\n      0x97890051\n      eq\n      tag_7\n      jumpi\n    tag_2:\n      revert(0x00, 0x00)\n        /* \"Contracts/CreditDataLedger.sol\":2901:4167  function addCreditEntry(address _userAddress, string memory _entryDetails) external {... */\n    tag_3:\n      tag_8\n      0x04\n      dup1\n      calldatasize\n      sub\n      dup2\n      add\n      swap1\n      tag_9\n      swap2\n      swap1\n      tag_10\n      jump\t// in\n    tag_9:\n      tag_11\n      jump\t// in\n    tag_8:\n      stop\n        /* \"Contracts/CreditDataLedger.sol\":1374:1432  mapping(address => CreditEntry[]) public userCreditHistory */\n    tag_4:\n      tag_12\n      0x04\n      dup1\n      calldatasize\n      sub\n      dup2\n      add\n      swap1\n      tag_13\n      swap2\n      swap1\n      tag_14\n      jump\t// in\n    tag_13:\n      tag_15\n      jump\t// in\n    tag_12:\n      mload(0x40)\n      tag_16\n      swap5\n      swap4\n      swap3\n      swap2\n      swap1\n      tag_17\n      jump\t// in\n    tag_16:\n      mload(0x40)\n      dup1\n      swap2\n      sub\n      swap1\n      return\n        /* \"Contracts/CreditDataLedger.sol\":1513:1540  uint256 public entryCounter */\n    tag_5:\n      tag_18\n      tag_19\n      jump\t// in\n    tag_18:\n      mload(0x40)\n      tag_20\n      swap2\n      swap1\n      tag_21\n      jump\t// in\n    tag_20:\n      mload(0x40)\n      dup1\n      swap2\n      sub\n      swap1\n      return\n        /* \"Contracts/CreditDataLedger.sol\":853:887  address public bankRegistryAddress */\n    tag_6:\n      tag_22\n      tag_23\n      jump\t// in\n    tag_22:\n      mload(0x40)\n      tag_24\n      swap2\n      swap1\n      tag_25\n      jump\t// in\n    tag_24:\n      mload(0x40)\n      dup1\n      swap2\n      sub\n      swap1\n      return\n        /* \"Contracts/CreditDataLedger.sol\":4529:4681  function getUserCreditHistory(address _userAddress) external view returns (CreditEntry[] memory) {... */\n    tag_7:\n      tag_26\n      0x04\n      dup1\n      calldatasize\n      sub\n      dup2\n      add\n      swap1\n      tag_27\n      swap2\n      swap1\n      tag_28\n      jump\t// in\n    tag_27:\n      tag_29\n      jump\t// in\n    tag_26:\n      mload(0x40)\n      tag_30\n      swap2\n      swap1\n      tag_31\n      jump\t// in\n    tag_30:\n      mload(0x40)\n      dup1\n      swap2\n      sub\n      swap1\n      return\n        /* \"Contracts/CreditDataLedger.sol\":2901:4167  function addCreditEntry(address _userAddress, string memory _entryDetails) external {... */\n    tag_11:\n        /* \"Contracts/CreditDataLedger.sol\":3187:3206  bankRegistryAddress */\n      0x00\n      0x00\n      swap1\n      sload\n      swap1\n      0x0100\n      exp\n      swap1\n      div\n      0xffffffffffffffffffffffffffffffffffffffff\n      and\n        /* \"Contracts/CreditDataLedger.sol\":3173:3224  IBankRegistry(bankRegistryAddress).isBankRegistered */\n      0xffffffffffffffffffffffffffffffffffffffff\n      and\n      0x09853a2f\n        /* \"Contracts/CreditDataLedger.sol\":3225:3235  msg.sender */\n      caller\n        /* \"Contracts/CreditDataLedger.sol\":3173:3236  IBankRegistry(bankRegistryAddress).isBankRegistered(msg.sender) */\n      mload(0x40)\n      dup3\n      0xffffffff\n      and\n      0xe0\n      shl\n      dup2\n      mstore\n      0x04\n      add\n      tag_33\n      swap2\n      swap1\n      tag_25\n      jump\t// in\n    tag_33:\n      0x20\n      mload(0x40)\n      dup1\n      dup4\n      sub\n      dup2\n      dup7\n      gas\n      staticcall\n      iszero\n      dup1\n      iszero\n      tag_35\n      jumpi\n      returndatacopy(0x00, 0x00, returndatasize)\n      revert(0x00, returndatasize)\n    tag_35:\n      pop\n      pop\n      pop\n      pop\n      mload(0x40)\n      returndatasize\n      not(0x1f)\n      0x1f\n      dup3\n      add\n      and\n      dup3\n      add\n      dup1\n      0x40\n      mstore\n      pop\n      dup2\n      add\n      swap1\n      tag_36\n      swap2\n      swap1\n      tag_37\n      jump\t// in\n    tag_36:\n        /* \"Contracts/CreditDataLedger.sol\":3152:3293  require(... */\n      tag_38\n      jumpi\n      mload(0x40)\n      0x08c379a000000000000000000000000000000000000000000000000000000000\n      dup2\n      mstore\n      0x04\n      add\n      tag_39\n      swap1\n      tag_40\n      jump\t// in\n    tag_39:\n      mload(0x40)\n      dup1\n      swap2\n      sub\n      swap1\n      revert\n    tag_38:\n        /* \"Contracts/CreditDataLedger.sol\":3427:3428  0 */\n      0x00\n        /* \"Contracts/CreditDataLedger.sol\":3403:3429  _userAddress != address(0) */\n      0xffffffffffffffffffffffffffffffffffffffff\n      and\n        /* \"Contracts/CreditDataLedger.sol\":3403:3415  _userAddress */\n      dup3\n        /* \"Contracts/CreditDataLedger.sol\":3403:3429  _userAddress != address(0) */\n      0xffffffffffffffffffffffffffffffffffffffff\n      and\n      sub\n        /* \"Contracts/CreditDataLedger.sol\":3395:3454  require(_userAddress != address(0), \"Invalid user address\") */\n      tag_41\n      jumpi\n      mload(0x40)\n      0x08c379a000000000000000000000000000000000000000000000000000000000\n      dup2\n      mstore\n      0x04\n      add\n      tag_42\n      swap1\n      tag_43\n      jump\t// in\n    tag_42:\n      mload(0x40)\n      dup1\n      swap2\n      sub\n      swap1\n      revert\n    tag_41:\n        /* \"Contracts/CreditDataLedger.sol\":3519:3531  entryCounter */\n      0x02\n      0x00\n        /* \"Contracts/CreditDataLedger.sol\":3519:3533  entryCounter++ */\n      dup2\n      sload\n      dup1\n      swap3\n      swap2\n      swap1\n      tag_44\n      swap1\n      tag_45\n      jump\t// in\n    tag_44:\n      swap2\n      swap1\n      pop\n      sstore\n      pop\n        /* \"Contracts/CreditDataLedger.sol\":3610:3637  CreditEntry memory newEntry */\n      0x00\n        /* \"Contracts/CreditDataLedger.sol\":3640:3877  CreditEntry(... */\n      mload(0x40)\n      dup1\n      0x80\n      add\n      0x40\n      mstore\n      dup1\n        /* \"Contracts/CreditDataLedger.sol\":3665:3677  entryCounter */\n      sload(0x02)\n        /* \"Contracts/CreditDataLedger.sol\":3640:3877  CreditEntry(... */\n      dup2\n      mstore\n      0x20\n      add\n        /* \"Contracts/CreditDataLedger.sol\":3691:3704  _entryDetails */\n      dup4\n        /* \"Contracts/CreditDataLedger.sol\":3640:3877  CreditEntry(... */\n      dup2\n      mstore\n      0x20\n      add\n        /* \"Contracts/CreditDataLedger.sol\":3718:3728  msg.sender */\n      caller\n        /* \"Contracts/CreditDataLedger.sol\":3640:3877  CreditEntry(... */\n      0xffffffffffffffffffffffffffffffffffffffff\n      and\n      dup2\n      mstore\n      0x20\n      add\n        /* \"Contracts/CreditDataLedger.sol\":3790:3805  block.timestamp */\n      timestamp\n        /* \"Contracts/CreditDataLedger.sol\":3640:3877  CreditEntry(... */\n      dup2\n      mstore\n      pop\n        /* \"Contracts/CreditDataLedger.sol\":3610:3877  CreditEntry memory newEntry = CreditEntry(... */\n      swap1\n      pop\n        /* \"Contracts/CreditDataLedger.sol\":3976:3993  userCreditHistory */\n      0x01\n        /* \"Contracts/CreditDataLedger.sol\":3976:4007  userCreditHistory[_userAddress] */\n      0x00\n        /* \"Contracts/CreditDataLedger.sol\":3994:4006  _userAddress */\n      dup5\n        /* \"Contracts/CreditDataLedger.sol\":3976:4007  userCreditHistory[_userAddress] */\n      0xffffffffffffffffffffffffffffffffffffffff\n      and\n      0xffffffffffffffffffffffffffffffffffffffff\n      and\n      dup2\n      mstore\n      0x20\n      add\n      swap1\n      dup2\n      mstore\n      0x20\n      add\n      0x00\n      keccak256\n        /* \"Contracts/CreditDataLedger.sol\":4013:4021  newEntry */\n      dup2\n        /* \"Contracts/CreditDataLedger.sol\":3976:4022  userCreditHistory[_userAddress].push(newEntry) */\n      swap1\n      dup1\n      0x01\n      dup2\n      sload\n      add\n      dup1\n      dup3\n      sstore\n      dup1\n      swap2\n      pop\n      pop\n      0x01\n      swap1\n      sub\n      swap1\n      0x00\n      mstore\n      keccak256(0x00, 0x20)\n      swap1\n      0x04\n      mul\n      add\n      0x00\n      swap1\n      swap2\n      swap1\n      swap2\n      swap1\n      swap2\n      pop\n      0x00\n      dup3\n      add\n      mload\n      dup2\n      0x00\n      add\n      sstore\n      0x20\n      dup3\n      add\n      mload\n      dup2\n      0x01\n      add\n      swap1\n      dup2\n      tag_47\n      swap2\n      swap1\n      tag_48\n      jump\t// in\n    tag_47:\n      pop\n      0x40\n      dup3\n      add\n      mload\n      dup2\n      0x02\n      add\n      exp(0x0100, 0x00)\n      dup2\n      sload\n      dup2\n      0xffffffffffffffffffffffffffffffffffffffff\n      mul\n      not\n      and\n      swap1\n      dup4\n      0xffffffffffffffffffffffffffffffffffffffff\n      and\n      mul\n      or\n      swap1\n      sstore\n      pop\n      0x60\n      dup3\n      add\n      mload\n      dup2\n      0x03\n      add\n      sstore\n      pop\n      pop\n        /* \"Contracts/CreditDataLedger.sol\":4135:4145  msg.sender */\n      caller\n        /* \"Contracts/CreditDataLedger.sol\":4105:4160  CreditDataAdded(_userAddress, msg.sender, entryCounter) */\n      0xffffffffffffffffffffffffffffffffffffffff\n      and\n        /* \"Contracts/CreditDataLedger.sol\":4121:4133  _userAddress */\n      dup4\n        /* \"Contracts/CreditDataLedger.sol\":4105:4160  CreditDataAdded(_userAddress, msg.sender, entryCounter) */\n      0xffffffffffffffffffffffffffffffffffffffff\n      and\n      0x305fcabfbbbc49beb5e5ce71fb0707c6c491111b6eba2b90d5f1f6aa52ad4d63\n        /* \"Contracts/CreditDataLedger.sol\":4147:4159  entryCounter */\n      sload(0x02)\n        /* \"Contracts/CreditDataLedger.sol\":4105:4160  CreditDataAdded(_userAddress, msg.sender, entryCounter) */\n      mload(0x40)\n      tag_49\n      swap2\n      swap1\n      tag_21\n      jump\t// in\n    tag_49:\n      mload(0x40)\n      dup1\n      swap2\n      sub\n      swap1\n      log3\n        /* \"Contracts/CreditDataLedger.sol\":2985:4167  {... */\n      pop\n        /* \"Contracts/CreditDataLedger.sol\":2901:4167  function addCreditEntry(address _userAddress, string memory _entryDetails) external {... */\n      pop\n      pop\n      jump\t// out\n        /* \"Contracts/CreditDataLedger.sol\":1374:1432  mapping(address => CreditEntry[]) public userCreditHistory */\n    tag_15:\n      mstore(0x20, 0x01)\n      dup2\n      0x00\n      mstore\n      keccak256(0x00, 0x40)\n      dup2\n      dup2\n      sload\n      dup2\n      lt\n      tag_50\n      jumpi\n      0x00\n      dup1\n      revert\n    tag_50:\n      swap1\n      0x00\n      mstore\n      keccak256(0x00, 0x20)\n      swap1\n      0x04\n      mul\n      add\n      0x00\n      swap2\n      pop\n      swap2\n      pop\n      pop\n      dup1\n      0x00\n      add\n      sload\n      swap1\n      dup1\n      0x01\n      add\n      dup1\n      sload\n      tag_52\n      swap1\n      tag_53\n      jump\t// in\n    tag_52:\n      dup1\n      0x1f\n      add\n      0x20\n      dup1\n      swap2\n      div\n      mul\n      0x20\n      add\n      mload(0x40)\n      swap1\n      dup2\n      add\n      0x40\n      mstore\n      dup1\n      swap3\n      swap2\n      swap1\n      dup2\n      dup2\n      mstore\n      0x20\n      add\n      dup3\n      dup1\n      sload\n      tag_54\n      swap1\n      tag_53\n      jump\t// in\n    tag_54:\n      dup1\n      iszero\n      tag_55\n      jumpi\n      dup1\n      0x1f\n      lt\n      tag_56\n      jumpi\n      0x0100\n      dup1\n      dup4\n      sload\n      div\n      mul\n      dup4\n      mstore\n      swap2\n      0x20\n      add\n      swap2\n      jump(tag_55)\n    tag_56:\n      dup3\n      add\n      swap2\n      swap1\n      0x00\n      mstore\n      keccak256(0x00, 0x20)\n      swap1\n    tag_57:\n      dup2\n      sload\n      dup2\n      mstore\n      swap1\n      0x01\n      add\n      swap1\n      0x20\n      add\n      dup1\n      dup4\n      gt\n      tag_57\n      jumpi\n      dup3\n      swap1\n      sub\n      0x1f\n      and\n      dup3\n      add\n      swap2\n    tag_55:\n      pop\n      pop\n      pop\n      pop\n      pop\n      swap1\n      dup1\n      0x02\n      add\n      0x00\n      swap1\n      sload\n      swap1\n      0x0100\n      exp\n      swap1\n      div\n      0xffffffffffffffffffffffffffffffffffffffff\n      and\n      swap1\n      dup1\n      0x03\n      add\n      sload\n      swap1\n      pop\n      dup5\n      jump\t// out\n        /* \"Contracts/CreditDataLedger.sol\":1513:1540  uint256 public entryCounter */\n    tag_19:\n      sload(0x02)\n      dup2\n      jump\t// out\n        /* \"Contracts/CreditDataLedger.sol\":853:887  address public bankRegistryAddress */\n    tag_23:\n      0x00\n      0x00\n      swap1\n      sload\n      swap1\n      0x0100\n      exp\n      swap1\n      div\n      0xffffffffffffffffffffffffffffffffffffffff\n      and\n      dup2\n      jump\t// out\n        /* \"Contracts/CreditDataLedger.sol\":4529:4681  function getUserCreditHistory(address _userAddress) external view returns (CreditEntry[] memory) {... */\n    tag_29:\n        /* \"Contracts/CreditDataLedger.sol\":4604:4624  CreditEntry[] memory */\n      0x60\n        /* \"Contracts/CreditDataLedger.sol\":4643:4660  userCreditHistory */\n      0x01\n        /* \"Contracts/CreditDataLedger.sol\":4643:4674  userCreditHistory[_userAddress] */\n      0x00\n        /* \"Contracts/CreditDataLedger.sol\":4661:4673  _userAddress */\n      dup4\n        /* \"Contracts/CreditDataLedger.sol\":4643:4674  userCreditHistory[_userAddress] */\n      0xffffffffffffffffffffffffffffffffffffffff\n      and\n      0xffffffffffffffffffffffffffffffffffffffff\n      and\n      dup2\n      mstore\n      0x20\n      add\n      swap1\n      dup2\n      mstore\n      0x20\n      add\n      0x00\n      keccak256\n        /* \"Contracts/CreditDataLedger.sol\":4636:4674  return userCreditHistory[_userAddress] */\n      dup1\n      sload\n      dup1\n      0x20\n      mul\n      0x20\n      add\n      mload(0x40)\n      swap1\n      dup2\n      add\n      0x40\n      mstore\n      dup1\n      swap3\n      swap2\n      swap1\n      dup2\n      dup2\n      mstore\n      0x20\n      add\n      0x00\n      swap1\n    tag_59:\n      dup3\n      dup3\n      lt\n      iszero\n      tag_60\n      jumpi\n      dup4\n      dup3\n      swap1\n      0x00\n      mstore\n      keccak256(0x00, 0x20)\n      swap1\n      0x04\n      mul\n      add\n      mload(0x40)\n      dup1\n      0x80\n      add\n      0x40\n      mstore\n      swap1\n      dup2\n      0x00\n      dup3\n      add\n      sload\n      dup2\n      mstore\n      0x20\n      add\n      0x01\n      dup3\n      add\n      dup1\n      sload\n      tag_62\n      swap1\n      tag_53\n      jump\t// in\n    tag_62:\n      dup1\n      0x1f\n      add\n      0x20\n      dup1\n      swap2\n      div\n      mul\n      0x20\n      add\n      mload(0x40)\n      swap1\n      dup2\n      add\n      0x40\n      mstore\n      dup1\n      swap3\n      swap2\n      swap1\n      dup2\n      dup2\n      mstore\n      0x20\n      add\n      dup3\n      dup1\n      sload\n      tag_63\n      swap1\n      tag_53\n      jump\t// in\n    tag_63:\n      dup1\n      iszero\n      tag_64\n      jumpi\n      dup1\n      0x1f\n      lt\n      tag_65\n      jumpi\n      0x0100\n      dup1\n      dup4\n      sload\n      div\n      mul\n      dup4\n      mstore\n      swap2\n      0x20\n      add\n      swap2\n      jump(tag_64)\n    tag_65:\n      dup3\n      add\n      swap2\n      swap1\n      0x00\n      mstore\n      keccak256(0x00, 0x20)\n      swap1\n    tag_66:\n      dup2\n      sload\n      dup2\n      mstore\n      swap1\n      0x01\n      add\n      swap1\n      0x20\n      add\n      dup1\n      dup4\n      gt\n      tag_66\n      jumpi\n      dup3\n      swap1\n      sub\n      0x1f\n      and\n      dup3\n      add\n      swap2\n    tag_64:\n      pop\n      pop\n      pop\n      pop\n      pop\n      dup2\n      mstore\n      0x20\n      add\n      0x02\n      dup3\n      add\n      0x00\n      swap1\n      sload\n      swap1\n      0x0100\n      exp\n      swap1\n      div\n      0xffffffffffffffffffffffffffffffffffffffff\n      and\n      0xffffffffffffffffffffffffffffffffffffffff\n      and\n      0xffffffffffffffffffffffffffffffffffffffff\n      and\n      dup2\n      mstore\n      0x20\n      add\n      0x03\n      dup3\n      add\n      sload\n      dup2\n      mstore\n      pop\n      pop\n      dup2\n      mstore\n      0x20\n      add\n      swap1\n      0x01\n      add\n      swap1\n      jump(tag_59)\n    tag_60:\n      pop\n      pop\n      pop\n      pop\n      swap1\n      pop\n        /* \"Contracts/CreditDataLedger.sol\":4529:4681  function getUserCreditHistory(address _userAddress) external view returns (CreditEntry[] memory) {... */\n      swap2\n      swap1\n      pop\n      jump\t// out\n        /* \"#utility.yul\":7:82   */\n    tag_67:\n        /* \"#utility.yul\":40:46   */\n      0x00\n        /* \"#utility.yul\":73:75   */\n      0x40\n        /* \"#utility.yul\":67:76   */\n      mload\n        /* \"#utility.yul\":57:76   */\n      swap1\n      pop\n        /* \"#utility.yul\":7:82   */\n      swap1\n      jump\t// out\n        /* \"#utility.yul\":88:205   */\n    tag_68:\n        /* \"#utility.yul\":197:198   */\n      0x00\n        /* \"#utility.yul\":194:195   */\n      0x00\n        /* \"#utility.yul\":187:199   */\n      revert\n        /* \"#utility.yul\":211:328   */\n    tag_69:\n        /* \"#utility.yul\":320:321   */\n      0x00\n        /* \"#utility.yul\":317:318   */\n      0x00\n        /* \"#utility.yul\":310:322   */\n      revert\n        /* \"#utility.yul\":334:460   */\n    tag_70:\n        /* \"#utility.yul\":371:378   */\n      0x00\n        /* \"#utility.yul\":411:453   */\n      0xffffffffffffffffffffffffffffffffffffffff\n        /* \"#utility.yul\":404:409   */\n      dup3\n        /* \"#utility.yul\":400:454   */\n      and\n        /* \"#utility.yul\":389:454   */\n      swap1\n      pop\n        /* \"#utility.yul\":334:460   */\n      swap2\n      swap1\n      pop\n      jump\t// out\n        /* \"#utility.yul\":466:562   */\n    tag_71:\n        /* \"#utility.yul\":503:510   */\n      0x00\n        /* \"#utility.yul\":532:556   */\n      tag_134\n        /* \"#utility.yul\":550:555   */\n      dup3\n        /* \"#utility.yul\":532:556   */\n      tag_70\n      jump\t// in\n    tag_134:\n        /* \"#utility.yul\":521:556   */\n      swap1\n      pop\n        /* \"#utility.yul\":466:562   */\n      swap2\n      swap1\n      pop\n      jump\t// out\n        /* \"#utility.yul\":568:690   */\n    tag_72:\n        /* \"#utility.yul\":641:665   */\n      tag_136\n        /* \"#utility.yul\":659:664   */\n      dup2\n        /* \"#utility.yul\":641:665   */\n      tag_71\n      jump\t// in\n    tag_136:\n        /* \"#utility.yul\":634:639   */\n      dup2\n        /* \"#utility.yul\":631:666   */\n      eq\n        /* \"#utility.yul\":621:684   */\n      tag_137\n      jumpi\n        /* \"#utility.yul\":680:681   */\n      0x00\n        /* \"#utility.yul\":677:678   */\n      0x00\n        /* \"#utility.yul\":670:682   */\n      revert\n        /* \"#utility.yul\":621:684   */\n    tag_137:\n        /* \"#utility.yul\":568:690   */\n      pop\n      jump\t// out\n        /* \"#utility.yul\":696:835   */\n    tag_73:\n        /* \"#utility.yul\":742:747   */\n      0x00\n        /* \"#utility.yul\":780:786   */\n      dup2\n        /* \"#utility.yul\":767:787   */\n      calldataload\n        /* \"#utility.yul\":758:787   */\n      swap1\n      pop\n        /* \"#utility.yul\":796:829   */\n      tag_139\n        /* \"#utility.yul\":823:828   */\n      dup2\n        /* \"#utility.yul\":796:829   */\n      tag_72\n      jump\t// in\n    tag_139:\n        /* \"#utility.yul\":696:835   */\n      swap3\n      swap2\n      pop\n      pop\n      jump\t// out\n        /* \"#utility.yul\":841:958   */\n    tag_74:\n        /* \"#utility.yul\":950:951   */\n      0x00\n        /* \"#utility.yul\":947:948   */\n      0x00\n        /* \"#utility.yul\":940:952   */\n      revert\n        /* \"#utility.yul\":964:1081   */\n    tag_75:\n        /* \"#utility.yul\":1073:1074   */\n      0x00\n        /* \"#utility.yul\":1070:1071   */\n      0x00\n        /* \"#utility.yul\":1063:1075   */\n      revert\n        /* \"#utility.yul\":1087:1189   */\n    tag_76:\n        /* \"#utility.yul\":1128:1134   */\n      0x00\n        /* \"#utility.yul\":1179:1181   */\n      0x1f\n        /* \"#utility.yul\":1175:1182   */\n      not\n        /* \"#utility.yul\":1170:1172   */\n      0x1f\n        /* \"#utility.yul\":1163:1168   */\n      dup4\n        /* \"#utility.yul\":1159:1173   */\n      add\n        /* \"#utility.yul\":1155:1183   */\n      and\n        /* \"#utility.yul\":1145:1183   */\n      swap1\n      pop\n        /* \"#utility.yul\":1087:1189   */\n      swap2\n      swap1\n      pop\n      jump\t// out\n        /* \"#utility.yul\":1195:1375   */\n    tag_77:\n        /* \"#utility.yul\":1243:1320   */\n      0x4e487b7100000000000000000000000000000000000000000000000000000000\n        /* \"#utility.yul\":1240:1241   */\n      0x00\n        /* \"#utility.yul\":1233:1321   */\n      mstore\n        /* \"#utility.yul\":1340:1344   */\n      0x41\n        /* \"#utility.yul\":1337:1338   */\n      0x04\n        /* \"#utility.yul\":1330:1345   */\n      mstore\n        /* \"#utility.yul\":1364:1368   */\n      0x24\n        /* \"#utility.yul\":1361:1362   */\n      0x00\n        /* \"#utility.yul\":1354:1369   */\n      revert\n        /* \"#utility.yul\":1381:1662   */\n    tag_78:\n        /* \"#utility.yul\":1464:1491   */\n      tag_145\n        /* \"#utility.yul\":1486:1490   */\n      dup3\n        /* \"#utility.yul\":1464:1491   */\n      tag_76\n      jump\t// in\n    tag_145:\n        /* \"#utility.yul\":1456:1462   */\n      dup2\n        /* \"#utility.yul\":1452:1492   */\n      add\n        /* \"#utility.yul\":1594:1600   */\n      dup2\n        /* \"#utility.yul\":1582:1592   */\n      dup2\n        /* \"#utility.yul\":1579:1601   */\n      lt\n        /* \"#utility.yul\":1558:1576   */\n      0xffffffffffffffff\n        /* \"#utility.yul\":1546:1556   */\n      dup3\n        /* \"#utility.yul\":1543:1577   */\n      gt\n        /* \"#utility.yul\":1540:1602   */\n      or\n        /* \"#utility.yul\":1537:1625   */\n      iszero\n      tag_146\n      jumpi\n        /* \"#utility.yul\":1605:1623   */\n      tag_147\n      tag_77\n      jump\t// in\n    tag_147:\n        /* \"#utility.yul\":1537:1625   */\n    tag_146:\n        /* \"#utility.yul\":1645:1655   */\n      dup1\n        /* \"#utility.yul\":1641:1643   */\n      0x40\n        /* \"#utility.yul\":1634:1656   */\n      mstore\n        /* \"#utility.yul\":1424:1662   */\n      pop\n        /* \"#utility.yul\":1381:1662   */\n      pop\n      pop\n      jump\t// out\n        /* \"#utility.yul\":1668:1797   */\n    tag_79:\n        /* \"#utility.yul\":1702:1708   */\n      0x00\n        /* \"#utility.yul\":1729:1749   */\n      tag_149\n      tag_67\n      jump\t// in\n    tag_149:\n        /* \"#utility.yul\":1719:1749   */\n      swap1\n      pop\n        /* \"#utility.yul\":1758:1791   */\n      tag_150\n        /* \"#utility.yul\":1786:1790   */\n      dup3\n        /* \"#utility.yul\":1778:1784   */\n      dup3\n        /* \"#utility.yul\":1758:1791   */\n      tag_78\n      jump\t// in\n    tag_150:\n        /* \"#utility.yul\":1668:1797   */\n      swap2\n      swap1\n      pop\n      jump\t// out\n        /* \"#utility.yul\":1803:2111   */\n    tag_80:\n        /* \"#utility.yul\":1865:1869   */\n      0x00\n        /* \"#utility.yul\":1955:1973   */\n      0xffffffffffffffff\n        /* \"#utility.yul\":1947:1953   */\n      dup3\n        /* \"#utility.yul\":1944:1974   */\n      gt\n        /* \"#utility.yul\":1941:1997   */\n      iszero\n      tag_152\n      jumpi\n        /* \"#utility.yul\":1977:1995   */\n      tag_153\n      tag_77\n      jump\t// in\n    tag_153:\n        /* \"#utility.yul\":1941:1997   */\n    tag_152:\n        /* \"#utility.yul\":2015:2044   */\n      tag_154\n        /* \"#utility.yul\":2037:2043   */\n      dup3\n        /* \"#utility.yul\":2015:2044   */\n      tag_76\n      jump\t// in\n    tag_154:\n        /* \"#utility.yul\":2007:2044   */\n      swap1\n      pop\n        /* \"#utility.yul\":2099:2103   */\n      0x20\n        /* \"#utility.yul\":2093:2097   */\n      dup2\n        /* \"#utility.yul\":2089:2104   */\n      add\n        /* \"#utility.yul\":2081:2104   */\n      swap1\n      pop\n        /* \"#utility.yul\":1803:2111   */\n      swap2\n      swap1\n      pop\n      jump\t// out\n        /* \"#utility.yul\":2117:2265   */\n    tag_81:\n        /* \"#utility.yul\":2215:2221   */\n      dup3\n        /* \"#utility.yul\":2210:2213   */\n      dup2\n        /* \"#utility.yul\":2205:2208   */\n      dup4\n        /* \"#utility.yul\":2192:2222   */\n      calldatacopy\n        /* \"#utility.yul\":2256:2257   */\n      0x00\n        /* \"#utility.yul\":2247:2253   */\n      dup4\n        /* \"#utility.yul\":2242:2245   */\n      dup4\n        /* \"#utility.yul\":2238:2254   */\n      add\n        /* \"#utility.yul\":2231:2258   */\n      mstore\n        /* \"#utility.yul\":2117:2265   */\n      pop\n      pop\n      pop\n      jump\t// out\n        /* \"#utility.yul\":2271:2696   */\n    tag_82:\n        /* \"#utility.yul\":2349:2354   */\n      0x00\n        /* \"#utility.yul\":2374:2440   */\n      tag_157\n        /* \"#utility.yul\":2390:2439   */\n      tag_158\n        /* \"#utility.yul\":2432:2438   */\n      dup5\n        /* \"#utility.yul\":2390:2439   */\n      tag_80\n      jump\t// in\n    tag_158:\n        /* \"#utility.yul\":2374:2440   */\n      tag_79\n      jump\t// in\n    tag_157:\n        /* \"#utility.yul\":2365:2440   */\n      swap1\n      pop\n        /* \"#utility.yul\":2463:2469   */\n      dup3\n        /* \"#utility.yul\":2456:2461   */\n      dup2\n        /* \"#utility.yul\":2449:2470   */\n      mstore\n        /* \"#utility.yul\":2501:2505   */\n      0x20\n        /* \"#utility.yul\":2494:2499   */\n      dup2\n        /* \"#utility.yul\":2490:2506   */\n      add\n        /* \"#utility.yul\":2539:2542   */\n      dup5\n        /* \"#utility.yul\":2530:2536   */\n      dup5\n        /* \"#utility.yul\":2525:2528   */\n      dup5\n        /* \"#utility.yul\":2521:2537   */\n      add\n        /* \"#utility.yul\":2518:2543   */\n      gt\n        /* \"#utility.yul\":2515:2627   */\n      iszero\n      tag_159\n      jumpi\n        /* \"#utility.yul\":2546:2625   */\n      tag_160\n      tag_75\n      jump\t// in\n    tag_160:\n        /* \"#utility.yul\":2515:2627   */\n    tag_159:\n        /* \"#utility.yul\":2636:2690   */\n      tag_161\n        /* \"#utility.yul\":2683:2689   */\n      dup5\n        /* \"#utility.yul\":2678:2681   */\n      dup3\n        /* \"#utility.yul\":2673:2676   */\n      dup6\n        /* \"#utility.yul\":2636:2690   */\n      tag_81\n      jump\t// in\n    tag_161:\n        /* \"#utility.yul\":2355:2696   */\n      pop\n        /* \"#utility.yul\":2271:2696   */\n      swap4\n      swap3\n      pop\n      pop\n      pop\n      jump\t// out\n        /* \"#utility.yul\":2716:3056   */\n    tag_83:\n        /* \"#utility.yul\":2772:2777   */\n      0x00\n        /* \"#utility.yul\":2821:2824   */\n      dup3\n        /* \"#utility.yul\":2814:2818   */\n      0x1f\n        /* \"#utility.yul\":2806:2812   */\n      dup4\n        /* \"#utility.yul\":2802:2819   */\n      add\n        /* \"#utility.yul\":2798:2825   */\n      slt\n        /* \"#utility.yul\":2788:2910   */\n      tag_163\n      jumpi\n        /* \"#utility.yul\":2829:2908   */\n      tag_164\n      tag_74\n      jump\t// in\n    tag_164:\n        /* \"#utility.yul\":2788:2910   */\n    tag_163:\n        /* \"#utility.yul\":2946:2952   */\n      dup2\n        /* \"#utility.yul\":2933:2953   */\n      calldataload\n        /* \"#utility.yul\":2971:3050   */\n      tag_165\n        /* \"#utility.yul\":3046:3049   */\n      dup5\n        /* \"#utility.yul\":3038:3044   */\n      dup3\n        /* \"#utility.yul\":3031:3035   */\n      0x20\n        /* \"#utility.yul\":3023:3029   */\n      dup7\n        /* \"#utility.yul\":3019:3036   */\n      add\n        /* \"#utility.yul\":2971:3050   */\n      tag_82\n      jump\t// in\n    tag_165:\n        /* \"#utility.yul\":2962:3050   */\n      swap2\n      pop\n        /* \"#utility.yul\":2778:3056   */\n      pop\n        /* \"#utility.yul\":2716:3056   */\n      swap3\n      swap2\n      pop\n      pop\n      jump\t// out\n        /* \"#utility.yul\":3062:3716   */\n    tag_10:\n        /* \"#utility.yul\":3140:3146   */\n      0x00\n        /* \"#utility.yul\":3148:3154   */\n      0x00\n        /* \"#utility.yul\":3197:3199   */\n      0x40\n        /* \"#utility.yul\":3185:3194   */\n      dup4\n        /* \"#utility.yul\":3176:3183   */\n      dup6\n        /* \"#utility.yul\":3172:3195   */\n      sub\n        /* \"#utility.yul\":3168:3200   */\n      slt\n        /* \"#utility.yul\":3165:3284   */\n      iszero\n      tag_167\n      jumpi\n        /* \"#utility.yul\":3203:3282   */\n      tag_168\n      tag_68\n      jump\t// in\n    tag_168:\n        /* \"#utility.yul\":3165:3284   */\n    tag_167:\n        /* \"#utility.yul\":3323:3324   */\n      0x00\n        /* \"#utility.yul\":3348:3401   */\n      tag_169\n        /* \"#utility.yul\":3393:3400   */\n      dup6\n        /* \"#utility.yul\":3384:3390   */\n      dup3\n        /* \"#utility.yul\":3373:3382   */\n      dup7\n        /* \"#utility.yul\":3369:3391   */\n      add\n        /* \"#utility.yul\":3348:3401   */\n      tag_73\n      jump\t// in\n    tag_169:\n        /* \"#utility.yul\":3338:3401   */\n      swap3\n      pop\n        /* \"#utility.yul\":3294:3411   */\n      pop\n        /* \"#utility.yul\":3478:3480   */\n      0x20\n        /* \"#utility.yul\":3467:3476   */\n      dup4\n        /* \"#utility.yul\":3463:3481   */\n      add\n        /* \"#utility.yul\":3450:3482   */\n      calldataload\n        /* \"#utility.yul\":3509:3527   */\n      0xffffffffffffffff\n        /* \"#utility.yul\":3501:3507   */\n      dup2\n        /* \"#utility.yul\":3498:3528   */\n      gt\n        /* \"#utility.yul\":3495:3612   */\n      iszero\n      tag_170\n      jumpi\n        /* \"#utility.yul\":3531:3610   */\n      tag_171\n      tag_69\n      jump\t// in\n    tag_171:\n        /* \"#utility.yul\":3495:3612   */\n    tag_170:\n        /* \"#utility.yul\":3636:3699   */\n      tag_172\n        /* \"#utility.yul\":3691:3698   */\n      dup6\n        /* \"#utility.yul\":3682:3688   */\n      dup3\n        /* \"#utility.yul\":3671:3680   */\n      dup7\n        /* \"#utility.yul\":3667:3689   */\n      add\n        /* \"#utility.yul\":3636:3699   */\n      tag_83\n      jump\t// in\n    tag_172:\n        /* \"#utility.yul\":3626:3699   */\n      swap2\n      pop\n        /* \"#utility.yul\":3421:3709   */\n      pop\n        /* \"#utility.yul\":3062:3716   */\n      swap3\n      pop\n      swap3\n      swap1\n      pop\n      jump\t// out\n        /* \"#utility.yul\":3722:3799   */\n    tag_84:\n        /* \"#utility.yul\":3759:3766   */\n      0x00\n        /* \"#utility.yul\":3788:3793   */\n      dup2\n        /* \"#utility.yul\":3777:3793   */\n      swap1\n      pop\n        /* \"#utility.yul\":3722:3799   */\n      swap2\n      swap1\n      pop\n      jump\t// out\n        /* \"#utility.yul\":3805:3927   */\n    tag_85:\n        /* \"#utility.yul\":3878:3902   */\n      tag_175\n        /* \"#utility.yul\":3896:3901   */\n      dup2\n        /* \"#utility.yul\":3878:3902   */\n      tag_84\n      jump\t// in\n    tag_175:\n        /* \"#utility.yul\":3871:3876   */\n      dup2\n        /* \"#utility.yul\":3868:3903   */\n      eq\n        /* \"#utility.yul\":3858:3921   */\n      tag_176\n      jumpi\n        /* \"#utility.yul\":3917:3918   */\n      0x00\n        /* \"#utility.yul\":3914:3915   */\n      0x00\n        /* \"#utility.yul\":3907:3919   */\n      revert\n        /* \"#utility.yul\":3858:3921   */\n    tag_176:\n        /* \"#utility.yul\":3805:3927   */\n      pop\n      jump\t// out\n        /* \"#utility.yul\":3933:4072   */\n    tag_86:\n        /* \"#utility.yul\":3979:3984   */\n      0x00\n        /* \"#utility.yul\":4017:4023   */\n      dup2\n        /* \"#utility.yul\":4004:4024   */\n      calldataload\n        /* \"#utility.yul\":3995:4024   */\n      swap1\n      pop\n        /* \"#utility.yul\":4033:4066   */\n      tag_178\n        /* \"#utility.yul\":4060:4065   */\n      dup2\n        /* \"#utility.yul\":4033:4066   */\n      tag_85\n      jump\t// in\n    tag_178:\n        /* \"#utility.yul\":3933:4072   */\n      swap3\n      swap2\n      pop\n      pop\n      jump\t// out\n        /* \"#utility.yul\":4078:4552   */\n    tag_14:\n        /* \"#utility.yul\":4146:4152   */\n      0x00\n        /* \"#utility.yul\":4154:4160   */\n      0x00\n        /* \"#utility.yul\":4203:4205   */\n      0x40\n        /* \"#utility.yul\":4191:4200   */\n      dup4\n        /* \"#utility.yul\":4182:4189   */\n      dup6\n        /* \"#utility.yul\":4178:4201   */\n      sub\n        /* \"#utility.yul\":4174:4206   */\n      slt\n        /* \"#utility.yul\":4171:4290   */\n      iszero\n      tag_180\n      jumpi\n        /* \"#utility.yul\":4209:4288   */\n      tag_181\n      tag_68\n      jump\t// in\n    tag_181:\n        /* \"#utility.yul\":4171:4290   */\n    tag_180:\n        /* \"#utility.yul\":4329:4330   */\n      0x00\n        /* \"#utility.yul\":4354:4407   */\n      tag_182\n        /* \"#utility.yul\":4399:4406   */\n      dup6\n        /* \"#utility.yul\":4390:4396   */\n      dup3\n        /* \"#utility.yul\":4379:4388   */\n      dup7\n        /* \"#utility.yul\":4375:4397   */\n      add\n        /* \"#utility.yul\":4354:4407   */\n      tag_73\n      jump\t// in\n    tag_182:\n        /* \"#utility.yul\":4344:4407   */\n      swap3\n      pop\n        /* \"#utility.yul\":4300:4417   */\n      pop\n        /* \"#utility.yul\":4456:4458   */\n      0x20\n        /* \"#utility.yul\":4482:4535   */\n      tag_183\n        /* \"#utility.yul\":4527:4534   */\n      dup6\n        /* \"#utility.yul\":4518:4524   */\n      dup3\n        /* \"#utility.yul\":4507:4516   */\n      dup7\n        /* \"#utility.yul\":4503:4525   */\n      add\n        /* \"#utility.yul\":4482:4535   */\n      tag_86\n      jump\t// in\n    tag_183:\n        /* \"#utility.yul\":4472:4535   */\n      swap2\n      pop\n        /* \"#utility.yul\":4427:4545   */\n      pop\n        /* \"#utility.yul\":4078:4552   */\n      swap3\n      pop\n      swap3\n      swap1\n      pop\n      jump\t// out\n        /* \"#utility.yul\":4558:4676   */\n    tag_87:\n        /* \"#utility.yul\":4645:4669   */\n      tag_185\n        /* \"#utility.yul\":4663:4668   */\n      dup2\n        /* \"#utility.yul\":4645:4669   */\n      tag_84\n      jump\t// in\n    tag_185:\n        /* \"#utility.yul\":4640:4643   */\n      dup3\n        /* \"#utility.yul\":4633:4670   */\n      mstore\n        /* \"#utility.yul\":4558:4676   */\n      pop\n      pop\n      jump\t// out\n        /* \"#utility.yul\":4682:4781   */\n    tag_88:\n        /* \"#utility.yul\":4734:4740   */\n      0x00\n        /* \"#utility.yul\":4768:4773   */\n      dup2\n        /* \"#utility.yul\":4762:4774   */\n      mload\n        /* \"#utility.yul\":4752:4774   */\n      swap1\n      pop\n        /* \"#utility.yul\":4682:4781   */\n      swap2\n      swap1\n      pop\n      jump\t// out\n        /* \"#utility.yul\":4787:4956   */\n    tag_89:\n        /* \"#utility.yul\":4871:4882   */\n      0x00\n        /* \"#utility.yul\":4905:4911   */\n      dup3\n        /* \"#utility.yul\":4900:4903   */\n      dup3\n        /* \"#utility.yul\":4893:4912   */\n      mstore\n        /* \"#utility.yul\":4945:4949   */\n      0x20\n        /* \"#utility.yul\":4940:4943   */\n      dup3\n        /* \"#utility.yul\":4936:4950   */\n      add\n        /* \"#utility.yul\":4921:4950   */\n      swap1\n      pop\n        /* \"#utility.yul\":4787:4956   */\n      swap3\n      swap2\n      pop\n      pop\n      jump\t// out\n        /* \"#utility.yul\":4962:5101   */\n    tag_90:\n        /* \"#utility.yul\":5051:5057   */\n      dup3\n        /* \"#utility.yul\":5046:5049   */\n      dup2\n        /* \"#utility.yul\":5041:5044   */\n      dup4\n        /* \"#utility.yul\":5035:5058   */\n      mcopy\n        /* \"#utility.yul\":5092:5093   */\n      0x00\n        /* \"#utility.yul\":5083:5089   */\n      dup4\n        /* \"#utility.yul\":5078:5081   */\n      dup4\n        /* \"#utility.yul\":5074:5090   */\n      add\n        /* \"#utility.yul\":5067:5094   */\n      mstore\n        /* \"#utility.yul\":4962:5101   */\n      pop\n      pop\n      pop\n      jump\t// out\n        /* \"#utility.yul\":5107:5484   */\n    tag_91:\n        /* \"#utility.yul\":5195:5198   */\n      0x00\n        /* \"#utility.yul\":5223:5262   */\n      tag_190\n        /* \"#utility.yul\":5256:5261   */\n      dup3\n        /* \"#utility.yul\":5223:5262   */\n      tag_88\n      jump\t// in\n    tag_190:\n        /* \"#utility.yul\":5278:5349   */\n      tag_191\n        /* \"#utility.yul\":5342:5348   */\n      dup2\n        /* \"#utility.yul\":5337:5340   */\n      dup6\n        /* \"#utility.yul\":5278:5349   */\n      tag_89\n      jump\t// in\n    tag_191:\n        /* \"#utility.yul\":5271:5349   */\n      swap4\n      pop\n        /* \"#utility.yul\":5358:5423   */\n      tag_192\n        /* \"#utility.yul\":5416:5422   */\n      dup2\n        /* \"#utility.yul\":5411:5414   */\n      dup6\n        /* \"#utility.yul\":5404:5408   */\n      0x20\n        /* \"#utility.yul\":5397:5402   */\n      dup7\n        /* \"#utility.yul\":5393:5409   */\n      add\n        /* \"#utility.yul\":5358:5423   */\n      tag_90\n      jump\t// in\n    tag_192:\n        /* \"#utility.yul\":5448:5477   */\n      tag_193\n        /* \"#utility.yul\":5470:5476   */\n      dup2\n        /* \"#utility.yul\":5448:5477   */\n      tag_76\n      jump\t// in\n    tag_193:\n        /* \"#utility.yul\":5443:5446   */\n      dup5\n        /* \"#utility.yul\":5439:5478   */\n      add\n        /* \"#utility.yul\":5432:5478   */\n      swap2\n      pop\n        /* \"#utility.yul\":5199:5484   */\n      pop\n        /* \"#utility.yul\":5107:5484   */\n      swap3\n      swap2\n      pop\n      pop\n      jump\t// out\n        /* \"#utility.yul\":5490:5608   */\n    tag_92:\n        /* \"#utility.yul\":5577:5601   */\n      tag_195\n        /* \"#utility.yul\":5595:5600   */\n      dup2\n        /* \"#utility.yul\":5577:5601   */\n      tag_71\n      jump\t// in\n    tag_195:\n        /* \"#utility.yul\":5572:5575   */\n      dup3\n        /* \"#utility.yul\":5565:5602   */\n      mstore\n        /* \"#utility.yul\":5490:5608   */\n      pop\n      pop\n      jump\t// out\n        /* \"#utility.yul\":5614:6258   */\n    tag_17:\n        /* \"#utility.yul\":5811:5815   */\n      0x00\n        /* \"#utility.yul\":5849:5852   */\n      0x80\n        /* \"#utility.yul\":5838:5847   */\n      dup3\n        /* \"#utility.yul\":5834:5853   */\n      add\n        /* \"#utility.yul\":5826:5853   */\n      swap1\n      pop\n        /* \"#utility.yul\":5863:5934   */\n      tag_197\n        /* \"#utility.yul\":5931:5932   */\n      0x00\n        /* \"#utility.yul\":5920:5929   */\n      dup4\n        /* \"#utility.yul\":5916:5933   */\n      add\n        /* \"#utility.yul\":5907:5913   */\n      dup8\n        /* \"#utility.yul\":5863:5934   */\n      tag_87\n      jump\t// in\n    tag_197:\n        /* \"#utility.yul\":5981:5990   */\n      dup2\n        /* \"#utility.yul\":5975:5979   */\n      dup2\n        /* \"#utility.yul\":5971:5991   */\n      sub\n        /* \"#utility.yul\":5966:5968   */\n      0x20\n        /* \"#utility.yul\":5955:5964   */\n      dup4\n        /* \"#utility.yul\":5951:5969   */\n      add\n        /* \"#utility.yul\":5944:5992   */\n      mstore\n        /* \"#utility.yul\":6009:6087   */\n      tag_198\n        /* \"#utility.yul\":6082:6086   */\n      dup2\n        /* \"#utility.yul\":6073:6079   */\n      dup7\n        /* \"#utility.yul\":6009:6087   */\n      tag_91\n      jump\t// in\n    tag_198:\n        /* \"#utility.yul\":6001:6087   */\n      swap1\n      pop\n        /* \"#utility.yul\":6097:6169   */\n      tag_199\n        /* \"#utility.yul\":6165:6167   */\n      0x40\n        /* \"#utility.yul\":6154:6163   */\n      dup4\n        /* \"#utility.yul\":6150:6168   */\n      add\n        /* \"#utility.yul\":6141:6147   */\n      dup6\n        /* \"#utility.yul\":6097:6169   */\n      tag_92\n      jump\t// in\n    tag_199:\n        /* \"#utility.yul\":6179:6251   */\n      tag_200\n        /* \"#utility.yul\":6247:6249   */\n      0x60\n        /* \"#utility.yul\":6236:6245   */\n      dup4\n        /* \"#utility.yul\":6232:6250   */\n      add\n        /* \"#utility.yul\":6223:6229   */\n      dup5\n        /* \"#utility.yul\":6179:6251   */\n      tag_87\n      jump\t// in\n    tag_200:\n        /* \"#utility.yul\":5614:6258   */\n      swap6\n      swap5\n      pop\n      pop\n      pop\n      pop\n      pop\n      jump\t// out\n        /* \"#utility.yul\":6264:6486   */\n    tag_21:\n        /* \"#utility.yul\":6357:6361   */\n      0x00\n        /* \"#utility.yul\":6395:6397   */\n      0x20\n        /* \"#utility.yul\":6384:6393   */\n      dup3\n        /* \"#utility.yul\":6380:6398   */\n      add\n        /* \"#utility.yul\":6372:6398   */\n      swap1\n      pop\n        /* \"#utility.yul\":6408:6479   */\n      tag_202\n        /* \"#utility.yul\":6476:6477   */\n      0x00\n        /* \"#utility.yul\":6465:6474   */\n      dup4\n        /* \"#utility.yul\":6461:6478   */\n      add\n        /* \"#utility.yul\":6452:6458   */\n      dup5\n        /* \"#utility.yul\":6408:6479   */\n      tag_87\n      jump\t// in\n    tag_202:\n        /* \"#utility.yul\":6264:6486   */\n      swap3\n      swap2\n      pop\n      pop\n      jump\t// out\n        /* \"#utility.yul\":6492:6714   */\n    tag_25:\n        /* \"#utility.yul\":6585:6589   */\n      0x00\n        /* \"#utility.yul\":6623:6625   */\n      0x20\n        /* \"#utility.yul\":6612:6621   */\n      dup3\n        /* \"#utility.yul\":6608:6626   */\n      add\n        /* \"#utility.yul\":6600:6626   */\n      swap1\n      pop\n        /* \"#utility.yul\":6636:6707   */\n      tag_204\n        /* \"#utility.yul\":6704:6705   */\n      0x00\n        /* \"#utility.yul\":6693:6702   */\n      dup4\n        /* \"#utility.yul\":6689:6706   */\n      add\n        /* \"#utility.yul\":6680:6686   */\n      dup5\n        /* \"#utility.yul\":6636:6707   */\n      tag_92\n      jump\t// in\n    tag_204:\n        /* \"#utility.yul\":6492:6714   */\n      swap3\n      swap2\n      pop\n      pop\n      jump\t// out\n        /* \"#utility.yul\":6720:7049   */\n    tag_28:\n        /* \"#utility.yul\":6779:6785   */\n      0x00\n        /* \"#utility.yul\":6828:6830   */\n      0x20\n        /* \"#utility.yul\":6816:6825   */\n      dup3\n        /* \"#utility.yul\":6807:6814   */\n      dup5\n        /* \"#utility.yul\":6803:6826   */\n      sub\n        /* \"#utility.yul\":6799:6831   */\n      slt\n        /* \"#utility.yul\":6796:6915   */\n      iszero\n      tag_206\n      jumpi\n        /* \"#utility.yul\":6834:6913   */\n      tag_207\n      tag_68\n      jump\t// in\n    tag_207:\n        /* \"#utility.yul\":6796:6915   */\n    tag_206:\n        /* \"#utility.yul\":6954:6955   */\n      0x00\n        /* \"#utility.yul\":6979:7032   */\n      tag_208\n        /* \"#utility.yul\":7024:7031   */\n      dup5\n        /* \"#utility.yul\":7015:7021   */\n      dup3\n        /* \"#utility.yul\":7004:7013   */\n      dup6\n        /* \"#utility.yul\":7000:7022   */\n      add\n        /* \"#utility.yul\":6979:7032   */\n      tag_73\n      jump\t// in\n    tag_208:\n        /* \"#utility.yul\":6969:7032   */\n      swap2\n      pop\n        /* \"#utility.yul\":6925:7042   */\n      pop\n        /* \"#utility.yul\":6720:7049   */\n      swap3\n      swap2\n      pop\n      pop\n      jump\t// out\n        /* \"#utility.yul\":7055:7196   */\n    tag_93:\n        /* \"#utility.yul\":7149:7155   */\n      0x00\n        /* \"#utility.yul\":7183:7188   */\n      dup2\n        /* \"#utility.yul\":7177:7189   */\n      mload\n        /* \"#utility.yul\":7167:7189   */\n      swap1\n      pop\n        /* \"#utility.yul\":7055:7196   */\n      swap2\n      swap1\n      pop\n      jump\t// out\n        /* \"#utility.yul\":7202:7413   */\n    tag_94:\n        /* \"#utility.yul\":7328:7339   */\n      0x00\n        /* \"#utility.yul\":7362:7368   */\n      dup3\n        /* \"#utility.yul\":7357:7360   */\n      dup3\n        /* \"#utility.yul\":7350:7369   */\n      mstore\n        /* \"#utility.yul\":7402:7406   */\n      0x20\n        /* \"#utility.yul\":7397:7400   */\n      dup3\n        /* \"#utility.yul\":7393:7407   */\n      add\n        /* \"#utility.yul\":7378:7407   */\n      swap1\n      pop\n        /* \"#utility.yul\":7202:7413   */\n      swap3\n      swap2\n      pop\n      pop\n      jump\t// out\n        /* \"#utility.yul\":7419:7578   */\n    tag_95:\n        /* \"#utility.yul\":7513:7517   */\n      0x00\n        /* \"#utility.yul\":7536:7539   */\n      dup2\n        /* \"#utility.yul\":7528:7539   */\n      swap1\n      pop\n        /* \"#utility.yul\":7566:7570   */\n      0x20\n        /* \"#utility.yul\":7561:7564   */\n      dup3\n        /* \"#utility.yul\":7557:7571   */\n      add\n        /* \"#utility.yul\":7549:7571   */\n      swap1\n      pop\n        /* \"#utility.yul\":7419:7578   */\n      swap2\n      swap1\n      pop\n      jump\t// out\n        /* \"#utility.yul\":7584:7692   */\n    tag_96:\n        /* \"#utility.yul\":7661:7685   */\n      tag_213\n        /* \"#utility.yul\":7679:7684   */\n      dup2\n        /* \"#utility.yul\":7661:7685   */\n      tag_84\n      jump\t// in\n    tag_213:\n        /* \"#utility.yul\":7656:7659   */\n      dup3\n        /* \"#utility.yul\":7649:7686   */\n      mstore\n        /* \"#utility.yul\":7584:7692   */\n      pop\n      pop\n      jump\t// out\n        /* \"#utility.yul\":7698:7857   */\n    tag_97:\n        /* \"#utility.yul\":7772:7783   */\n      0x00\n        /* \"#utility.yul\":7806:7812   */\n      dup3\n        /* \"#utility.yul\":7801:7804   */\n      dup3\n        /* \"#utility.yul\":7794:7813   */\n      mstore\n        /* \"#utility.yul\":7846:7850   */\n      0x20\n        /* \"#utility.yul\":7841:7844   */\n      dup3\n        /* \"#utility.yul\":7837:7851   */\n      add\n        /* \"#utility.yul\":7822:7851   */\n      swap1\n      pop\n        /* \"#utility.yul\":7698:7857   */\n      swap3\n      swap2\n      pop\n      pop\n      jump\t// out\n        /* \"#utility.yul\":7863:8220   */\n    tag_98:\n        /* \"#utility.yul\":7941:7944   */\n      0x00\n        /* \"#utility.yul\":7969:8008   */\n      tag_216\n        /* \"#utility.yul\":8002:8007   */\n      dup3\n        /* \"#utility.yul\":7969:8008   */\n      tag_88\n      jump\t// in\n    tag_216:\n        /* \"#utility.yul\":8024:8085   */\n      tag_217\n        /* \"#utility.yul\":8078:8084   */\n      dup2\n        /* \"#utility.yul\":8073:8076   */\n      dup6\n        /* \"#utility.yul\":8024:8085   */\n      tag_97\n      jump\t// in\n    tag_217:\n        /* \"#utility.yul\":8017:8085   */\n      swap4\n      pop\n        /* \"#utility.yul\":8094:8159   */\n      tag_218\n        /* \"#utility.yul\":8152:8158   */\n      dup2\n        /* \"#utility.yul\":8147:8150   */\n      dup6\n        /* \"#utility.yul\":8140:8144   */\n      0x20\n        /* \"#utility.yul\":8133:8138   */\n      dup7\n        /* \"#utility.yul\":8129:8145   */\n      add\n        /* \"#utility.yul\":8094:8159   */\n      tag_90\n      jump\t// in\n    tag_218:\n        /* \"#utility.yul\":8184:8213   */\n      tag_219\n        /* \"#utility.yul\":8206:8212   */\n      dup2\n        /* \"#utility.yul\":8184:8213   */\n      tag_76\n      jump\t// in\n    tag_219:\n        /* \"#utility.yul\":8179:8182   */\n      dup5\n        /* \"#utility.yul\":8175:8214   */\n      add\n        /* \"#utility.yul\":8168:8214   */\n      swap2\n      pop\n        /* \"#utility.yul\":7945:8220   */\n      pop\n        /* \"#utility.yul\":7863:8220   */\n      swap3\n      swap2\n      pop\n      pop\n      jump\t// out\n        /* \"#utility.yul\":8226:8334   */\n    tag_99:\n        /* \"#utility.yul\":8303:8327   */\n      tag_221\n        /* \"#utility.yul\":8321:8326   */\n      dup2\n        /* \"#utility.yul\":8303:8327   */\n      tag_71\n      jump\t// in\n    tag_221:\n        /* \"#utility.yul\":8298:8301   */\n      dup3\n        /* \"#utility.yul\":8291:8328   */\n      mstore\n        /* \"#utility.yul\":8226:8334   */\n      pop\n      pop\n      jump\t// out\n        /* \"#utility.yul\":8422:9395   */\n    tag_100:\n        /* \"#utility.yul\":8535:8538   */\n      0x00\n        /* \"#utility.yul\":8571:8575   */\n      0x80\n        /* \"#utility.yul\":8566:8569   */\n      dup4\n        /* \"#utility.yul\":8562:8576   */\n      add\n        /* \"#utility.yul\":8661:8665   */\n      0x00\n        /* \"#utility.yul\":8654:8659   */\n      dup4\n        /* \"#utility.yul\":8650:8666   */\n      add\n        /* \"#utility.yul\":8644:8667   */\n      mload\n        /* \"#utility.yul\":8680:8743   */\n      tag_223\n        /* \"#utility.yul\":8737:8741   */\n      0x00\n        /* \"#utility.yul\":8732:8735   */\n      dup7\n        /* \"#utility.yul\":8728:8742   */\n      add\n        /* \"#utility.yul\":8714:8726   */\n      dup3\n        /* \"#utility.yul\":8680:8743   */\n      tag_96\n      jump\t// in\n    tag_223:\n        /* \"#utility.yul\":8586:8753   */\n      pop\n        /* \"#utility.yul\":8843:8847   */\n      0x20\n        /* \"#utility.yul\":8836:8841   */\n      dup4\n        /* \"#utility.yul\":8832:8848   */\n      add\n        /* \"#utility.yul\":8826:8849   */\n      mload\n        /* \"#utility.yul\":8896:8899   */\n      dup5\n        /* \"#utility.yul\":8890:8894   */\n      dup3\n        /* \"#utility.yul\":8886:8900   */\n      sub\n        /* \"#utility.yul\":8879:8883   */\n      0x20\n        /* \"#utility.yul\":8874:8877   */\n      dup7\n        /* \"#utility.yul\":8870:8884   */\n      add\n        /* \"#utility.yul\":8863:8901   */\n      mstore\n        /* \"#utility.yul\":8922:8995   */\n      tag_224\n        /* \"#utility.yul\":8990:8994   */\n      dup3\n        /* \"#utility.yul\":8976:8988   */\n      dup3\n        /* \"#utility.yul\":8922:8995   */\n      tag_98\n      jump\t// in\n    tag_224:\n        /* \"#utility.yul\":8914:8995   */\n      swap2\n      pop\n        /* \"#utility.yul\":8763:9006   */\n      pop\n        /* \"#utility.yul\":9097:9101   */\n      0x40\n        /* \"#utility.yul\":9090:9095   */\n      dup4\n        /* \"#utility.yul\":9086:9102   */\n      add\n        /* \"#utility.yul\":9080:9103   */\n      mload\n        /* \"#utility.yul\":9116:9179   */\n      tag_225\n        /* \"#utility.yul\":9173:9177   */\n      0x40\n        /* \"#utility.yul\":9168:9171   */\n      dup7\n        /* \"#utility.yul\":9164:9178   */\n      add\n        /* \"#utility.yul\":9150:9162   */\n      dup3\n        /* \"#utility.yul\":9116:9179   */\n      tag_99\n      jump\t// in\n    tag_225:\n        /* \"#utility.yul\":9016:9189   */\n      pop\n        /* \"#utility.yul\":9276:9280   */\n      0x60\n        /* \"#utility.yul\":9269:9274   */\n      dup4\n        /* \"#utility.yul\":9265:9281   */\n      add\n        /* \"#utility.yul\":9259:9282   */\n      mload\n        /* \"#utility.yul\":9295:9358   */\n      tag_226\n        /* \"#utility.yul\":9352:9356   */\n      0x60\n        /* \"#utility.yul\":9347:9350   */\n      dup7\n        /* \"#utility.yul\":9343:9357   */\n      add\n        /* \"#utility.yul\":9329:9341   */\n      dup3\n        /* \"#utility.yul\":9295:9358   */\n      tag_96\n      jump\t// in\n    tag_226:\n        /* \"#utility.yul\":9199:9368   */\n      pop\n        /* \"#utility.yul\":9385:9389   */\n      dup1\n        /* \"#utility.yul\":9378:9389   */\n      swap2\n      pop\n        /* \"#utility.yul\":8540:9395   */\n      pop\n        /* \"#utility.yul\":8422:9395   */\n      swap3\n      swap2\n      pop\n      pop\n      jump\t// out\n        /* \"#utility.yul\":9401:9665   */\n    tag_101:\n        /* \"#utility.yul\":9524:9534   */\n      0x00\n        /* \"#utility.yul\":9559:9659   */\n      tag_228\n        /* \"#utility.yul\":9655:9658   */\n      dup4\n        /* \"#utility.yul\":9647:9653   */\n      dup4\n        /* \"#utility.yul\":9559:9659   */\n      tag_100\n      jump\t// in\n    tag_228:\n        /* \"#utility.yul\":9545:9659   */\n      swap1\n      pop\n        /* \"#utility.yul\":9401:9665   */\n      swap3\n      swap2\n      pop\n      pop\n      jump\t// out\n        /* \"#utility.yul\":9671:9811   */\n    tag_102:\n        /* \"#utility.yul\":9768:9772   */\n      0x00\n        /* \"#utility.yul\":9800:9804   */\n      0x20\n        /* \"#utility.yul\":9795:9798   */\n      dup3\n        /* \"#utility.yul\":9791:9805   */\n      add\n        /* \"#utility.yul\":9783:9805   */\n      swap1\n      pop\n        /* \"#utility.yul\":9671:9811   */\n      swap2\n      swap1\n      pop\n      jump\t// out\n        /* \"#utility.yul\":9903:11030   */\n    tag_103:\n        /* \"#utility.yul\":10076:10079   */\n      0x00\n        /* \"#utility.yul\":10105:10186   */\n      tag_231\n        /* \"#utility.yul\":10180:10185   */\n      dup3\n        /* \"#utility.yul\":10105:10186   */\n      tag_93\n      jump\t// in\n    tag_231:\n        /* \"#utility.yul\":10202:10315   */\n      tag_232\n        /* \"#utility.yul\":10308:10314   */\n      dup2\n        /* \"#utility.yul\":10303:10306   */\n      dup6\n        /* \"#utility.yul\":10202:10315   */\n      tag_94\n      jump\t// in\n    tag_232:\n        /* \"#utility.yul\":10195:10315   */\n      swap4\n      pop\n        /* \"#utility.yul\":10341:10344   */\n      dup4\n        /* \"#utility.yul\":10386:10390   */\n      0x20\n        /* \"#utility.yul\":10378:10384   */\n      dup3\n        /* \"#utility.yul\":10374:10391   */\n      mul\n        /* \"#utility.yul\":10369:10372   */\n      dup6\n        /* \"#utility.yul\":10365:10392   */\n      add\n        /* \"#utility.yul\":10416:10499   */\n      tag_233\n        /* \"#utility.yul\":10493:10498   */\n      dup6\n        /* \"#utility.yul\":10416:10499   */\n      tag_95\n      jump\t// in\n    tag_233:\n        /* \"#utility.yul\":10522:10529   */\n      dup1\n        /* \"#utility.yul\":10553:10554   */\n      0x00\n        /* \"#utility.yul\":10538:10985   */\n    tag_234:\n        /* \"#utility.yul\":10563:10569   */\n      dup6\n        /* \"#utility.yul\":10560:10561   */\n      dup2\n        /* \"#utility.yul\":10557:10570   */\n      lt\n        /* \"#utility.yul\":10538:10985   */\n      iszero\n      tag_236\n      jumpi\n        /* \"#utility.yul\":10634:10643   */\n      dup5\n        /* \"#utility.yul\":10628:10632   */\n      dup5\n        /* \"#utility.yul\":10624:10644   */\n      sub\n        /* \"#utility.yul\":10619:10622   */\n      dup10\n        /* \"#utility.yul\":10612:10645   */\n      mstore\n        /* \"#utility.yul\":10685:10691   */\n      dup2\n        /* \"#utility.yul\":10679:10692   */\n      mload\n        /* \"#utility.yul\":10713:10831   */\n      tag_237\n        /* \"#utility.yul\":10826:10830   */\n      dup6\n        /* \"#utility.yul\":10811:10824   */\n      dup3\n        /* \"#utility.yul\":10713:10831   */\n      tag_101\n      jump\t// in\n    tag_237:\n        /* \"#utility.yul\":10705:10831   */\n      swap5\n      pop\n        /* \"#utility.yul\":10854:10941   */\n      tag_238\n        /* \"#utility.yul\":10934:10940   */\n      dup4\n        /* \"#utility.yul\":10854:10941   */\n      tag_102\n      jump\t// in\n    tag_238:\n        /* \"#utility.yul\":10844:10941   */\n      swap3\n      pop\n        /* \"#utility.yul\":10970:10974   */\n      0x20\n        /* \"#utility.yul\":10965:10968   */\n      dup11\n        /* \"#utility.yul\":10961:10975   */\n      add\n        /* \"#utility.yul\":10954:10975   */\n      swap10\n      pop\n        /* \"#utility.yul\":10598:10985   */\n      pop\n        /* \"#utility.yul\":10585:10586   */\n      0x01\n        /* \"#utility.yul\":10582:10583   */\n      dup2\n        /* \"#utility.yul\":10578:10587   */\n      add\n        /* \"#utility.yul\":10573:10587   */\n      swap1\n      pop\n        /* \"#utility.yul\":10538:10985   */\n      jump(tag_234)\n    tag_236:\n        /* \"#utility.yul\":10542:10556   */\n      pop\n        /* \"#utility.yul\":11001:11005   */\n      dup3\n        /* \"#utility.yul\":10994:11005   */\n      swap8\n      pop\n        /* \"#utility.yul\":11021:11024   */\n      dup8\n        /* \"#utility.yul\":11014:11024   */\n      swap6\n      pop\n        /* \"#utility.yul\":10081:11030   */\n      pop\n      pop\n      pop\n      pop\n      pop\n        /* \"#utility.yul\":9903:11030   */\n      swap3\n      swap2\n      pop\n      pop\n      jump\t// out\n        /* \"#utility.yul\":11036:11517   */\n    tag_31:\n        /* \"#utility.yul\":11233:11237   */\n      0x00\n        /* \"#utility.yul\":11271:11273   */\n      0x20\n        /* \"#utility.yul\":11260:11269   */\n      dup3\n        /* \"#utility.yul\":11256:11274   */\n      add\n        /* \"#utility.yul\":11248:11274   */\n      swap1\n      pop\n        /* \"#utility.yul\":11320:11329   */\n      dup2\n        /* \"#utility.yul\":11314:11318   */\n      dup2\n        /* \"#utility.yul\":11310:11330   */\n      sub\n        /* \"#utility.yul\":11306:11307   */\n      0x00\n        /* \"#utility.yul\":11295:11304   */\n      dup4\n        /* \"#utility.yul\":11291:11308   */\n      add\n        /* \"#utility.yul\":11284:11331   */\n      mstore\n        /* \"#utility.yul\":11348:11510   */\n      tag_240\n        /* \"#utility.yul\":11505:11509   */\n      dup2\n        /* \"#utility.yul\":11496:11502   */\n      dup5\n        /* \"#utility.yul\":11348:11510   */\n      tag_103\n      jump\t// in\n    tag_240:\n        /* \"#utility.yul\":11340:11510   */\n      swap1\n      pop\n        /* \"#utility.yul\":11036:11517   */\n      swap3\n      swap2\n      pop\n      pop\n      jump\t// out\n        /* \"#utility.yul\":11523:11613   */\n    tag_104:\n        /* \"#utility.yul\":11557:11564   */\n      0x00\n        /* \"#utility.yul\":11600:11605   */\n      dup2\n        /* \"#utility.yul\":11593:11606   */\n      iszero\n        /* \"#utility.yul\":11586:11607   */\n      iszero\n        /* \"#utility.yul\":11575:11607   */\n      swap1\n      pop\n        /* \"#utility.yul\":11523:11613   */\n      swap2\n      swap1\n      pop\n      jump\t// out\n        /* \"#utility.yul\":11619:11735   */\n    tag_105:\n        /* \"#utility.yul\":11689:11710   */\n      tag_243\n        /* \"#utility.yul\":11704:11709   */\n      dup2\n        /* \"#utility.yul\":11689:11710   */\n      tag_104\n      jump\t// in\n    tag_243:\n        /* \"#utility.yul\":11682:11687   */\n      dup2\n        /* \"#utility.yul\":11679:11711   */\n      eq\n        /* \"#utility.yul\":11669:11729   */\n      tag_244\n      jumpi\n        /* \"#utility.yul\":11725:11726   */\n      0x00\n        /* \"#utility.yul\":11722:11723   */\n      0x00\n        /* \"#utility.yul\":11715:11727   */\n      revert\n        /* \"#utility.yul\":11669:11729   */\n    tag_244:\n        /* \"#utility.yul\":11619:11735   */\n      pop\n      jump\t// out\n        /* \"#utility.yul\":11741:11878   */\n    tag_106:\n        /* \"#utility.yul\":11795:11800   */\n      0x00\n        /* \"#utility.yul\":11826:11832   */\n      dup2\n        /* \"#utility.yul\":11820:11833   */\n      mload\n        /* \"#utility.yul\":11811:11833   */\n      swap1\n      pop\n        /* \"#utility.yul\":11842:11872   */\n      tag_246\n        /* \"#utility.yul\":11866:11871   */\n      dup2\n        /* \"#utility.yul\":11842:11872   */\n      tag_105\n      jump\t// in\n    tag_246:\n        /* \"#utility.yul\":11741:11878   */\n      swap3\n      swap2\n      pop\n      pop\n      jump\t// out\n        /* \"#utility.yul\":11884:12229   */\n    tag_37:\n        /* \"#utility.yul\":11951:11957   */\n      0x00\n        /* \"#utility.yul\":12000:12002   */\n      0x20\n        /* \"#utility.yul\":11988:11997   */\n      dup3\n        /* \"#utility.yul\":11979:11986   */\n      dup5\n        /* \"#utility.yul\":11975:11998   */\n      sub\n        /* \"#utility.yul\":11971:12003   */\n      slt\n        /* \"#utility.yul\":11968:12087   */\n      iszero\n      tag_248\n      jumpi\n        /* \"#utility.yul\":12006:12085   */\n      tag_249\n      tag_68\n      jump\t// in\n    tag_249:\n        /* \"#utility.yul\":11968:12087   */\n    tag_248:\n        /* \"#utility.yul\":12126:12127   */\n      0x00\n        /* \"#utility.yul\":12151:12212   */\n      tag_250\n        /* \"#utility.yul\":12204:12211   */\n      dup5\n        /* \"#utility.yul\":12195:12201   */\n      dup3\n        /* \"#utility.yul\":12184:12193   */\n      dup6\n        /* \"#utility.yul\":12180:12202   */\n      add\n        /* \"#utility.yul\":12151:12212   */\n      tag_106\n      jump\t// in\n    tag_250:\n        /* \"#utility.yul\":12141:12212   */\n      swap2\n      pop\n        /* \"#utility.yul\":12097:12222   */\n      pop\n        /* \"#utility.yul\":11884:12229   */\n      swap3\n      swap2\n      pop\n      pop\n      jump\t// out\n        /* \"#utility.yul\":12235:12416   */\n    tag_107:\n        /* \"#utility.yul\":12375:12408   */\n      0x43616c6c6572206973206e6f74206120726567697374657265642062616e6b00\n        /* \"#utility.yul\":12371:12372   */\n      0x00\n        /* \"#utility.yul\":12363:12369   */\n      dup3\n        /* \"#utility.yul\":12359:12373   */\n      add\n        /* \"#utility.yul\":12352:12409   */\n      mstore\n        /* \"#utility.yul\":12235:12416   */\n      pop\n      jump\t// out\n        /* \"#utility.yul\":12422:12788   */\n    tag_108:\n        /* \"#utility.yul\":12564:12567   */\n      0x00\n        /* \"#utility.yul\":12585:12652   */\n      tag_253\n        /* \"#utility.yul\":12649:12651   */\n      0x1f\n        /* \"#utility.yul\":12644:12647   */\n      dup4\n        /* \"#utility.yul\":12585:12652   */\n      tag_89\n      jump\t// in\n    tag_253:\n        /* \"#utility.yul\":12578:12652   */\n      swap2\n      pop\n        /* \"#utility.yul\":12661:12754   */\n      tag_254\n        /* \"#utility.yul\":12750:12753   */\n      dup3\n        /* \"#utility.yul\":12661:12754   */\n      tag_107\n      jump\t// in\n    tag_254:\n        /* \"#utility.yul\":12779:12781   */\n      0x20\n        /* \"#utility.yul\":12774:12777   */\n      dup3\n        /* \"#utility.yul\":12770:12782   */\n      add\n        /* \"#utility.yul\":12763:12782   */\n      swap1\n      pop\n        /* \"#utility.yul\":12422:12788   */\n      swap2\n      swap1\n      pop\n      jump\t// out\n        /* \"#utility.yul\":12794:13213   */\n    tag_40:\n        /* \"#utility.yul\":12960:12964   */\n      0x00\n        /* \"#utility.yul\":12998:13000   */\n      0x20\n        /* \"#utility.yul\":12987:12996   */\n      dup3\n        /* \"#utility.yul\":12983:13001   */\n      add\n        /* \"#utility.yul\":12975:13001   */\n      swap1\n      pop\n        /* \"#utility.yul\":13047:13056   */\n      dup2\n        /* \"#utility.yul\":13041:13045   */\n      dup2\n        /* \"#utility.yul\":13037:13057   */\n      sub\n        /* \"#utility.yul\":13033:13034   */\n      0x00\n        /* \"#utility.yul\":13022:13031   */\n      dup4\n        /* \"#utility.yul\":13018:13035   */\n      add\n        /* \"#utility.yul\":13011:13058   */\n      mstore\n        /* \"#utility.yul\":13075:13206   */\n      tag_256\n        /* \"#utility.yul\":13201:13205   */\n      dup2\n        /* \"#utility.yul\":13075:13206   */\n      tag_108\n      jump\t// in\n    tag_256:\n        /* \"#utility.yul\":13067:13206   */\n      swap1\n      pop\n        /* \"#utility.yul\":12794:13213   */\n      swap2\n      swap1\n      pop\n      jump\t// out\n        /* \"#utility.yul\":13219:13389   */\n    tag_109:\n        /* \"#utility.yul\":13359:13381   */\n      0x496e76616c696420757365722061646472657373000000000000000000000000\n        /* \"#utility.yul\":13355:13356   */\n      0x00\n        /* \"#utility.yul\":13347:13353   */\n      dup3\n        /* \"#utility.yul\":13343:13357   */\n      add\n        /* \"#utility.yul\":13336:13382   */\n      mstore\n        /* \"#utility.yul\":13219:13389   */\n      pop\n      jump\t// out\n        /* \"#utility.yul\":13395:13761   */\n    tag_110:\n        /* \"#utility.yul\":13537:13540   */\n      0x00\n        /* \"#utility.yul\":13558:13625   */\n      tag_259\n        /* \"#utility.yul\":13622:13624   */\n      0x14\n        /* \"#utility.yul\":13617:13620   */\n      dup4\n        /* \"#utility.yul\":13558:13625   */\n      tag_89\n      jump\t// in\n    tag_259:\n        /* \"#utility.yul\":13551:13625   */\n      swap2\n      pop\n        /* \"#utility.yul\":13634:13727   */\n      tag_260\n        /* \"#utility.yul\":13723:13726   */\n      dup3\n        /* \"#utility.yul\":13634:13727   */\n      tag_109\n      jump\t// in\n    tag_260:\n        /* \"#utility.yul\":13752:13754   */\n      0x20\n        /* \"#utility.yul\":13747:13750   */\n      dup3\n        /* \"#utility.yul\":13743:13755   */\n      add\n        /* \"#utility.yul\":13736:13755   */\n      swap1\n      pop\n        /* \"#utility.yul\":13395:13761   */\n      swap2\n      swap1\n      pop\n      jump\t// out\n        /* \"#utility.yul\":13767:14186   */\n    tag_43:\n        /* \"#utility.yul\":13933:13937   */\n      0x00\n        /* \"#utility.yul\":13971:13973   */\n      0x20\n        /* \"#utility.yul\":13960:13969   */\n      dup3\n        /* \"#utility.yul\":13956:13974   */\n      add\n        /* \"#utility.yul\":13948:13974   */\n      swap1\n      pop\n        /* \"#utility.yul\":14020:14029   */\n      dup2\n        /* \"#utility.yul\":14014:14018   */\n      dup2\n        /* \"#utility.yul\":14010:14030   */\n      sub\n        /* \"#utility.yul\":14006:14007   */\n      0x00\n        /* \"#utility.yul\":13995:14004   */\n      dup4\n        /* \"#utility.yul\":13991:14008   */\n      add\n        /* \"#utility.yul\":13984:14031   */\n      mstore\n        /* \"#utility.yul\":14048:14179   */\n      tag_262\n        /* \"#utility.yul\":14174:14178   */\n      dup2\n        /* \"#utility.yul\":14048:14179   */\n      tag_110\n      jump\t// in\n    tag_262:\n        /* \"#utility.yul\":14040:14179   */\n      swap1\n      pop\n        /* \"#utility.yul\":13767:14186   */\n      swap2\n      swap1\n      pop\n      jump\t// out\n        /* \"#utility.yul\":14192:14372   */\n    tag_111:\n        /* \"#utility.yul\":14240:14317   */\n      0x4e487b7100000000000000000000000000000000000000000000000000000000\n        /* \"#utility.yul\":14237:14238   */\n      0x00\n        /* \"#utility.yul\":14230:14318   */\n      mstore\n        /* \"#utility.yul\":14337:14341   */\n      0x11\n        /* \"#utility.yul\":14334:14335   */\n      0x04\n        /* \"#utility.yul\":14327:14342   */\n      mstore\n        /* \"#utility.yul\":14361:14365   */\n      0x24\n        /* \"#utility.yul\":14358:14359   */\n      0x00\n        /* \"#utility.yul\":14351:14366   */\n      revert\n        /* \"#utility.yul\":14378:14611   */\n    tag_45:\n        /* \"#utility.yul\":14417:14420   */\n      0x00\n        /* \"#utility.yul\":14440:14464   */\n      tag_265\n        /* \"#utility.yul\":14458:14463   */\n      dup3\n        /* \"#utility.yul\":14440:14464   */\n      tag_84\n      jump\t// in\n    tag_265:\n        /* \"#utility.yul\":14431:14464   */\n      swap2\n      pop\n        /* \"#utility.yul\":14486:14552   */\n      0xffffffffffffffffffffffffffffffffffffffffffffffffffffffffffffffff\n        /* \"#utility.yul\":14479:14484   */\n      dup3\n        /* \"#utility.yul\":14476:14553   */\n      sub\n        /* \"#utility.yul\":14473:14576   */\n      tag_266\n      jumpi\n        /* \"#utility.yul\":14556:14574   */\n      tag_267\n      tag_111\n      jump\t// in\n    tag_267:\n        /* \"#utility.yul\":14473:14576   */\n    tag_266:\n        /* \"#utility.yul\":14603:14604   */\n      0x01\n        /* \"#utility.yul\":14596:14601   */\n      dup3\n        /* \"#utility.yul\":14592:14605   */\n      add\n        /* \"#utility.yul\":14585:14605   */\n      swap1\n      pop\n        /* \"#utility.yul\":14378:14611   */\n      swap2\n      swap1\n      pop\n      jump\t// out\n        /* \"#utility.yul\":14617:14797   */\n    tag_112:\n        /* \"#utility.yul\":14665:14742   */\n      0x4e487b7100000000000000000000000000000000000000000000000000000000\n        /* \"#utility.yul\":14662:14663   */\n      0x00\n        /* \"#utility.yul\":14655:14743   */\n      mstore\n        /* \"#utility.yul\":14762:14766   */\n      0x22\n        /* \"#utility.yul\":14759:14760   */\n      0x04\n        /* \"#utility.yul\":14752:14767   */\n      mstore\n        /* \"#utility.yul\":14786:14790   */\n      0x24\n        /* \"#utility.yul\":14783:14784   */\n      0x00\n        /* \"#utility.yul\":14776:14791   */\n      revert\n        /* \"#utility.yul\":14803:15123   */\n    tag_53:\n        /* \"#utility.yul\":14847:14853   */\n      0x00\n        /* \"#utility.yul\":14884:14885   */\n      0x02\n        /* \"#utility.yul\":14878:14882   */\n      dup3\n        /* \"#utility.yul\":14874:14886   */\n      div\n        /* \"#utility.yul\":14864:14886   */\n      swap1\n      pop\n        /* \"#utility.yul\":14931:14932   */\n      0x01\n        /* \"#utility.yul\":14925:14929   */\n      dup3\n        /* \"#utility.yul\":14921:14933   */\n      and\n        /* \"#utility.yul\":14952:14970   */\n      dup1\n        /* \"#utility.yul\":14942:15023   */\n      tag_270\n      jumpi\n        /* \"#utility.yul\":15008:15012   */\n      0x7f\n        /* \"#utility.yul\":15000:15006   */\n      dup3\n        /* \"#utility.yul\":14996:15013   */\n      and\n        /* \"#utility.yul\":14986:15013   */\n      swap2\n      pop\n        /* \"#utility.yul\":14942:15023   */\n    tag_270:\n        /* \"#utility.yul\":15070:15072   */\n      0x20\n        /* \"#utility.yul\":15062:15068   */\n      dup3\n        /* \"#utility.yul\":15059:15073   */\n      lt\n        /* \"#utility.yul\":15039:15057   */\n      dup2\n        /* \"#utility.yul\":15036:15074   */\n      sub\n        /* \"#utility.yul\":15033:15117   */\n      tag_271\n      jumpi\n        /* \"#utility.yul\":15089:15107   */\n      tag_272\n      tag_112\n      jump\t// in\n    tag_272:\n        /* \"#utility.yul\":15033:15117   */\n    tag_271:\n        /* \"#utility.yul\":14854:15123   */\n      pop\n        /* \"#utility.yul\":14803:15123   */\n      swap2\n      swap1\n      pop\n      jump\t// out\n        /* \"#utility.yul\":15129:15270   */\n    tag_113:\n        /* \"#utility.yul\":15178:15182   */\n      0x00\n        /* \"#utility.yul\":15201:15204   */\n      dup2\n        /* \"#utility.yul\":15193:15204   */\n      swap1\n      pop\n        /* \"#utility.yul\":15224:15227   */\n      dup2\n        /* \"#utility.yul\":15221:15222   */\n      0x00\n        /* \"#utility.yul\":15214:15228   */\n      mstore\n        /* \"#utility.yul\":15258:15262   */\n      0x20\n        /* \"#utility.yul\":15255:15256   */\n      0x00\n        /* \"#utility.yul\":15245:15263   */\n      keccak256\n        /* \"#utility.yul\":15237:15263   */\n      swap1\n      pop\n        /* \"#utility.yul\":15129:15270   */\n      swap2\n      swap1\n      pop\n      jump\t// out\n        /* \"#utility.yul\":15276:15369   */\n    tag_114:\n        /* \"#utility.yul\":15313:15319   */\n      0x00\n        /* \"#utility.yul\":15360:15362   */\n      0x20\n        /* \"#utility.yul\":15355:15357   */\n      0x1f\n        /* \"#utility.yul\":15348:15353   */\n      dup4\n        /* \"#utility.yul\":15344:15358   */\n      add\n        /* \"#utility.yul\":15340:15363   */\n      div\n        /* \"#utility.yul\":15330:15363   */\n      swap1\n      pop\n        /* \"#utility.yul\":15276:15369   */\n      swap2\n      swap1\n      pop\n      jump\t// out\n        /* \"#utility.yul\":15375:15482   */\n    tag_115:\n        /* \"#utility.yul\":15419:15427   */\n      0x00\n        /* \"#utility.yul\":15469:15474   */\n      dup3\n        /* \"#utility.yul\":15463:15467   */\n      dup3\n        /* \"#utility.yul\":15459:15475   */\n      shl\n        /* \"#utility.yul\":15438:15475   */\n      swap1\n      pop\n        /* \"#utility.yul\":15375:15482   */\n      swap3\n      swap2\n      pop\n      pop\n      jump\t// out\n        /* \"#utility.yul\":15488:15881   */\n    tag_116:\n        /* \"#utility.yul\":15557:15563   */\n      0x00\n        /* \"#utility.yul\":15607:15608   */\n      0x08\n        /* \"#utility.yul\":15595:15605   */\n      dup4\n        /* \"#utility.yul\":15591:15609   */\n      mul\n        /* \"#utility.yul\":15630:15727   */\n      tag_277\n        /* \"#utility.yul\":15660:15726   */\n      0xffffffffffffffffffffffffffffffffffffffffffffffffffffffffffffffff\n        /* \"#utility.yul\":15649:15658   */\n      dup3\n        /* \"#utility.yul\":15630:15727   */\n      tag_115\n      jump\t// in\n    tag_277:\n        /* \"#utility.yul\":15748:15787   */\n      tag_278\n        /* \"#utility.yul\":15778:15786   */\n      dup7\n        /* \"#utility.yul\":15767:15776   */\n      dup4\n        /* \"#utility.yul\":15748:15787   */\n      tag_115\n      jump\t// in\n    tag_278:\n        /* \"#utility.yul\":15736:15787   */\n      swap6\n      pop\n        /* \"#utility.yul\":15820:15824   */\n      dup1\n        /* \"#utility.yul\":15816:15825   */\n      not\n        /* \"#utility.yul\":15809:15814   */\n      dup5\n        /* \"#utility.yul\":15805:15826   */\n      and\n        /* \"#utility.yul\":15796:15826   */\n      swap4\n      pop\n        /* \"#utility.yul\":15869:15873   */\n      dup1\n        /* \"#utility.yul\":15859:15867   */\n      dup7\n        /* \"#utility.yul\":15855:15874   */\n      and\n        /* \"#utility.yul\":15848:15853   */\n      dup5\n        /* \"#utility.yul\":15845:15875   */\n      or\n        /* \"#utility.yul\":15835:15875   */\n      swap3\n      pop\n        /* \"#utility.yul\":15564:15881   */\n      pop\n      pop\n        /* \"#utility.yul\":15488:15881   */\n      swap4\n      swap3\n      pop\n      pop\n      pop\n      jump\t// out\n        /* \"#utility.yul\":15887:15947   */\n    tag_117:\n        /* \"#utility.yul\":15915:15918   */\n      0x00\n        /* \"#utility.yul\":15936:15941   */\n      dup2\n        /* \"#utility.yul\":15929:15941   */\n      swap1\n      pop\n        /* \"#utility.yul\":15887:15947   */\n      swap2\n      swap1\n      pop\n      jump\t// out\n        /* \"#utility.yul\":15953:16095   */\n    tag_118:\n        /* \"#utility.yul\":16003:16012   */\n      0x00\n        /* \"#utility.yul\":16036:16089   */\n      tag_281\n        /* \"#utility.yul\":16054:16088   */\n      tag_282\n        /* \"#utility.yul\":16063:16087   */\n      tag_283\n        /* \"#utility.yul\":16081:16086   */\n      dup5\n        /* \"#utility.yul\":16063:16087   */\n      tag_84\n      jump\t// in\n    tag_283:\n        /* \"#utility.yul\":16054:16088   */\n      tag_117\n      jump\t// in\n    tag_282:\n        /* \"#utility.yul\":16036:16089   */\n      tag_84\n      jump\t// in\n    tag_281:\n        /* \"#utility.yul\":16023:16089   */\n      swap1\n      pop\n        /* \"#utility.yul\":15953:16095   */\n      swap2\n      swap1\n      pop\n      jump\t// out\n        /* \"#utility.yul\":16101:16176   */\n    tag_119:\n        /* \"#utility.yul\":16144:16147   */\n      0x00\n        /* \"#utility.yul\":16165:16170   */\n      dup2\n        /* \"#utility.yul\":16158:16170   */\n      swap1\n      pop\n        /* \"#utility.yul\":16101:16176   */\n      swap2\n      swap1\n      pop\n      jump\t// out\n        /* \"#utility.yul\":16182:16451   */\n    tag_120:\n        /* \"#utility.yul\":16292:16331   */\n      tag_286\n        /* \"#utility.yul\":16323:16330   */\n      dup4\n        /* \"#utility.yul\":16292:16331   */\n      tag_118\n      jump\t// in\n    tag_286:\n        /* \"#utility.yul\":16353:16444   */\n      tag_287\n        /* \"#utility.yul\":16402:16443   */\n      tag_288\n        /* \"#utility.yul\":16426:16442   */\n      dup3\n        /* \"#utility.yul\":16402:16443   */\n      tag_119\n      jump\t// in\n    tag_288:\n        /* \"#utility.yul\":16394:16400   */\n      dup5\n        /* \"#utility.yul\":16387:16391   */\n      dup5\n        /* \"#utility.yul\":16381:16392   */\n      sload\n        /* \"#utility.yul\":16353:16444   */\n      tag_116\n      jump\t// in\n    tag_287:\n        /* \"#utility.yul\":16347:16351   */\n      dup3\n        /* \"#utility.yul\":16340:16445   */\n      sstore\n        /* \"#utility.yul\":16258:16451   */\n      pop\n        /* \"#utility.yul\":16182:16451   */\n      pop\n      pop\n      pop\n      jump\t// out\n        /* \"#utility.yul\":16457:16530   */\n    tag_121:\n        /* \"#utility.yul\":16502:16505   */\n      0x00\n        /* \"#utility.yul\":16523:16524   */\n      0x00\n        /* \"#utility.yul\":16516:16524   */\n      swap1\n      pop\n        /* \"#utility.yul\":16457:16530   */\n      swap1\n      jump\t// out\n        /* \"#utility.yul\":16536:16725   */\n    tag_122:\n        /* \"#utility.yul\":16613:16645   */\n      tag_291\n      tag_121\n      jump\t// in\n    tag_291:\n        /* \"#utility.yul\":16654:16719   */\n      tag_292\n        /* \"#utility.yul\":16712:16718   */\n      dup2\n        /* \"#utility.yul\":16704:16710   */\n      dup5\n        /* \"#utility.yul\":16698:16702   */\n      dup5\n        /* \"#utility.yul\":16654:16719   */\n      tag_120\n      jump\t// in\n    tag_292:\n        /* \"#utility.yul\":16589:16725   */\n      pop\n        /* \"#utility.yul\":16536:16725   */\n      pop\n      pop\n      jump\t// out\n        /* \"#utility.yul\":16731:16917   */\n    tag_123:\n        /* \"#utility.yul\":16791:16911   */\n    tag_294:\n        /* \"#utility.yul\":16808:16811   */\n      dup2\n        /* \"#utility.yul\":16801:16806   */\n      dup2\n        /* \"#utility.yul\":16798:16812   */\n      lt\n        /* \"#utility.yul\":16791:16911   */\n      iszero\n      tag_296\n      jumpi\n        /* \"#utility.yul\":16862:16901   */\n      tag_297\n        /* \"#utility.yul\":16899:16900   */\n      0x00\n        /* \"#utility.yul\":16892:16897   */\n      dup3\n        /* \"#utility.yul\":16862:16901   */\n      tag_122\n      jump\t// in\n    tag_297:\n        /* \"#utility.yul\":16835:16836   */\n      0x01\n        /* \"#utility.yul\":16828:16833   */\n      dup2\n        /* \"#utility.yul\":16824:16837   */\n      add\n        /* \"#utility.yul\":16815:16837   */\n      swap1\n      pop\n        /* \"#utility.yul\":16791:16911   */\n      jump(tag_294)\n    tag_296:\n        /* \"#utility.yul\":16731:16917   */\n      pop\n      pop\n      jump\t// out\n        /* \"#utility.yul\":16923:17466   */\n    tag_124:\n        /* \"#utility.yul\":17024:17026   */\n      0x1f\n        /* \"#utility.yul\":17019:17022   */\n      dup3\n        /* \"#utility.yul\":17016:17027   */\n      gt\n        /* \"#utility.yul\":17013:17459   */\n      iszero\n      tag_299\n      jumpi\n        /* \"#utility.yul\":17058:17096   */\n      tag_300\n        /* \"#utility.yul\":17090:17095   */\n      dup2\n        /* \"#utility.yul\":17058:17096   */\n      tag_113\n      jump\t// in\n    tag_300:\n        /* \"#utility.yul\":17142:17171   */\n      tag_301\n        /* \"#utility.yul\":17160:17170   */\n      dup5\n        /* \"#utility.yul\":17142:17171   */\n      tag_114\n      jump\t// in\n    tag_301:\n        /* \"#utility.yul\":17132:17140   */\n      dup2\n        /* \"#utility.yul\":17128:17172   */\n      add\n        /* \"#utility.yul\":17325:17327   */\n      0x20\n        /* \"#utility.yul\":17313:17323   */\n      dup6\n        /* \"#utility.yul\":17310:17328   */\n      lt\n        /* \"#utility.yul\":17307:17356   */\n      iszero\n      tag_302\n      jumpi\n        /* \"#utility.yul\":17346:17354   */\n      dup2\n        /* \"#utility.yul\":17331:17354   */\n      swap1\n      pop\n        /* \"#utility.yul\":17307:17356   */\n    tag_302:\n        /* \"#utility.yul\":17369:17449   */\n      tag_303\n        /* \"#utility.yul\":17425:17447   */\n      tag_304\n        /* \"#utility.yul\":17443:17446   */\n      dup6\n        /* \"#utility.yul\":17425:17447   */\n      tag_114\n      jump\t// in\n    tag_304:\n        /* \"#utility.yul\":17415:17423   */\n      dup4\n        /* \"#utility.yul\":17411:17448   */\n      add\n        /* \"#utility.yul\":17398:17409   */\n      dup3\n        /* \"#utility.yul\":17369:17449   */\n      tag_123\n      jump\t// in\n    tag_303:\n        /* \"#utility.yul\":17028:17459   */\n      pop\n      pop\n        /* \"#utility.yul\":17013:17459   */\n    tag_299:\n        /* \"#utility.yul\":16923:17466   */\n      pop\n      pop\n      pop\n      jump\t// out\n        /* \"#utility.yul\":17472:17589   */\n    tag_125:\n        /* \"#utility.yul\":17526:17534   */\n      0x00\n        /* \"#utility.yul\":17576:17581   */\n      dup3\n        /* \"#utility.yul\":17570:17574   */\n      dup3\n        /* \"#utility.yul\":17566:17582   */\n      shr\n        /* \"#utility.yul\":17545:17582   */\n      swap1\n      pop\n        /* \"#utility.yul\":17472:17589   */\n      swap3\n      swap2\n      pop\n      pop\n      jump\t// out\n        /* \"#utility.yul\":17595:17764   */\n    tag_126:\n        /* \"#utility.yul\":17639:17645   */\n      0x00\n        /* \"#utility.yul\":17672:17723   */\n      tag_307\n        /* \"#utility.yul\":17720:17721   */\n      0x00\n        /* \"#utility.yul\":17716:17722   */\n      not\n        /* \"#utility.yul\":17708:17713   */\n      dup5\n        /* \"#utility.yul\":17705:17706   */\n      0x08\n        /* \"#utility.yul\":17701:17714   */\n      mul\n        /* \"#utility.yul\":17672:17723   */\n      tag_125\n      jump\t// in\n    tag_307:\n        /* \"#utility.yul\":17668:17724   */\n      not\n        /* \"#utility.yul\":17753:17757   */\n      dup1\n        /* \"#utility.yul\":17747:17751   */\n      dup4\n        /* \"#utility.yul\":17743:17758   */\n      and\n        /* \"#utility.yul\":17733:17758   */\n      swap2\n      pop\n        /* \"#utility.yul\":17646:17764   */\n      pop\n        /* \"#utility.yul\":17595:17764   */\n      swap3\n      swap2\n      pop\n      pop\n      jump\t// out\n        /* \"#utility.yul\":17769:18064   */\n    tag_127:\n        /* \"#utility.yul\":17845:17849   */\n      0x00\n        /* \"#utility.yul\":17991:18020   */\n      tag_309\n        /* \"#utility.yul\":18016:18019   */\n      dup4\n        /* \"#utility.yul\":18010:18014   */\n      dup4\n        /* \"#utility.yul\":17991:18020   */\n      tag_126\n      jump\t// in\n    tag_309:\n        /* \"#utility.yul\":17983:18020   */\n      swap2\n      pop\n        /* \"#utility.yul\":18053:18056   */\n      dup3\n        /* \"#utility.yul\":18050:18051   */\n      0x02\n        /* \"#utility.yul\":18046:18057   */\n      mul\n        /* \"#utility.yul\":18040:18044   */\n      dup3\n        /* \"#utility.yul\":18037:18058   */\n      or\n        /* \"#utility.yul\":18029:18058   */\n      swap1\n      pop\n        /* \"#utility.yul\":17769:18064   */\n      swap3\n      swap2\n      pop\n      pop\n      jump\t// out\n        /* \"#utility.yul\":18069:19464   */\n    tag_48:\n        /* \"#utility.yul\":18186:18223   */\n      tag_311\n        /* \"#utility.yul\":18219:18222   */\n      dup3\n        /* \"#utility.yul\":18186:18223   */\n      tag_88\n      jump\t// in\n    tag_311:\n        /* \"#utility.yul\":18288:18306   */\n      0xffffffffffffffff\n        /* \"#utility.yul\":18280:18286   */\n      dup2\n        /* \"#utility.yul\":18277:18307   */\n      gt\n        /* \"#utility.yul\":18274:18330   */\n      iszero\n      tag_312\n      jumpi\n        /* \"#utility.yul\":18310:18328   */\n      tag_313\n      tag_77\n      jump\t// in\n    tag_313:\n        /* \"#utility.yul\":18274:18330   */\n    tag_312:\n        /* \"#utility.yul\":18354:18392   */\n      tag_314\n        /* \"#utility.yul\":18386:18390   */\n      dup3\n        /* \"#utility.yul\":18380:18391   */\n      sload\n        /* \"#utility.yul\":18354:18392   */\n      tag_53\n      jump\t// in\n    tag_314:\n        /* \"#utility.yul\":18439:18506   */\n      tag_315\n        /* \"#utility.yul\":18499:18505   */\n      dup3\n        /* \"#utility.yul\":18491:18497   */\n      dup3\n        /* \"#utility.yul\":18485:18489   */\n      dup6\n        /* \"#utility.yul\":18439:18506   */\n      tag_124\n      jump\t// in\n    tag_315:\n        /* \"#utility.yul\":18533:18534   */\n      0x00\n        /* \"#utility.yul\":18557:18561   */\n      0x20\n        /* \"#utility.yul\":18544:18561   */\n      swap1\n      pop\n        /* \"#utility.yul\":18589:18591   */\n      0x1f\n        /* \"#utility.yul\":18581:18587   */\n      dup4\n        /* \"#utility.yul\":18578:18592   */\n      gt\n        /* \"#utility.yul\":18606:18607   */\n      0x01\n        /* \"#utility.yul\":18601:19219   */\n      dup2\n      eq\n      tag_317\n      jumpi\n        /* \"#utility.yul\":19263:19264   */\n      0x00\n        /* \"#utility.yul\":19280:19286   */\n      dup5\n        /* \"#utility.yul\":19277:19354   */\n      iszero\n      tag_318\n      jumpi\n        /* \"#utility.yul\":19329:19338   */\n      dup3\n        /* \"#utility.yul\":19324:19327   */\n      dup8\n        /* \"#utility.yul\":19320:19339   */\n      add\n        /* \"#utility.yul\":19314:19340   */\n      mload\n        /* \"#utility.yul\":19305:19340   */\n      swap1\n      pop\n        /* \"#utility.yul\":19277:19354   */\n    tag_318:\n        /* \"#utility.yul\":19380:19447   */\n      tag_319\n        /* \"#utility.yul\":19440:19446   */\n      dup6\n        /* \"#utility.yul\":19433:19438   */\n      dup3\n        /* \"#utility.yul\":19380:19447   */\n      tag_127\n      jump\t// in\n    tag_319:\n        /* \"#utility.yul\":19374:19378   */\n      dup7\n        /* \"#utility.yul\":19367:19448   */\n      sstore\n        /* \"#utility.yul\":19236:19458   */\n      pop\n        /* \"#utility.yul\":18571:19458   */\n      jump(tag_316)\n        /* \"#utility.yul\":18601:19219   */\n    tag_317:\n        /* \"#utility.yul\":18653:18657   */\n      0x1f\n        /* \"#utility.yul\":18649:18658   */\n      not\n        /* \"#utility.yul\":18641:18647   */\n      dup5\n        /* \"#utility.yul\":18637:18659   */\n      and\n        /* \"#utility.yul\":18687:18724   */\n      tag_320\n        /* \"#utility.yul\":18719:18723   */\n      dup7\n        /* \"#utility.yul\":18687:18724   */\n      tag_113\n      jump\t// in\n    tag_320:\n        /* \"#utility.yul\":18746:18747   */\n      0x00\n        /* \"#utility.yul\":18760:18968   */\n    tag_321:\n        /* \"#utility.yul\":18774:18781   */\n      dup3\n        /* \"#utility.yul\":18771:18772   */\n      dup2\n        /* \"#utility.yul\":18768:18782   */\n      lt\n        /* \"#utility.yul\":18760:18968   */\n      iszero\n      tag_323\n      jumpi\n        /* \"#utility.yul\":18853:18862   */\n      dup5\n        /* \"#utility.yul\":18848:18851   */\n      dup10\n        /* \"#utility.yul\":18844:18863   */\n      add\n        /* \"#utility.yul\":18838:18864   */\n      mload\n        /* \"#utility.yul\":18830:18836   */\n      dup3\n        /* \"#utility.yul\":18823:18865   */\n      sstore\n        /* \"#utility.yul\":18904:18905   */\n      0x01\n        /* \"#utility.yul\":18896:18902   */\n      dup3\n        /* \"#utility.yul\":18892:18906   */\n      add\n        /* \"#utility.yul\":18882:18906   */\n      swap2\n      pop\n        /* \"#utility.yul\":18951:18953   */\n      0x20\n        /* \"#utility.yul\":18940:18949   */\n      dup6\n        /* \"#utility.yul\":18936:18954   */\n      add\n        /* \"#utility.yul\":18923:18954   */\n      swap5\n      pop\n        /* \"#utility.yul\":18797:18801   */\n      0x20\n        /* \"#utility.yul\":18794:18795   */\n      dup2\n        /* \"#utility.yul\":18790:18802   */\n      add\n        /* \"#utility.yul\":18785:18802   */\n      swap1\n      pop\n        /* \"#utility.yul\":18760:18968   */\n      jump(tag_321)\n    tag_323:\n        /* \"#utility.yul\":18996:19002   */\n      dup7\n        /* \"#utility.yul\":18987:18994   */\n      dup4\n        /* \"#utility.yul\":18984:19003   */\n      lt\n        /* \"#utility.yul\":18981:19160   */\n      iszero\n      tag_324\n      jumpi\n        /* \"#utility.yul\":19054:19063   */\n      dup5\n        /* \"#utility.yul\":19049:19052   */\n      dup10\n        /* \"#utility.yul\":19045:19064   */\n      add\n        /* \"#utility.yul\":19039:19065   */\n      mload\n        /* \"#utility.yul\":19097:19145   */\n      tag_325\n        /* \"#utility.yul\":19139:19143   */\n      0x1f\n        /* \"#utility.yul\":19131:19137   */\n      dup10\n        /* \"#utility.yul\":19127:19144   */\n      and\n        /* \"#utility.yul\":19116:19125   */\n      dup3\n        /* \"#utility.yul\":19097:19145   */\n      tag_126\n      jump\t// in\n    tag_325:\n        /* \"#utility.yul\":19089:19095   */\n      dup4\n        /* \"#utility.yul\":19082:19146   */\n      sstore\n        /* \"#utility.yul\":19004:19160   */\n      pop\n        /* \"#utility.yul\":18981:19160   */\n    tag_324:\n        /* \"#utility.yul\":19206:19207   */\n      0x01\n        /* \"#utility.yul\":19202:19203   */\n      0x02\n        /* \"#utility.yul\":19194:19200   */\n      dup9\n        /* \"#utility.yul\":19190:19204   */\n      mul\n        /* \"#utility.yul\":19186:19208   */\n      add\n        /* \"#utility.yul\":19180:19184   */\n      dup9\n        /* \"#utility.yul\":19173:19209   */\n      sstore\n        /* \"#utility.yul\":18608:19219   */\n      pop\n      pop\n      pop\n        /* \"#utility.yul\":18571:19458   */\n    tag_316:\n      pop\n        /* \"#utility.yul\":18161:19464   */\n      pop\n      pop\n      pop\n        /* \"#utility.yul\":18069:19464   */\n      pop\n      pop\n      jump\t// out\n\n    auxdata: 0xa26469706673582212209a8db4d5721cc48cf09dcba4e70c187b2cc1690fdd7d447f9580eb54cec61dd164736f6c634300081e0033\n}\n",
				"bytecode": {
					"linkReferences": {},
					"object": "608060405234801561000f575f5ffd5b5060405161126238038061126283398181016040528101906100319190610142565b5f73ffffffffffffffffffffffffffffffffffffffff168173ffffffffffffffffffffffffffffffffffffffff160361009f576040517f08c379a0000000000000000000000000000000000000000000000000000000008152600401610096906101c7565b60405180910390fd5b805f5f6101000a81548173ffffffffffffffffffffffffffffffffffffffff021916908373ffffffffffffffffffffffffffffffffffffffff160217905550506101e5565b5f5ffd5b5f73ffffffffffffffffffffffffffffffffffffffff82169050919050565b5f610111826100e8565b9050919050565b61012181610107565b811461012b575f5ffd5b50565b5f8151905061013c81610118565b92915050565b5f60208284031215610157576101566100e4565b5b5f6101648482850161012e565b91505092915050565b5f82825260208201905092915050565b7f496e76616c6964207265676973747279206164647265737300000000000000005f82015250565b5f6101b160188361016d565b91506101bc8261017d565b602082019050919050565b5f6020820190508181035f8301526101de816101a5565b9050919050565b611070806101f25f395ff3fe608060405234801561000f575f5ffd5b5060043610610055575f3560e01c806307ed3d1a146100595780631621b5731461007557806362da8313146100a8578063669d5521146100c657806397890051146100e4575b5f5ffd5b610073600480360381019061006e9190610839565b610114565b005b61008f600480360381019061008a91906108c6565b6103ec565b60405161009f9493929190610982565b60405180910390f35b6100b06104d7565b6040516100bd91906109cc565b60405180910390f35b6100ce6104dd565b6040516100db91906109e5565b60405180910390f35b6100fe60048036038101906100f991906109fe565b610501565b60405161010b9190610baa565b60405180910390f35b5f5f9054906101000a900473ffffffffffffffffffffffffffffffffffffffff1673ffffffffffffffffffffffffffffffffffffffff166309853a2f336040518263ffffffff1660e01b815260040161016d91906109e5565b602060405180830381865afa158015610188573d5f5f3e3d5ffd5b505050506040513d601f19601f820116820180604052508101906101ac9190610bff565b6101eb576040517f08c379a00000000000000000000000000000000000000000000000000000000081526004016101e290610c74565b60405180910390fd5b5f73ffffffffffffffffffffffffffffffffffffffff168273ffffffffffffffffffffffffffffffffffffffff1603610259576040517f08c379a000000000000000000000000000000000000000000000000000000000815260040161025090610cdc565b60405180910390fd5b60025f81548092919061026b90610d27565b91905055505f604051806080016040528060025481526020018381526020013373ffffffffffffffffffffffffffffffffffffffff16815260200142815250905060015f8473ffffffffffffffffffffffffffffffffffffffff1673ffffffffffffffffffffffffffffffffffffffff1681526020019081526020015f2081908060018154018082558091505060019003905f5260205f2090600402015f909190919091505f820151815f0155602082015181600101908161032d9190610f6b565b506040820151816002015f6101000a81548173ffffffffffffffffffffffffffffffffffffffff021916908373ffffffffffffffffffffffffffffffffffffffff1602179055506060820151816003015550503373ffffffffffffffffffffffffffffffffffffffff168373ffffffffffffffffffffffffffffffffffffffff167f305fcabfbbbc49beb5e5ce71fb0707c6c491111b6eba2b90d5f1f6aa52ad4d636002546040516103df91906109cc565b60405180910390a3505050565b6001602052815f5260405f208181548110610405575f80fd5b905f5260205f2090600402015f9150915050805f01549080600101805461042b90610d9b565b80601f016020809104026020016040519081016040528092919081815260200182805461045790610d9b565b80156104a25780601f10610479576101008083540402835291602001916104a2565b820191905f5260205f20905b81548152906001019060200180831161048557829003601f168201915b505050505090806002015f9054906101000a900473ffffffffffffffffffffffffffffffffffffffff16908060030154905084565b60025481565b5f5f9054906101000a900473ffffffffffffffffffffffffffffffffffffffff1681565b606060015f8373ffffffffffffffffffffffffffffffffffffffff1673ffffffffffffffffffffffffffffffffffffffff1681526020019081526020015f20805480602002602001604051908101604052809291908181526020015f905b82821015610687578382905f5260205f2090600402016040518060800160405290815f820154815260200160018201805461059990610d9b565b80601f01602080910402602001604051908101604052809291908181526020018280546105c590610d9b565b80156106105780601f106105e757610100808354040283529160200191610610565b820191905f5260205f20905b8154815290600101906020018083116105f357829003601f168201915b50505050508152602001600282015f9054906101000a900473ffffffffffffffffffffffffffffffffffffffff1673ffffffffffffffffffffffffffffffffffffffff1673ffffffffffffffffffffffffffffffffffffffff1681526020016003820154815250508152602001906001019061055f565b505050509050919050565b5f604051905090565b5f5ffd5b5f5ffd5b5f73ffffffffffffffffffffffffffffffffffffffff82169050919050565b5f6106cc826106a3565b9050919050565b6106dc816106c2565b81146106e6575f5ffd5b50565b5f813590506106f7816106d3565b92915050565b5f5ffd5b5f5ffd5b5f601f19601f8301169050919050565b7f4e487b71000000000000000000000000000000000000000000000000000000005f52604160045260245ffd5b61074b82610705565b810181811067ffffffffffffffff8211171561076a57610769610715565b5b80604052505050565b5f61077c610692565b90506107888282610742565b919050565b5f67ffffffffffffffff8211156107a7576107a6610715565b5b6107b082610705565b9050602081019050919050565b828183375f83830152505050565b5f6107dd6107d88461078d565b610773565b9050828152602081018484840111156107f9576107f8610701565b5b6108048482856107bd565b509392505050565b5f82601f8301126108205761081f6106fd565b5b81356108308482602086016107cb565b91505092915050565b5f5f6040838503121561084f5761084e61069b565b5b5f61085c858286016106e9565b925050602083013567ffffffffffffffff81111561087d5761087c61069f565b5b6108898582860161080c565b9150509250929050565b5f819050919050565b6108a581610893565b81146108af575f5ffd5b50565b5f813590506108c08161089c565b92915050565b5f5f604083850312156108dc576108db61069b565b5b5f6108e9858286016106e9565b92505060206108fa858286016108b2565b9150509250929050565b61090d81610893565b82525050565b5f81519050919050565b5f82825260208201905092915050565b8281835e5f83830152505050565b5f61094582610913565b61094f818561091d565b935061095f81856020860161092d565b61096881610705565b840191505092915050565b61097c816106c2565b82525050565b5f6080820190506109955f830187610904565b81810360208301526109a7818661093b565b90506109b66040830185610973565b6109c36060830184610904565b95945050505050565b5f6020820190506109df5f830184610904565b92915050565b5f6020820190506109f85f830184610973565b92915050565b5f60208284031215610a1357610a1261069b565b5b5f610a20848285016106e9565b91505092915050565b5f81519050919050565b5f82825260208201905092915050565b5f819050602082019050919050565b610a5b81610893565b82525050565b5f82825260208201905092915050565b5f610a7b82610913565b610a858185610a61565b9350610a9581856020860161092d565b610a9e81610705565b840191505092915050565b610ab2816106c2565b82525050565b5f608083015f830151610acd5f860182610a52565b5060208301518482036020860152610ae58282610a71565b9150506040830151610afa6040860182610aa9565b506060830151610b0d6060860182610a52565b508091505092915050565b5f610b238383610ab8565b905092915050565b5f602082019050919050565b5f610b4182610a29565b610b4b8185610a33565b935083602082028501610b5d85610a43565b805f5b85811015610b985784840389528151610b798582610b18565b9450610b8483610b2b565b925060208a01995050600181019050610b60565b50829750879550505050505092915050565b5f6020820190508181035f830152610bc28184610b37565b905092915050565b5f8115159050919050565b610bde81610bca565b8114610be8575f5ffd5b50565b5f81519050610bf981610bd5565b92915050565b5f60208284031215610c1457610c1361069b565b5b5f610c2184828501610beb565b91505092915050565b7f43616c6c6572206973206e6f74206120726567697374657265642062616e6b005f82015250565b5f610c5e601f8361091d565b9150610c6982610c2a565b602082019050919050565b5f6020820190508181035f830152610c8b81610c52565b9050919050565b7f496e76616c6964207573657220616464726573730000000000000000000000005f82015250565b5f610cc660148361091d565b9150610cd182610c92565b602082019050919050565b5f6020820190508181035f830152610cf381610cba565b9050919050565b7f4e487b71000000000000000000000000000000000000000000000000000000005f52601160045260245ffd5b5f610d3182610893565b91507fffffffffffffffffffffffffffffffffffffffffffffffffffffffffffffffff8203610d6357610d62610cfa565b5b600182019050919050565b7f4e487b71000000000000000000000000000000000000000000000000000000005f52602260045260245ffd5b5f6002820490506001821680610db257607f821691505b602082108103610dc557610dc4610d6e565b5b50919050565b5f819050815f5260205f209050919050565b5f6020601f8301049050919050565b5f82821b905092915050565b5f60088302610e277fffffffffffffffffffffffffffffffffffffffffffffffffffffffffffffffff82610dec565b610e318683610dec565b95508019841693508086168417925050509392505050565b5f819050919050565b5f610e6c610e67610e6284610893565b610e49565b610893565b9050919050565b5f819050919050565b610e8583610e52565b610e99610e9182610e73565b848454610df8565b825550505050565b5f5f905090565b610eb0610ea1565b610ebb818484610e7c565b505050565b5b81811015610ede57610ed35f82610ea8565b600181019050610ec1565b5050565b601f821115610f2357610ef481610dcb565b610efd84610ddd565b81016020851015610f0c578190505b610f20610f1885610ddd565b830182610ec0565b50505b505050565b5f82821c905092915050565b5f610f435f1984600802610f28565b1980831691505092915050565b5f610f5b8383610f34565b9150826002028217905092915050565b610f7482610913565b67ffffffffffffffff811115610f8d57610f8c610715565b5b610f978254610d9b565b610fa2828285610ee2565b5f60209050601f831160018114610fd3575f8415610fc1578287015190505b610fcb8582610f50565b865550611032565b601f198416610fe186610dcb565b5f5b8281101561100857848901518255600182019150602085019450602081019050610fe3565b868310156110255784890151611021601f891682610f34565b8355505b6001600288020188555050505b50505050505056fea26469706673582212209a8db4d5721cc48cf09dcba4e70c187b2cc1690fdd7d447f9580eb54cec61dd164736f6c634300081e0033",
					"opcodes": "PUSH1 0x80 PUSH1 0x40 MSTORE CALLVALUE DUP1 ISZERO PUSH2 0xF JUMPI PUSH0 PUSH0 REVERT JUMPDEST POP PUSH1 0x40 MLOAD PUSH2 0x1262 CODESIZE SUB DUP1 PUSH2 0x1262 DUP4 CODECOPY DUP2 DUP2 ADD PUSH1 0x40 MSTORE DUP2 ADD SWAP1 PUSH2 0x31 SWAP2 SWAP1 PUSH2 0x142 JUMP JUMPDEST PUSH0 PUSH20 0xFFFFFFFFFFFFFFFFFFFFFFFFFFFFFFFFFFFFFFFF AND DUP2 PUSH20 0xFFFFFFFFFFFFFFFFFFFFFFFFFFFFFFFFFFFFFFFF AND SUB PUSH2 0x9F JUMPI PUSH1 0x40 MLOAD PUSH32 0x8C379A000000000000000000000000000000000000000000000000000000000 DUP2 MSTORE PUSH1 0x4 ADD PUSH2 0x96 SWAP1 PUSH2 0x1C7 JUMP JUMPDEST PUSH1 0x40 MLOAD DUP1 SWAP2 SUB SWAP1 REVERT JUMPDEST DUP1 PUSH0 PUSH0 PUSH2 0x100 EXP DUP2 SLOAD DUP2 PUSH20 0xFFFFFFFFFFFFFFFFFFFFFFFFFFFFFFFFFFFFFFFF MUL NOT AND SWAP1 DUP4 PUSH20 0xFFFFFFFFFFFFFFFFFFFFFFFFFFFFFFFFFFFFFFFF AND MUL OR SWAP1 SSTORE POP POP PUSH2 0x1E5 JUMP JUMPDEST PUSH0 PUSH0 REVERT JUMPDEST PUSH0 PUSH20 0xFFFFFFFFFFFFFFFFFFFFFFFFFFFFFFFFFFFFFFFF DUP3 AND SWAP1 POP SWAP2 SWAP1 POP JUMP JUMPDEST PUSH0 PUSH2 0x111 DUP3 PUSH2 0xE8 JUMP JUMPDEST SWAP1 POP SWAP2 SWAP1 POP JUMP JUMPDEST PUSH2 0x121 DUP2 PUSH2 0x107 JUMP JUMPDEST DUP2 EQ PUSH2 0x12B JUMPI PUSH0 PUSH0 REVERT JUMPDEST POP JUMP JUMPDEST PUSH0 DUP2 MLOAD SWAP1 POP PUSH2 0x13C DUP2 PUSH2 0x118 JUMP JUMPDEST SWAP3 SWAP2 POP POP JUMP JUMPDEST PUSH0 PUSH1 0x20 DUP3 DUP5 SUB SLT ISZERO PUSH2 0x157 JUMPI PUSH2 0x156 PUSH2 0xE4 JUMP JUMPDEST JUMPDEST PUSH0 PUSH2 0x164 DUP5 DUP3 DUP6 ADD PUSH2 0x12E JUMP JUMPDEST SWAP2 POP POP SWAP3 SWAP2 POP POP JUMP JUMPDEST PUSH0 DUP3 DUP3 MSTORE PUSH1 0x20 DUP3 ADD SWAP1 POP SWAP3 SWAP2 POP POP JUMP JUMPDEST PUSH32 0x496E76616C696420726567697374727920616464726573730000000000000000 PUSH0 DUP3 ADD MSTORE POP JUMP JUMPDEST PUSH0 PUSH2 0x1B1 PUSH1 0x18 DUP4 PUSH2 0x16D JUMP JUMPDEST SWAP2 POP PUSH2 0x1BC DUP3 PUSH2 0x17D JUMP JUMPDEST PUSH1 0x20 DUP3 ADD SWAP1 POP SWAP2 SWAP1 POP JUMP JUMPDEST PUSH0 PUSH1 0x20 DUP3 ADD SWAP1 POP DUP2 DUP2 SUB PUSH0 DUP4 ADD MSTORE PUSH2 0x1DE DUP2 PUSH2 0x1A5 JUMP JUMPDEST SWAP1 POP SWAP2 SWAP1 POP JUMP JUMPDEST PUSH2 0x1070 DUP1 PUSH2 0x1F2 PUSH0 CODECOPY PUSH0 RETURN INVALID PUSH1 0x80 PUSH1 0x40 MSTORE CALLVALUE DUP1 ISZERO PUSH2 0xF JUMPI PUSH0 PUSH0 REVERT JUMPDEST POP PUSH1 0x4 CALLDATASIZE LT PUSH2 0x55 JUMPI PUSH0 CALLDATALOAD PUSH1 0xE0 SHR DUP1 PUSH4 0x7ED3D1A EQ PUSH2 0x59 JUMPI DUP1 PUSH4 0x1621B573 EQ PUSH2 0x75 JUMPI DUP1 PUSH4 0x62DA8313 EQ PUSH2 0xA8 JUMPI DUP1 PUSH4 0x669D5521 EQ PUSH2 0xC6 JUMPI DUP1 PUSH4 0x97890051 EQ PUSH2 0xE4 JUMPI JUMPDEST PUSH0 PUSH0 REVERT JUMPDEST PUSH2 0x73 PUSH1 0x4 DUP1 CALLDATASIZE SUB DUP2 ADD SWAP1 PUSH2 0x6E SWAP2 SWAP1 PUSH2 0x839 JUMP JUMPDEST PUSH2 0x114 JUMP JUMPDEST STOP JUMPDEST PUSH2 0x8F PUSH1 0x4 DUP1 CALLDATASIZE SUB DUP2 ADD SWAP1 PUSH2 0x8A SWAP2 SWAP1 PUSH2 0x8C6 JUMP JUMPDEST PUSH2 0x3EC JUMP JUMPDEST PUSH1 0x40 MLOAD PUSH2 0x9F SWAP5 SWAP4 SWAP3 SWAP2 SWAP1 PUSH2 0x982 JUMP JUMPDEST PUSH1 0x40 MLOAD DUP1 SWAP2 SUB SWAP1 RETURN JUMPDEST PUSH2 0xB0 PUSH2 0x4D7 JUMP JUMPDEST PUSH1 0x40 MLOAD PUSH2 0xBD SWAP2 SWAP1 PUSH2 0x9CC JUMP JUMPDEST PUSH1 0x40 MLOAD DUP1 SWAP2 SUB SWAP1 RETURN JUMPDEST PUSH2 0xCE PUSH2 0x4DD JUMP JUMPDEST PUSH1 0x40 MLOAD PUSH2 0xDB SWAP2 SWAP1 PUSH2 0x9E5 JUMP JUMPDEST PUSH1 0x40 MLOAD DUP1 SWAP2 SUB SWAP1 RETURN JUMPDEST PUSH2 0xFE PUSH1 0x4 DUP1 CALLDATASIZE SUB DUP2 ADD SWAP1 PUSH2 0xF9 SWAP2 SWAP1 PUSH2 0x9FE JUMP JUMPDEST PUSH2 0x501 JUMP JUMPDEST PUSH1 0x40 MLOAD PUSH2 0x10B SWAP2 SWAP1 PUSH2 0xBAA JUMP JUMPDEST PUSH1 0x40 MLOAD DUP1 SWAP2 SUB SWAP1 RETURN JUMPDEST PUSH0 PUSH0 SWAP1 SLOAD SWAP1 PUSH2 0x100 EXP SWAP1 DIV PUSH20 0xFFFFFFFFFFFFFFFFFFFFFFFFFFFFFFFFFFFFFFFF AND PUSH20 0xFFFFFFFFFFFFFFFFFFFFFFFFFFFFFFFFFFFFFFFF AND PUSH4 0x9853A2F CALLER PUSH1 0x40 MLOAD DUP3 PUSH4 0xFFFFFFFF AND PUSH1 0xE0 SHL DUP2 MSTORE PUSH1 0x4 ADD PUSH2 0x16D SWAP2 SWAP1 PUSH2 0x9E5 JUMP JUMPDEST PUSH1 0x20 PUSH1 0x40 MLOAD DUP1 DUP4 SUB DUP2 DUP7 GAS STATICCALL ISZERO DUP1 ISZERO PUSH2 0x188 JUMPI RETURNDATASIZE PUSH0 PUSH0 RETURNDATACOPY RETURNDATASIZE PUSH0 REVERT JUMPDEST POP POP POP POP PUSH1 0x40 MLOAD RETURNDATASIZE PUSH1 0x1F NOT PUSH1 0x1F DUP3 ADD AND DUP3 ADD DUP1 PUSH1 0x40 MSTORE POP DUP2 ADD SWAP1 PUSH2 0x1AC SWAP2 SWAP1 PUSH2 0xBFF JUMP JUMPDEST PUSH2 0x1EB JUMPI PUSH1 0x40 MLOAD PUSH32 0x8C379A000000000000000000000000000000000000000000000000000000000 DUP2 MSTORE PUSH1 0x4 ADD PUSH2 0x1E2 SWAP1 PUSH2 0xC74 JUMP JUMPDEST PUSH1 0x40 MLOAD DUP1 SWAP2 SUB SWAP1 REVERT JUMPDEST PUSH0 PUSH20 0xFFFFFFFFFFFFFFFFFFFFFFFFFFFFFFFFFFFFFFFF AND DUP3 PUSH20 0xFFFFFFFFFFFFFFFFFFFFFFFFFFFFFFFFFFFFFFFF AND SUB PUSH2 0x259 JUMPI PUSH1 0x40 MLOAD PUSH32 0x8C379A000000000000000000000000000000000000000000000000000000000 DUP2 MSTORE PUSH1 0x4 ADD PUSH2 0x250 SWAP1 PUSH2 0xCDC JUMP JUMPDEST PUSH1 0x40 MLOAD DUP1 SWAP2 SUB SWAP1 REVERT JUMPDEST PUSH1 0x2 PUSH0 DUP2 SLOAD DUP1 SWAP3 SWAP2 SWAP1 PUSH2 0x26B SWAP1 PUSH2 0xD27 JUMP JUMPDEST SWAP2 SWAP1 POP SSTORE POP PUSH0 PUSH1 0x40 MLOAD DUP1 PUSH1 0x80 ADD PUSH1 0x40 MSTORE DUP1 PUSH1 0x2 SLOAD DUP2 MSTORE PUSH1 0x20 ADD DUP4 DUP2 MSTORE PUSH1 0x20 ADD CALLER PUSH20 0xFFFFFFFFFFFFFFFFFFFFFFFFFFFFFFFFFFFFFFFF AND DUP2 MSTORE PUSH1 0x20 ADD TIMESTAMP DUP2 MSTORE POP SWAP1 POP PUSH1 0x1 PUSH0 DUP5 PUSH20 0xFFFFFFFFFFFFFFFFFFFFFFFFFFFFFFFFFFFFFFFF AND PUSH20 0xFFFFFFFFFFFFFFFFFFFFFFFFFFFFFFFFFFFFFFFF AND DUP2 MSTORE PUSH1 0x20 ADD SWAP1 DUP2 MSTORE PUSH1 0x20 ADD PUSH0 KECCAK256 DUP2 SWAP1 DUP1 PUSH1 0x1 DUP2 SLOAD ADD DUP1 DUP3 SSTORE DUP1 SWAP2 POP POP PUSH1 0x1 SWAP1 SUB SWAP1 PUSH0 MSTORE PUSH1 0x20 PUSH0 KECCAK256 SWAP1 PUSH1 0x4 MUL ADD PUSH0 SWAP1 SWAP2 SWAP1 SWAP2 SWAP1 SWAP2 POP PUSH0 DUP3 ADD MLOAD DUP2 PUSH0 ADD SSTORE PUSH1 0x20 DUP3 ADD MLOAD DUP2 PUSH1 0x1 ADD SWAP1 DUP2 PUSH2 0x32D SWAP2 SWAP1 PUSH2 0xF6B JUMP JUMPDEST POP PUSH1 0x40 DUP3 ADD MLOAD DUP2 PUSH1 0x2 ADD PUSH0 PUSH2 0x100 EXP DUP2 SLOAD DUP2 PUSH20 0xFFFFFFFFFFFFFFFFFFFFFFFFFFFFFFFFFFFFFFFF MUL NOT AND SWAP1 DUP4 PUSH20 0xFFFFFFFFFFFFFFFFFFFFFFFFFFFFFFFFFFFFFFFF AND MUL OR SWAP1 SSTORE POP PUSH1 0x60 DUP3 ADD MLOAD DUP2 PUSH1 0x3 ADD SSTORE POP POP CALLER PUSH20 0xFFFFFFFFFFFFFFFFFFFFFFFFFFFFFFFFFFFFFFFF AND DUP4 PUSH20 0xFFFFFFFFFFFFFFFFFFFFFFFFFFFFFFFFFFFFFFFF AND PUSH32 0x305FCABFBBBC49BEB5E5CE71FB0707C6C491111B6EBA2B90D5F1F6AA52AD4D63 PUSH1 0x2 SLOAD PUSH1 0x40 MLOAD PUSH2 0x3DF SWAP2 SWAP1 PUSH2 0x9CC JUMP JUMPDEST PUSH1 0x40 MLOAD DUP1 SWAP2 SUB SWAP1 LOG3 POP POP POP JUMP JUMPDEST PUSH1 0x1 PUSH1 0x20 MSTORE DUP2 PUSH0 MSTORE PUSH1 0x40 PUSH0 KECCAK256 DUP2 DUP2 SLOAD DUP2 LT PUSH2 0x405 JUMPI PUSH0 DUP1 REVERT JUMPDEST SWAP1 PUSH0 MSTORE PUSH1 0x20 PUSH0 KECCAK256 SWAP1 PUSH1 0x4 MUL ADD PUSH0 SWAP2 POP SWAP2 POP POP DUP1 PUSH0 ADD SLOAD SWAP1 DUP1 PUSH1 0x1 ADD DUP1 SLOAD PUSH2 0x42B SWAP1 PUSH2 0xD9B JUMP JUMPDEST DUP1 PUSH1 0x1F ADD PUSH1 0x20 DUP1 SWAP2 DIV MUL PUSH1 0x20 ADD PUSH1 0x40 MLOAD SWAP1 DUP2 ADD PUSH1 0x40 MSTORE DUP1 SWAP3 SWAP2 SWAP1 DUP2 DUP2 MSTORE PUSH1 0x20 ADD DUP3 DUP1 SLOAD PUSH2 0x457 SWAP1 PUSH2 0xD9B JUMP JUMPDEST DUP1 ISZERO PUSH2 0x4A2 JUMPI DUP1 PUSH1 0x1F LT PUSH2 0x479 JUMPI PUSH2 0x100 DUP1 DUP4 SLOAD DIV MUL DUP4 MSTORE SWAP2 PUSH1 0x20 ADD SWAP2 PUSH2 0x4A2 JUMP JUMPDEST DUP3 ADD SWAP2 SWAP1 PUSH0 MSTORE PUSH1 0x20 PUSH0 KECCAK256 SWAP1 JUMPDEST DUP2 SLOAD DUP2 MSTORE SWAP1 PUSH1 0x1 ADD SWAP1 PUSH1 0x20 ADD DUP1 DUP4 GT PUSH2 0x485 JUMPI DUP3 SWAP1 SUB PUSH1 0x1F AND DUP3 ADD SWAP2 JUMPDEST POP POP POP POP POP SWAP1 DUP1 PUSH1 0x2 ADD PUSH0 SWAP1 SLOAD SWAP1 PUSH2 0x100 EXP SWAP1 DIV PUSH20 0xFFFFFFFFFFFFFFFFFFFFFFFFFFFFFFFFFFFFFFFF AND SWAP1 DUP1 PUSH1 0x3 ADD SLOAD SWAP1 POP DUP5 JUMP JUMPDEST PUSH1 0x2 SLOAD DUP2 JUMP JUMPDEST PUSH0 PUSH0 SWAP1 SLOAD SWAP1 PUSH2 0x100 EXP SWAP1 DIV PUSH20 0xFFFFFFFFFFFFFFFFFFFFFFFFFFFFFFFFFFFFFFFF AND DUP2 JUMP JUMPDEST PUSH1 0x60 PUSH1 0x1 PUSH0 DUP4 PUSH20 0xFFFFFFFFFFFFFFFFFFFFFFFFFFFFFFFFFFFFFFFF AND PUSH20 0xFFFFFFFFFFFFFFFFFFFFFFFFFFFFFFFFFFFFFFFF AND DUP2 MSTORE PUSH1 0x20 ADD SWAP1 DUP2 MSTORE PUSH1 0x20 ADD PUSH0 KECCAK256 DUP1 SLOAD DUP1 PUSH1 0x20 MUL PUSH1 0x20 ADD PUSH1 0x40 MLOAD SWAP1 DUP2 ADD PUSH1 0x40 MSTORE DUP1 SWAP3 SWAP2 SWAP1 DUP2 DUP2 MSTORE PUSH1 0x20 ADD PUSH0 SWAP1 JUMPDEST DUP3 DUP3 LT ISZERO PUSH2 0x687 JUMPI DUP4 DUP3 SWAP1 PUSH0 MSTORE PUSH1 0x20 PUSH0 KECCAK256 SWAP1 PUSH1 0x4 MUL ADD PUSH1 0x40 MLOAD DUP1 PUSH1 0x80 ADD PUSH1 0x40 MSTORE SWAP1 DUP2 PUSH0 DUP3 ADD SLOAD DUP2 MSTORE PUSH1 0x20 ADD PUSH1 0x1 DUP3 ADD DUP1 SLOAD PUSH2 0x599 SWAP1 PUSH2 0xD9B JUMP JUMPDEST DUP1 PUSH1 0x1F ADD PUSH1 0x20 DUP1 SWAP2 DIV MUL PUSH1 0x20 ADD PUSH1 0x40 MLOAD SWAP1 DUP2 ADD PUSH1 0x40 MSTORE DUP1 SWAP3 SWAP2 SWAP1 DUP2 DUP2 MSTORE PUSH1 0x20 ADD DUP3 DUP1 SLOAD PUSH2 0x5C5 SWAP1 PUSH2 0xD9B JUMP JUMPDEST DUP1 ISZERO PUSH2 0x610 JUMPI DUP1 PUSH1 0x1F LT PUSH2 0x5E7 JUMPI PUSH2 0x100 DUP1 DUP4 SLOAD DIV MUL DUP4 MSTORE SWAP2 PUSH1 0x20 ADD SWAP2 PUSH2 0x610 JUMP JUMPDEST DUP3 ADD SWAP2 SWAP1 PUSH0 MSTORE PUSH1 0x20 PUSH0 KECCAK256 SWAP1 JUMPDEST DUP2 SLOAD DUP2 MSTORE SWAP1 PUSH1 0x1 ADD SWAP1 PUSH1 0x20 ADD DUP1 DUP4 GT PUSH2 0x5F3 JUMPI DUP3 SWAP1 SUB PUSH1 0x1F AND DUP3 ADD SWAP2 JUMPDEST POP POP POP POP POP DUP2 MSTORE PUSH1 0x20 ADD PUSH1 0x2 DUP3 ADD PUSH0 SWAP1 SLOAD SWAP1 PUSH2 0x100 EXP SWAP1 DIV PUSH20 0xFFFFFFFFFFFFFFFFFFFFFFFFFFFFFFFFFFFFFFFF AND PUSH20 0xFFFFFFFFFFFFFFFFFFFFFFFFFFFFFFFFFFFFFFFF AND PUSH20 0xFFFFFFFFFFFFFFFFFFFFFFFFFFFFFFFFFFFFFFFF AND DUP2 MSTORE PUSH1 0x20 ADD PUSH1 0x3 DUP3 ADD SLOAD DUP2 MSTORE POP POP DUP2 MSTORE PUSH1 0x20 ADD SWAP1 PUSH1 0x1 ADD SWAP1 PUSH2 0x55F JUMP JUMPDEST POP POP POP POP SWAP1 POP SWAP2 SWAP1 POP JUMP JUMPDEST PUSH0 PUSH1 0x40 MLOAD SWAP1 POP SWAP1 JUMP JUMPDEST PUSH0 PUSH0 REVERT JUMPDEST PUSH0 PUSH0 REVERT JUMPDEST PUSH0 PUSH20 0xFFFFFFFFFFFFFFFFFFFFFFFFFFFFFFFFFFFFFFFF DUP3 AND SWAP1 POP SWAP2 SWAP1 POP JUMP JUMPDEST PUSH0 PUSH2 0x6CC DUP3 PUSH2 0x6A3 JUMP JUMPDEST SWAP1 POP SWAP2 SWAP1 POP JUMP JUMPDEST PUSH2 0x6DC DUP2 PUSH2 0x6C2 JUMP JUMPDEST DUP2 EQ PUSH2 0x6E6 JUMPI PUSH0 PUSH0 REVERT JUMPDEST POP JUMP JUMPDEST PUSH0 DUP2 CALLDATALOAD SWAP1 POP PUSH2 0x6F7 DUP2 PUSH2 0x6D3 JUMP JUMPDEST SWAP3 SWAP2 POP POP JUMP JUMPDEST PUSH0 PUSH0 REVERT JUMPDEST PUSH0 PUSH0 REVERT JUMPDEST PUSH0 PUSH1 0x1F NOT PUSH1 0x1F DUP4 ADD AND SWAP1 POP SWAP2 SWAP1 POP JUMP JUMPDEST PUSH32 0x4E487B7100000000000000000000000000000000000000000000000000000000 PUSH0 MSTORE PUSH1 0x41 PUSH1 0x4 MSTORE PUSH1 0x24 PUSH0 REVERT JUMPDEST PUSH2 0x74B DUP3 PUSH2 0x705 JUMP JUMPDEST DUP2 ADD DUP2 DUP2 LT PUSH8 0xFFFFFFFFFFFFFFFF DUP3 GT OR ISZERO PUSH2 0x76A JUMPI PUSH2 0x769 PUSH2 0x715 JUMP JUMPDEST JUMPDEST DUP1 PUSH1 0x40 MSTORE POP POP POP JUMP JUMPDEST PUSH0 PUSH2 0x77C PUSH2 0x692 JUMP JUMPDEST SWAP1 POP PUSH2 0x788 DUP3 DUP3 PUSH2 0x742 JUMP JUMPDEST SWAP2 SWAP1 POP JUMP JUMPDEST PUSH0 PUSH8 0xFFFFFFFFFFFFFFFF DUP3 GT ISZERO PUSH2 0x7A7 JUMPI PUSH2 0x7A6 PUSH2 0x715 JUMP JUMPDEST JUMPDEST PUSH2 0x7B0 DUP3 PUSH2 0x705 JUMP JUMPDEST SWAP1 POP PUSH1 0x20 DUP2 ADD SWAP1 POP SWAP2 SWAP1 POP JUMP JUMPDEST DUP3 DUP2 DUP4 CALLDATACOPY PUSH0 DUP4 DUP4 ADD MSTORE POP POP POP JUMP JUMPDEST PUSH0 PUSH2 0x7DD PUSH2 0x7D8 DUP5 PUSH2 0x78D JUMP JUMPDEST PUSH2 0x773 JUMP JUMPDEST SWAP1 POP DUP3 DUP2 MSTORE PUSH1 0x20 DUP2 ADD DUP5 DUP5 DUP5 ADD GT ISZERO PUSH2 0x7F9 JUMPI PUSH2 0x7F8 PUSH2 0x701 JUMP JUMPDEST JUMPDEST PUSH2 0x804 DUP5 DUP3 DUP6 PUSH2 0x7BD JUMP JUMPDEST POP SWAP4 SWAP3 POP POP POP JUMP JUMPDEST PUSH0 DUP3 PUSH1 0x1F DUP4 ADD SLT PUSH2 0x820 JUMPI PUSH2 0x81F PUSH2 0x6FD JUMP JUMPDEST JUMPDEST DUP2 CALLDATALOAD PUSH2 0x830 DUP5 DUP3 PUSH1 0x20 DUP7 ADD PUSH2 0x7CB JUMP JUMPDEST SWAP2 POP POP SWAP3 SWAP2 POP POP JUMP JUMPDEST PUSH0 PUSH0 PUSH1 0x40 DUP4 DUP6 SUB SLT ISZERO PUSH2 0x84F JUMPI PUSH2 0x84E PUSH2 0x69B JUMP JUMPDEST JUMPDEST PUSH0 PUSH2 0x85C DUP6 DUP3 DUP7 ADD PUSH2 0x6E9 JUMP JUMPDEST SWAP3 POP POP PUSH1 0x20 DUP4 ADD CALLDATALOAD PUSH8 0xFFFFFFFFFFFFFFFF DUP2 GT ISZERO PUSH2 0x87D JUMPI PUSH2 0x87C PUSH2 0x69F JUMP JUMPDEST JUMPDEST PUSH2 0x889 DUP6 DUP3 DUP7 ADD PUSH2 0x80C JUMP JUMPDEST SWAP2 POP POP SWAP3 POP SWAP3 SWAP1 POP JUMP JUMPDEST PUSH0 DUP2 SWAP1 POP SWAP2 SWAP1 POP JUMP JUMPDEST PUSH2 0x8A5 DUP2 PUSH2 0x893 JUMP JUMPDEST DUP2 EQ PUSH2 0x8AF JUMPI PUSH0 PUSH0 REVERT JUMPDEST POP JUMP JUMPDEST PUSH0 DUP2 CALLDATALOAD SWAP1 POP PUSH2 0x8C0 DUP2 PUSH2 0x89C JUMP JUMPDEST SWAP3 SWAP2 POP POP JUMP JUMPDEST PUSH0 PUSH0 PUSH1 0x40 DUP4 DUP6 SUB SLT ISZERO PUSH2 0x8DC JUMPI PUSH2 0x8DB PUSH2 0x69B JUMP JUMPDEST JUMPDEST PUSH0 PUSH2 0x8E9 DUP6 DUP3 DUP7 ADD PUSH2 0x6E9 JUMP JUMPDEST SWAP3 POP POP PUSH1 0x20 PUSH2 0x8FA DUP6 DUP3 DUP7 ADD PUSH2 0x8B2 JUMP JUMPDEST SWAP2 POP POP SWAP3 POP SWAP3 SWAP1 POP JUMP JUMPDEST PUSH2 0x90D DUP2 PUSH2 0x893 JUMP JUMPDEST DUP3 MSTORE POP POP JUMP JUMPDEST PUSH0 DUP2 MLOAD SWAP1 POP SWAP2 SWAP1 POP JUMP JUMPDEST PUSH0 DUP3 DUP3 MSTORE PUSH1 0x20 DUP3 ADD SWAP1 POP SWAP3 SWAP2 POP POP JUMP JUMPDEST DUP3 DUP2 DUP4 MCOPY PUSH0 DUP4 DUP4 ADD MSTORE POP POP POP JUMP JUMPDEST PUSH0 PUSH2 0x945 DUP3 PUSH2 0x913 JUMP JUMPDEST PUSH2 0x94F DUP2 DUP6 PUSH2 0x91D JUMP JUMPDEST SWAP4 POP PUSH2 0x95F DUP2 DUP6 PUSH1 0x20 DUP7 ADD PUSH2 0x92D JUMP JUMPDEST PUSH2 0x968 DUP2 PUSH2 0x705 JUMP JUMPDEST DUP5 ADD SWAP2 POP POP SWAP3 SWAP2 POP POP JUMP JUMPDEST PUSH2 0x97C DUP2 PUSH2 0x6C2 JUMP JUMPDEST DUP3 MSTORE POP POP JUMP JUMPDEST PUSH0 PUSH1 0x80 DUP3 ADD SWAP1 POP PUSH2 0x995 PUSH0 DUP4 ADD DUP8 PUSH2 0x904 JUMP JUMPDEST DUP2 DUP2 SUB PUSH1 0x20 DUP4 ADD MSTORE PUSH2 0x9A7 DUP2 DUP7 PUSH2 0x93B JUMP JUMPDEST SWAP1 POP PUSH2 0x9B6 PUSH1 0x40 DUP4 ADD DUP6 PUSH2 0x973 JUMP JUMPDEST PUSH2 0x9C3 PUSH1 0x60 DUP4 ADD DUP5 PUSH2 0x904 JUMP JUMPDEST SWAP6 SWAP5 POP POP POP POP POP JUMP JUMPDEST PUSH0 PUSH1 0x20 DUP3 ADD SWAP1 POP PUSH2 0x9DF PUSH0 DUP4 ADD DUP5 PUSH2 0x904 JUMP JUMPDEST SWAP3 SWAP2 POP POP JUMP JUMPDEST PUSH0 PUSH1 0x20 DUP3 ADD SWAP1 POP PUSH2 0x9F8 PUSH0 DUP4 ADD DUP5 PUSH2 0x973 JUMP JUMPDEST SWAP3 SWAP2 POP POP JUMP JUMPDEST PUSH0 PUSH1 0x20 DUP3 DUP5 SUB SLT ISZERO PUSH2 0xA13 JUMPI PUSH2 0xA12 PUSH2 0x69B JUMP JUMPDEST JUMPDEST PUSH0 PUSH2 0xA20 DUP5 DUP3 DUP6 ADD PUSH2 0x6E9 JUMP JUMPDEST SWAP2 POP POP SWAP3 SWAP2 POP POP JUMP JUMPDEST PUSH0 DUP2 MLOAD SWAP1 POP SWAP2 SWAP1 POP JUMP JUMPDEST PUSH0 DUP3 DUP3 MSTORE PUSH1 0x20 DUP3 ADD SWAP1 POP SWAP3 SWAP2 POP POP JUMP JUMPDEST PUSH0 DUP2 SWAP1 POP PUSH1 0x20 DUP3 ADD SWAP1 POP SWAP2 SWAP1 POP JUMP JUMPDEST PUSH2 0xA5B DUP2 PUSH2 0x893 JUMP JUMPDEST DUP3 MSTORE POP POP JUMP JUMPDEST PUSH0 DUP3 DUP3 MSTORE PUSH1 0x20 DUP3 ADD SWAP1 POP SWAP3 SWAP2 POP POP JUMP JUMPDEST PUSH0 PUSH2 0xA7B DUP3 PUSH2 0x913 JUMP JUMPDEST PUSH2 0xA85 DUP2 DUP6 PUSH2 0xA61 JUMP JUMPDEST SWAP4 POP PUSH2 0xA95 DUP2 DUP6 PUSH1 0x20 DUP7 ADD PUSH2 0x92D JUMP JUMPDEST PUSH2 0xA9E DUP2 PUSH2 0x705 JUMP JUMPDEST DUP5 ADD SWAP2 POP POP SWAP3 SWAP2 POP POP JUMP JUMPDEST PUSH2 0xAB2 DUP2 PUSH2 0x6C2 JUMP JUMPDEST DUP3 MSTORE POP POP JUMP JUMPDEST PUSH0 PUSH1 0x80 DUP4 ADD PUSH0 DUP4 ADD MLOAD PUSH2 0xACD PUSH0 DUP7 ADD DUP3 PUSH2 0xA52 JUMP JUMPDEST POP PUSH1 0x20 DUP4 ADD MLOAD DUP5 DUP3 SUB PUSH1 0x20 DUP7 ADD MSTORE PUSH2 0xAE5 DUP3 DUP3 PUSH2 0xA71 JUMP JUMPDEST SWAP2 POP POP PUSH1 0x40 DUP4 ADD MLOAD PUSH2 0xAFA PUSH1 0x40 DUP7 ADD DUP3 PUSH2 0xAA9 JUMP JUMPDEST POP PUSH1 0x60 DUP4 ADD MLOAD PUSH2 0xB0D PUSH1 0x60 DUP7 ADD DUP3 PUSH2 0xA52 JUMP JUMPDEST POP DUP1 SWAP2 POP POP SWAP3 SWAP2 POP POP JUMP JUMPDEST PUSH0 PUSH2 0xB23 DUP4 DUP4 PUSH2 0xAB8 JUMP JUMPDEST SWAP1 POP SWAP3 SWAP2 POP POP JUMP JUMPDEST PUSH0 PUSH1 0x20 DUP3 ADD SWAP1 POP SWAP2 SWAP1 POP JUMP JUMPDEST PUSH0 PUSH2 0xB41 DUP3 PUSH2 0xA29 JUMP JUMPDEST PUSH2 0xB4B DUP2 DUP6 PUSH2 0xA33 JUMP JUMPDEST SWAP4 POP DUP4 PUSH1 0x20 DUP3 MUL DUP6 ADD PUSH2 0xB5D DUP6 PUSH2 0xA43 JUMP JUMPDEST DUP1 PUSH0 JUMPDEST DUP6 DUP2 LT ISZERO PUSH2 0xB98 JUMPI DUP5 DUP5 SUB DUP10 MSTORE DUP2 MLOAD PUSH2 0xB79 DUP6 DUP3 PUSH2 0xB18 JUMP JUMPDEST SWAP5 POP PUSH2 0xB84 DUP4 PUSH2 0xB2B JUMP JUMPDEST SWAP3 POP PUSH1 0x20 DUP11 ADD SWAP10 POP POP PUSH1 0x1 DUP2 ADD SWAP1 POP PUSH2 0xB60 JUMP JUMPDEST POP DUP3 SWAP8 POP DUP8 SWAP6 POP POP POP POP POP POP SWAP3 SWAP2 POP POP JUMP JUMPDEST PUSH0 PUSH1 0x20 DUP3 ADD SWAP1 POP DUP2 DUP2 SUB PUSH0 DUP4 ADD MSTORE PUSH2 0xBC2 DUP2 DUP5 PUSH2 0xB37 JUMP JUMPDEST SWAP1 POP SWAP3 SWAP2 POP POP JUMP JUMPDEST PUSH0 DUP2 ISZERO ISZERO SWAP1 POP SWAP2 SWAP1 POP JUMP JUMPDEST PUSH2 0xBDE DUP2 PUSH2 0xBCA JUMP JUMPDEST DUP2 EQ PUSH2 0xBE8 JUMPI PUSH0 PUSH0 REVERT JUMPDEST POP JUMP JUMPDEST PUSH0 DUP2 MLOAD SWAP1 POP PUSH2 0xBF9 DUP2 PUSH2 0xBD5 JUMP JUMPDEST SWAP3 SWAP2 POP POP JUMP JUMPDEST PUSH0 PUSH1 0x20 DUP3 DUP5 SUB SLT ISZERO PUSH2 0xC14 JUMPI PUSH2 0xC13 PUSH2 0x69B JUMP JUMPDEST JUMPDEST PUSH0 PUSH2 0xC21 DUP5 DUP3 DUP6 ADD PUSH2 0xBEB JUMP JUMPDEST SWAP2 POP POP SWAP3 SWAP2 POP POP JUMP JUMPDEST PUSH32 0x43616C6C6572206973206E6F74206120726567697374657265642062616E6B00 PUSH0 DUP3 ADD MSTORE POP JUMP JUMPDEST PUSH0 PUSH2 0xC5E PUSH1 0x1F DUP4 PUSH2 0x91D JUMP JUMPDEST SWAP2 POP PUSH2 0xC69 DUP3 PUSH2 0xC2A JUMP JUMPDEST PUSH1 0x20 DUP3 ADD SWAP1 POP SWAP2 SWAP1 POP JUMP JUMPDEST PUSH0 PUSH1 0x20 DUP3 ADD SWAP1 POP DUP2 DUP2 SUB PUSH0 DUP4 ADD MSTORE PUSH2 0xC8B DUP2 PUSH2 0xC52 JUMP JUMPDEST SWAP1 POP SWAP2 SWAP1 POP JUMP JUMPDEST PUSH32 0x496E76616C696420757365722061646472657373000000000000000000000000 PUSH0 DUP3 ADD MSTORE POP JUMP JUMPDEST PUSH0 PUSH2 0xCC6 PUSH1 0x14 DUP4 PUSH2 0x91D JUMP JUMPDEST SWAP2 POP PUSH2 0xCD1 DUP3 PUSH2 0xC92 JUMP JUMPDEST PUSH1 0x20 DUP3 ADD SWAP1 POP SWAP2 SWAP1 POP JUMP JUMPDEST PUSH0 PUSH1 0x20 DUP3 ADD SWAP1 POP DUP2 DUP2 SUB PUSH0 DUP4 ADD MSTORE PUSH2 0xCF3 DUP2 PUSH2 0xCBA JUMP JUMPDEST SWAP1 POP SWAP2 SWAP1 POP JUMP JUMPDEST PUSH32 0x4E487B7100000000000000000000000000000000000000000000000000000000 PUSH0 MSTORE PUSH1 0x11 PUSH1 0x4 MSTORE PUSH1 0x24 PUSH0 REVERT JUMPDEST PUSH0 PUSH2 0xD31 DUP3 PUSH2 0x893 JUMP JUMPDEST SWAP2 POP PUSH32 0xFFFFFFFFFFFFFFFFFFFFFFFFFFFFFFFFFFFFFFFFFFFFFFFFFFFFFFFFFFFFFFFF DUP3 SUB PUSH2 0xD63 JUMPI PUSH2 0xD62 PUSH2 0xCFA JUMP JUMPDEST JUMPDEST PUSH1 0x1 DUP3 ADD SWAP1 POP SWAP2 SWAP1 POP JUMP JUMPDEST PUSH32 0x4E487B7100000000000000000000000000000000000000000000000000000000 PUSH0 MSTORE PUSH1 0x22 PUSH1 0x4 MSTORE PUSH1 0x24 PUSH0 REVERT JUMPDEST PUSH0 PUSH1 0x2 DUP3 DIV SWAP1 POP PUSH1 0x1 DUP3 AND DUP1 PUSH2 0xDB2 JUMPI PUSH1 0x7F DUP3 AND SWAP2 POP JUMPDEST PUSH1 0x20 DUP3 LT DUP2 SUB PUSH2 0xDC5 JUMPI PUSH2 0xDC4 PUSH2 0xD6E JUMP JUMPDEST JUMPDEST POP SWAP2 SWAP1 POP JUMP JUMPDEST PUSH0 DUP2 SWAP1 POP DUP2 PUSH0 MSTORE PUSH1 0x20 PUSH0 KECCAK256 SWAP1 POP SWAP2 SWAP1 POP JUMP JUMPDEST PUSH0 PUSH1 0x20 PUSH1 0x1F DUP4 ADD DIV SWAP1 POP SWAP2 SWAP1 POP JUMP JUMPDEST PUSH0 DUP3 DUP3 SHL SWAP1 POP SWAP3 SWAP2 POP POP JUMP JUMPDEST PUSH0 PUSH1 0x8 DUP4 MUL PUSH2 0xE27 PUSH32 0xFFFFFFFFFFFFFFFFFFFFFFFFFFFFFFFFFFFFFFFFFFFFFFFFFFFFFFFFFFFFFFFF DUP3 PUSH2 0xDEC JUMP JUMPDEST PUSH2 0xE31 DUP7 DUP4 PUSH2 0xDEC JUMP JUMPDEST SWAP6 POP DUP1 NOT DUP5 AND SWAP4 POP DUP1 DUP7 AND DUP5 OR SWAP3 POP POP POP SWAP4 SWAP3 POP POP POP JUMP JUMPDEST PUSH0 DUP2 SWAP1 POP SWAP2 SWAP1 POP JUMP JUMPDEST PUSH0 PUSH2 0xE6C PUSH2 0xE67 PUSH2 0xE62 DUP5 PUSH2 0x893 JUMP JUMPDEST PUSH2 0xE49 JUMP JUMPDEST PUSH2 0x893 JUMP JUMPDEST SWAP1 POP SWAP2 SWAP1 POP JUMP JUMPDEST PUSH0 DUP2 SWAP1 POP SWAP2 SWAP1 POP JUMP JUMPDEST PUSH2 0xE85 DUP4 PUSH2 0xE52 JUMP JUMPDEST PUSH2 0xE99 PUSH2 0xE91 DUP3 PUSH2 0xE73 JUMP JUMPDEST DUP5 DUP5 SLOAD PUSH2 0xDF8 JUMP JUMPDEST DUP3 SSTORE POP POP POP POP JUMP JUMPDEST PUSH0 PUSH0 SWAP1 POP SWAP1 JUMP JUMPDEST PUSH2 0xEB0 PUSH2 0xEA1 JUMP JUMPDEST PUSH2 0xEBB DUP2 DUP5 DUP5 PUSH2 0xE7C JUMP JUMPDEST POP POP POP JUMP JUMPDEST JUMPDEST DUP2 DUP2 LT ISZERO PUSH2 0xEDE JUMPI PUSH2 0xED3 PUSH0 DUP3 PUSH2 0xEA8 JUMP JUMPDEST PUSH1 0x1 DUP2 ADD SWAP1 POP PUSH2 0xEC1 JUMP JUMPDEST POP POP JUMP JUMPDEST PUSH1 0x1F DUP3 GT ISZERO PUSH2 0xF23 JUMPI PUSH2 0xEF4 DUP2 PUSH2 0xDCB JUMP JUMPDEST PUSH2 0xEFD DUP5 PUSH2 0xDDD JUMP JUMPDEST DUP2 ADD PUSH1 0x20 DUP6 LT ISZERO PUSH2 0xF0C JUMPI DUP2 SWAP1 POP JUMPDEST PUSH2 0xF20 PUSH2 0xF18 DUP6 PUSH2 0xDDD JUMP JUMPDEST DUP4 ADD DUP3 PUSH2 0xEC0 JUMP JUMPDEST POP POP JUMPDEST POP POP POP JUMP JUMPDEST PUSH0 DUP3 DUP3 SHR SWAP1 POP SWAP3 SWAP2 POP POP JUMP JUMPDEST PUSH0 PUSH2 0xF43 PUSH0 NOT DUP5 PUSH1 0x8 MUL PUSH2 0xF28 JUMP JUMPDEST NOT DUP1 DUP4 AND SWAP2 POP POP SWAP3 SWAP2 POP POP JUMP JUMPDEST PUSH0 PUSH2 0xF5B DUP4 DUP4 PUSH2 0xF34 JUMP JUMPDEST SWAP2 POP DUP3 PUSH1 0x2 MUL DUP3 OR SWAP1 POP SWAP3 SWAP2 POP POP JUMP JUMPDEST PUSH2 0xF74 DUP3 PUSH2 0x913 JUMP JUMPDEST PUSH8 0xFFFFFFFFFFFFFFFF DUP2 GT ISZERO PUSH2 0xF8D JUMPI PUSH2 0xF8C PUSH2 0x715 JUMP JUMPDEST JUMPDEST PUSH2 0xF97 DUP3 SLOAD PUSH2 0xD9B JUMP JUMPDEST PUSH2 0xFA2 DUP3 DUP3 DUP6 PUSH2 0xEE2 JUMP JUMPDEST PUSH0 PUSH1 0x20 SWAP1 POP PUSH1 0x1F DUP4 GT PUSH1 0x1 DUP2 EQ PUSH2 0xFD3 JUMPI PUSH0 DUP5 ISZERO PUSH2 0xFC1 JUMPI DUP3 DUP8 ADD MLOAD SWAP1 POP JUMPDEST PUSH2 0xFCB DUP6 DUP3 PUSH2 0xF50 JUMP JUMPDEST DUP7 SSTORE POP PUSH2 0x1032 JUMP JUMPDEST PUSH1 0x1F NOT DUP5 AND PUSH2 0xFE1 DUP7 PUSH2 0xDCB JUMP JUMPDEST PUSH0 JUMPDEST DUP3 DUP2 LT ISZERO PUSH2 0x1008 JUMPI DUP5 DUP10 ADD MLOAD DUP3 SSTORE PUSH1 0x1 DUP3 ADD SWAP2 POP PUSH1 0x20 DUP6 ADD SWAP5 POP PUSH1 0x20 DUP2 ADD SWAP1 POP PUSH2 0xFE3 JUMP JUMPDEST DUP7 DUP4 LT ISZERO PUSH2 0x1025 JUMPI DUP5 DUP10 ADD MLOAD PUSH2 0x1021 PUSH1 0x1F DUP10 AND DUP3 PUSH2 0xF34 JUMP JUMPDEST DUP4 SSTORE POP JUMPDEST PUSH1 0x1 PUSH1 0x2 DUP9 MUL ADD DUP9 SSTORE POP POP POP JUMPDEST POP POP POP POP POP POP JUMP INVALID LOG2 PUSH5 0x6970667358 0x22 SLT KECCAK256 SWAP11 DUP14 0xB4 0xD5 PUSH19 0x1CC48CF09DCBA4E70C187B2CC1690FDD7D447F SWAP6 DUP1 0xEB SLOAD 0xCE 0xC6 SAR DATALOADN 0x6473 PUSH16 0x6C634300081E00330000000000000000 "
				},
				"gasEstimates": {
					"creation": {
						"codeDepositCost": "841600",
						"executionCost": "infinite",
						"totalCost": "infinite"
					},
					"external": {
						"addCreditEntry(address,string)": "infinite",
						"bankRegistryAddress()": "2551",
						"entryCounter()": "2447",
						"getUserCreditHistory(address)": "infinite",
						"userCreditHistory(address,uint256)": "infinite"
					}
				},
				"methodIdentifiers": {
					"addCreditEntry(address,string)": "07ed3d1a",
					"bankRegistryAddress()": "669d5521",
					"entryCounter()": "62da8313",
					"getUserCreditHistory(address)": "97890051",
					"userCreditHistory(address,uint256)": "1621b573"
				}
			},
			"storageLayout": {
				"storage": [
					{
						"astId": 13,
						"contract": "Contracts/CreditDataLedger.sol:CreditDataLedger",
						"label": "bankRegistryAddress",
						"offset": 0,
						"slot": "0",
						"type": "t_address"
					},
					{
						"astId": 28,
						"contract": "Contracts/CreditDataLedger.sol:CreditDataLedger",
						"label": "userCreditHistory",
						"offset": 0,
						"slot": "1",
						"type": "t_mapping(t_address,t_array(t_struct(CreditEntry)22_storage)dyn_storage)"
					},
					{
						"astId": 30,
						"contract": "Contracts/CreditDataLedger.sol:CreditDataLedger",
						"label": "entryCounter",
						"offset": 0,
						"slot": "2",
						"type": "t_uint256"
					}
				],
				"types": {
					"t_address": {
						"encoding": "inplace",
						"label": "address",
						"numberOfBytes": "20"
					},
					"t_array(t_struct(CreditEntry)22_storage)dyn_storage": {
						"base": "t_struct(CreditEntry)22_storage",
						"encoding": "dynamic_array",
						"label": "struct CreditDataLedger.CreditEntry[]",
						"numberOfBytes": "32"
					},
					"t_mapping(t_address,t_array(t_struct(CreditEntry)22_storage)dyn_storage)": {
						"encoding": "mapping",
						"key": "t_address",
						"label": "mapping(address => struct CreditDataLedger.CreditEntry[])",
						"numberOfBytes": "32",
						"value": "t_array(t_struct(CreditEntry)22_storage)dyn_storage"
					},
					"t_string_storage": {
						"encoding": "bytes",
						"label": "string",
						"numberOfBytes": "32"
					},
					"t_struct(CreditEntry)22_storage": {
						"encoding": "inplace",
						"label": "struct CreditDataLedger.CreditEntry",
						"members": [
							{
								"astId": 15,
								"contract": "Contracts/CreditDataLedger.sol:CreditDataLedger",
								"label": "entryId",
								"offset": 0,
								"slot": "0",
								"type": "t_uint256"
							},
							{
								"astId": 17,
								"contract": "Contracts/CreditDataLedger.sol:CreditDataLedger",
								"label": "entryDetails",
								"offset": 0,
								"slot": "1",
								"type": "t_string_storage"
							},
							{
								"astId": 19,
								"contract": "Contracts/CreditDataLedger.sol:CreditDataLedger",
								"label": "reportingBank",
								"offset": 0,
								"slot": "2",
								"type": "t_address"
							},
							{
								"astId": 21,
								"contract": "Contracts/CreditDataLedger.sol:CreditDataLedger",
								"label": "timestamp",
								"offset": 0,
								"slot": "3",
								"type": "t_uint256"
							}
						],
						"numberOfBytes": "128"
					},
					"t_uint256": {
						"encoding": "inplace",
						"label": "uint256",
						"numberOfBytes": "32"
					}
				}
			},
			"userdoc": {
				"events": {
					"CreditDataAdded(address,address,uint256)": {
						"notice": "Emitted when new credit data is successfully added for a user. Events create a log on the blockchain that external applications can listen to."
					}
				},
				"kind": "user",
				"methods": {
					"addCreditEntry(address,string)": {
						"notice": "Allows a registered bank to add a new credit entry to a customer's history."
					},
					"constructor": {
						"notice": "The constructor is a special function that runs only once upon deployment. It permanently links this contract to the already deployed BankRegistry contract."
					},
					"getUserCreditHistory(address)": {
						"notice": "A public view function to retrieve the entire credit history for a specific customer. 'view' means this function only reads data and does not cost any gas to call."
					}
				},
				"notice": "This contract stores credit history and data submitted by authorized banks. It is linked to the BankRegistry contract to ensure that only verified institutions can add or modify credit records.",
				"version": 1
			}
		}
	}
}