{
	"Contracts/FraudReportLedger.sol": {
		"FraudReportLedger": {
			"abi": [
				{
					"inputs": [
						{
							"internalType": "address",
							"name": "_bankRegistryAddress",
							"type": "address"
						}
					],
					"stateMutability": "nonpayable",
					"type": "constructor"
				},
				{
					"anonymous": false,
					"inputs": [
						{
							"indexed": true,
							"internalType": "uint256",
							"name": "reportId",
							"type": "uint256"
						},
						{
							"indexed": true,
							"internalType": "address",
							"name": "bankAddress",
							"type": "address"
						}
					],
					"name": "ReportSubmitted",
					"type": "event"
				},
				{
					"inputs": [],
					"name": "bankRegistryAddress",
					"outputs": [
						{
							"internalType": "address",
							"name": "",
							"type": "address"
						}
					],
					"stateMutability": "view",
					"type": "function"
				},
				{
					"inputs": [],
					"name": "reportCounter",
					"outputs": [
						{
							"internalType": "uint256",
							"name": "",
							"type": "uint256"
						}
					],
					"stateMutability": "view",
					"type": "function"
				},
				{
					"inputs": [
						{
							"internalType": "uint256",
							"name": "",
							"type": "uint256"
						}
					],
					"name": "reports",
					"outputs": [
						{
							"internalType": "uint256",
							"name": "reportId",
							"type": "uint256"
						},
						{
							"internalType": "string",
							"name": "reportDetails",
							"type": "string"
						},
						{
							"internalType": "address",
							"name": "reportingBank",
							"type": "address"
						},
						{
							"internalType": "uint256",
							"name": "timestamp",
							"type": "uint256"
						}
					],
					"stateMutability": "view",
					"type": "function"
				},
				{
					"inputs": [
						{
							"internalType": "string",
							"name": "_reportDetails",
							"type": "string"
						}
					],
					"name": "submitReport",
					"outputs": [],
					"stateMutability": "nonpayable",
					"type": "function"
				}
			],
			"devdoc": {
				"author": "Divij (with Gemini)",
				"events": {
					"ReportSubmitted(uint256,address)": {
						"params": {
							"bankAddress": "The address of the bank that submitted the report.",
							"reportId": "The unique ID of the new report."
						}
					}
				},
				"kind": "dev",
				"methods": {
					"constructor": {
						"params": {
							"_bankRegistryAddress": "The address of the BankRegistry contract."
						}
					},
					"submitReport(string)": {
						"params": {
							"_reportDetails": "A string containing the details of the fraud."
						}
					}
				},
				"title": "FraudReportLedger",
				"version": 1
			},
			"evm": {
				"assembly": "    /* \"Contracts/FraudReportLedger.sol\":584:2519  contract FraudReportLedger {... */\n  mstore(0x40, 0x80)\n    /* \"Contracts/FraudReportLedger.sol\":1553:1735  constructor(address _bankRegistryAddress) {... */\n  callvalue\n  dup1\n  iszero\n  tag_1\n  jumpi\n  revert(0x00, 0x00)\ntag_1:\n  pop\n  mload(0x40)\n  sub(codesize, bytecodeSize)\n  dup1\n  bytecodeSize\n  dup4\n  codecopy\n  dup2\n  dup2\n  add\n  0x40\n  mstore\n  dup2\n  add\n  swap1\n  tag_2\n  swap2\n  swap1\n  tag_3\n  jump\t// in\ntag_2:\n    /* \"Contracts/FraudReportLedger.sol\":1645:1646  0 */\n  0x00\n    /* \"Contracts/FraudReportLedger.sol\":1613:1647  _bankRegistryAddress != address(0) */\n  0xffffffffffffffffffffffffffffffffffffffff\n  and\n    /* \"Contracts/FraudReportLedger.sol\":1613:1633  _bankRegistryAddress */\n  dup2\n    /* \"Contracts/FraudReportLedger.sol\":1613:1647  _bankRegistryAddress != address(0) */\n  0xffffffffffffffffffffffffffffffffffffffff\n  and\n  sub\n    /* \"Contracts/FraudReportLedger.sol\":1605:1676  require(_bankRegistryAddress != address(0), \"Invalid registry address\") */\n  tag_6\n  jumpi\n  mload(0x40)\n  0x08c379a000000000000000000000000000000000000000000000000000000000\n  dup2\n  mstore\n  0x04\n  add\n  tag_7\n  swap1\n  tag_8\n  jump\t// in\ntag_7:\n  mload(0x40)\n  dup1\n  swap2\n  sub\n  swap1\n  revert\ntag_6:\n    /* \"Contracts/FraudReportLedger.sol\":1708:1728  _bankRegistryAddress */\n  dup1\n    /* \"Contracts/FraudReportLedger.sol\":1686:1705  bankRegistryAddress */\n  0x00\n  0x00\n    /* \"Contracts/FraudReportLedger.sol\":1686:1728  bankRegistryAddress = _bankRegistryAddress */\n  0x0100\n  exp\n  dup2\n  sload\n  dup2\n  0xffffffffffffffffffffffffffffffffffffffff\n  mul\n  not\n  and\n  swap1\n  dup4\n  0xffffffffffffffffffffffffffffffffffffffff\n  and\n  mul\n  or\n  swap1\n  sstore\n  pop\n    /* \"Contracts/FraudReportLedger.sol\":1553:1735  constructor(address _bankRegistryAddress) {... */\n  pop\n    /* \"Contracts/FraudReportLedger.sol\":584:2519  contract FraudReportLedger {... */\n  jump(tag_9)\n    /* \"#utility.yul\":88:205   */\ntag_11:\n    /* \"#utility.yul\":197:198   */\n  0x00\n    /* \"#utility.yul\":194:195   */\n  0x00\n    /* \"#utility.yul\":187:199   */\n  revert\n    /* \"#utility.yul\":334:460   */\ntag_13:\n    /* \"#utility.yul\":371:378   */\n  0x00\n    /* \"#utility.yul\":411:453   */\n  0xffffffffffffffffffffffffffffffffffffffff\n    /* \"#utility.yul\":404:409   */\n  dup3\n    /* \"#utility.yul\":400:454   */\n  and\n    /* \"#utility.yul\":389:454   */\n  swap1\n  pop\n    /* \"#utility.yul\":334:460   */\n  swap2\n  swap1\n  pop\n  jump\t// out\n    /* \"#utility.yul\":466:562   */\ntag_14:\n    /* \"#utility.yul\":503:510   */\n  0x00\n    /* \"#utility.yul\":532:556   */\n  tag_26\n    /* \"#utility.yul\":550:555   */\n  dup3\n    /* \"#utility.yul\":532:556   */\n  tag_13\n  jump\t// in\ntag_26:\n    /* \"#utility.yul\":521:556   */\n  swap1\n  pop\n    /* \"#utility.yul\":466:562   */\n  swap2\n  swap1\n  pop\n  jump\t// out\n    /* \"#utility.yul\":568:690   */\ntag_15:\n    /* \"#utility.yul\":641:665   */\n  tag_28\n    /* \"#utility.yul\":659:664   */\n  dup2\n    /* \"#utility.yul\":641:665   */\n  tag_14\n  jump\t// in\ntag_28:\n    /* \"#utility.yul\":634:639   */\n  dup2\n    /* \"#utility.yul\":631:666   */\n  eq\n    /* \"#utility.yul\":621:684   */\n  tag_29\n  jumpi\n    /* \"#utility.yul\":680:681   */\n  0x00\n    /* \"#utility.yul\":677:678   */\n  0x00\n    /* \"#utility.yul\":670:682   */\n  revert\n    /* \"#utility.yul\":621:684   */\ntag_29:\n    /* \"#utility.yul\":568:690   */\n  pop\n  jump\t// out\n    /* \"#utility.yul\":696:839   */\ntag_16:\n    /* \"#utility.yul\":753:758   */\n  0x00\n    /* \"#utility.yul\":784:790   */\n  dup2\n    /* \"#utility.yul\":778:791   */\n  mload\n    /* \"#utility.yul\":769:791   */\n  swap1\n  pop\n    /* \"#utility.yul\":800:833   */\n  tag_31\n    /* \"#utility.yul\":827:832   */\n  dup2\n    /* \"#utility.yul\":800:833   */\n  tag_15\n  jump\t// in\ntag_31:\n    /* \"#utility.yul\":696:839   */\n  swap3\n  swap2\n  pop\n  pop\n  jump\t// out\n    /* \"#utility.yul\":845:1196   */\ntag_3:\n    /* \"#utility.yul\":915:921   */\n  0x00\n    /* \"#utility.yul\":964:966   */\n  0x20\n    /* \"#utility.yul\":952:961   */\n  dup3\n    /* \"#utility.yul\":943:950   */\n  dup5\n    /* \"#utility.yul\":939:962   */\n  sub\n    /* \"#utility.yul\":935:967   */\n  slt\n    /* \"#utility.yul\":932:1051   */\n  iszero\n  tag_33\n  jumpi\n    /* \"#utility.yul\":970:1049   */\n  tag_34\n  tag_11\n  jump\t// in\ntag_34:\n    /* \"#utility.yul\":932:1051   */\ntag_33:\n    /* \"#utility.yul\":1090:1091   */\n  0x00\n    /* \"#utility.yul\":1115:1179   */\n  tag_35\n    /* \"#utility.yul\":1171:1178   */\n  dup5\n    /* \"#utility.yul\":1162:1168   */\n  dup3\n    /* \"#utility.yul\":1151:1160   */\n  dup6\n    /* \"#utility.yul\":1147:1169   */\n  add\n    /* \"#utility.yul\":1115:1179   */\n  tag_16\n  jump\t// in\ntag_35:\n    /* \"#utility.yul\":1105:1179   */\n  swap2\n  pop\n    /* \"#utility.yul\":1061:1189   */\n  pop\n    /* \"#utility.yul\":845:1196   */\n  swap3\n  swap2\n  pop\n  pop\n  jump\t// out\n    /* \"#utility.yul\":1202:1371   */\ntag_17:\n    /* \"#utility.yul\":1286:1297   */\n  0x00\n    /* \"#utility.yul\":1320:1326   */\n  dup3\n    /* \"#utility.yul\":1315:1318   */\n  dup3\n    /* \"#utility.yul\":1308:1327   */\n  mstore\n    /* \"#utility.yul\":1360:1364   */\n  0x20\n    /* \"#utility.yul\":1355:1358   */\n  dup3\n    /* \"#utility.yul\":1351:1365   */\n  add\n    /* \"#utility.yul\":1336:1365   */\n  swap1\n  pop\n    /* \"#utility.yul\":1202:1371   */\n  swap3\n  swap2\n  pop\n  pop\n  jump\t// out\n    /* \"#utility.yul\":1377:1551   */\ntag_18:\n    /* \"#utility.yul\":1517:1543   */\n  0x496e76616c696420726567697374727920616464726573730000000000000000\n    /* \"#utility.yul\":1513:1514   */\n  0x00\n    /* \"#utility.yul\":1505:1511   */\n  dup3\n    /* \"#utility.yul\":1501:1515   */\n  add\n    /* \"#utility.yul\":1494:1544   */\n  mstore\n    /* \"#utility.yul\":1377:1551   */\n  pop\n  jump\t// out\n    /* \"#utility.yul\":1557:1923   */\ntag_19:\n    /* \"#utility.yul\":1699:1702   */\n  0x00\n    /* \"#utility.yul\":1720:1787   */\n  tag_39\n    /* \"#utility.yul\":1784:1786   */\n  0x18\n    /* \"#utility.yul\":1779:1782   */\n  dup4\n    /* \"#utility.yul\":1720:1787   */\n  tag_17\n  jump\t// in\ntag_39:\n    /* \"#utility.yul\":1713:1787   */\n  swap2\n  pop\n    /* \"#utility.yul\":1796:1889   */\n  tag_40\n    /* \"#utility.yul\":1885:1888   */\n  dup3\n    /* \"#utility.yul\":1796:1889   */\n  tag_18\n  jump\t// in\ntag_40:\n    /* \"#utility.yul\":1914:1916   */\n  0x20\n    /* \"#utility.yul\":1909:1912   */\n  dup3\n    /* \"#utility.yul\":1905:1917   */\n  add\n    /* \"#utility.yul\":1898:1917   */\n  swap1\n  pop\n    /* \"#utility.yul\":1557:1923   */\n  swap2\n  swap1\n  pop\n  jump\t// out\n    /* \"#utility.yul\":1929:2348   */\ntag_8:\n    /* \"#utility.yul\":2095:2099   */\n  0x00\n    /* \"#utility.yul\":2133:2135   */\n  0x20\n    /* \"#utility.yul\":2122:2131   */\n  dup3\n    /* \"#utility.yul\":2118:2136   */\n  add\n    /* \"#utility.yul\":2110:2136   */\n  swap1\n  pop\n    /* \"#utility.yul\":2182:2191   */\n  dup2\n    /* \"#utility.yul\":2176:2180   */\n  dup2\n    /* \"#utility.yul\":2172:2192   */\n  sub\n    /* \"#utility.yul\":2168:2169   */\n  0x00\n    /* \"#utility.yul\":2157:2166   */\n  dup4\n    /* \"#utility.yul\":2153:2170   */\n  add\n    /* \"#utility.yul\":2146:2193   */\n  mstore\n    /* \"#utility.yul\":2210:2341   */\n  tag_42\n    /* \"#utility.yul\":2336:2340   */\n  dup2\n    /* \"#utility.yul\":2210:2341   */\n  tag_19\n  jump\t// in\ntag_42:\n    /* \"#utility.yul\":2202:2341   */\n  swap1\n  pop\n    /* \"#utility.yul\":1929:2348   */\n  swap2\n  swap1\n  pop\n  jump\t// out\n    /* \"Contracts/FraudReportLedger.sol\":584:2519  contract FraudReportLedger {... */\ntag_9:\n  dataSize(sub_0)\n  dup1\n  dataOffset(sub_0)\n  0x00\n  codecopy\n  0x00\n  return\nstop\n\nsub_0: assembly {\n        /* \"Contracts/FraudReportLedger.sol\":584:2519  contract FraudReportLedger {... */\n      mstore(0x40, 0x80)\n      callvalue\n      dup1\n      iszero\n      tag_1\n      jumpi\n      revert(0x00, 0x00)\n    tag_1:\n      pop\n      jumpi(tag_2, lt(calldatasize, 0x04))\n      shr(0xe0, calldataload(0x00))\n      dup1\n      0x635ac1ed\n      eq\n      tag_3\n      jumpi\n      dup1\n      0x669d5521\n      eq\n      tag_4\n      jumpi\n      dup1\n      0xb9bc38f2\n      eq\n      tag_5\n      jumpi\n      dup1\n      0xc942adf7\n      eq\n      tag_6\n      jumpi\n    tag_2:\n      revert(0x00, 0x00)\n        /* \"Contracts/FraudReportLedger.sol\":1928:2517  function submitReport(string memory _reportDetails) external {... */\n    tag_3:\n      tag_7\n      0x04\n      dup1\n      calldatasize\n      sub\n      dup2\n      add\n      swap1\n      tag_8\n      swap2\n      swap1\n      tag_9\n      jump\t// in\n    tag_8:\n      tag_10\n      jump\t// in\n    tag_7:\n      stop\n        /* \"Contracts/FraudReportLedger.sol\":649:683  address public bankRegistryAddress */\n    tag_4:\n      tag_11\n      tag_12\n      jump\t// in\n    tag_11:\n      mload(0x40)\n      tag_13\n      swap2\n      swap1\n      tag_14\n      jump\t// in\n    tag_13:\n      mload(0x40)\n      dup1\n      swap2\n      sub\n      swap1\n      return\n        /* \"Contracts/FraudReportLedger.sol\":926:954  uint256 public reportCounter */\n    tag_5:\n      tag_15\n      tag_16\n      jump\t// in\n    tag_15:\n      mload(0x40)\n      tag_17\n      swap2\n      swap1\n      tag_18\n      jump\t// in\n    tag_17:\n      mload(0x40)\n      dup1\n      swap2\n      sub\n      swap1\n      return\n        /* \"Contracts/FraudReportLedger.sol\":879:920  mapping(uint256 => Report) public reports */\n    tag_6:\n      tag_19\n      0x04\n      dup1\n      calldatasize\n      sub\n      dup2\n      add\n      swap1\n      tag_20\n      swap2\n      swap1\n      tag_21\n      jump\t// in\n    tag_20:\n      tag_22\n      jump\t// in\n    tag_19:\n      mload(0x40)\n      tag_23\n      swap5\n      swap4\n      swap3\n      swap2\n      swap1\n      tag_24\n      jump\t// in\n    tag_23:\n      mload(0x40)\n      dup1\n      swap2\n      sub\n      swap1\n      return\n        /* \"Contracts/FraudReportLedger.sol\":1928:2517  function submitReport(string memory _reportDetails) external {... */\n    tag_10:\n        /* \"Contracts/FraudReportLedger.sol\":2152:2171  bankRegistryAddress */\n      0x00\n      0x00\n      swap1\n      sload\n      swap1\n      0x0100\n      exp\n      swap1\n      div\n      0xffffffffffffffffffffffffffffffffffffffff\n      and\n        /* \"Contracts/FraudReportLedger.sol\":2138:2189  IBankRegistry(bankRegistryAddress).isBankRegistered */\n      0xffffffffffffffffffffffffffffffffffffffff\n      and\n      0x09853a2f\n        /* \"Contracts/FraudReportLedger.sol\":2190:2200  msg.sender */\n      caller\n        /* \"Contracts/FraudReportLedger.sol\":2138:2201  IBankRegistry(bankRegistryAddress).isBankRegistered(msg.sender) */\n      mload(0x40)\n      dup3\n      0xffffffff\n      and\n      0xe0\n      shl\n      dup2\n      mstore\n      0x04\n      add\n      tag_26\n      swap2\n      swap1\n      tag_14\n      jump\t// in\n    tag_26:\n      0x20\n      mload(0x40)\n      dup1\n      dup4\n      sub\n      dup2\n      dup7\n      gas\n      staticcall\n      iszero\n      dup1\n      iszero\n      tag_28\n      jumpi\n      returndatacopy(0x00, 0x00, returndatasize)\n      revert(0x00, returndatasize)\n    tag_28:\n      pop\n      pop\n      pop\n      pop\n      mload(0x40)\n      returndatasize\n      not(0x1f)\n      0x1f\n      dup3\n      add\n      and\n      dup3\n      add\n      dup1\n      0x40\n      mstore\n      pop\n      dup2\n      add\n      swap1\n      tag_29\n      swap2\n      swap1\n      tag_30\n      jump\t// in\n    tag_29:\n        /* \"Contracts/FraudReportLedger.sol\":2117:2258  require(... */\n      tag_31\n      jumpi\n      mload(0x40)\n      0x08c379a000000000000000000000000000000000000000000000000000000000\n      dup2\n      mstore\n      0x04\n      add\n      tag_32\n      swap1\n      tag_33\n      jump\t// in\n    tag_32:\n      mload(0x40)\n      dup1\n      swap2\n      sub\n      swap1\n      revert\n    tag_31:\n        /* \"Contracts/FraudReportLedger.sol\":2269:2282  reportCounter */\n      0x02\n      0x00\n        /* \"Contracts/FraudReportLedger.sol\":2269:2284  reportCounter++ */\n      dup2\n      sload\n      dup1\n      swap3\n      swap2\n      swap1\n      tag_34\n      swap1\n      tag_35\n      jump\t// in\n    tag_34:\n      swap2\n      swap1\n      pop\n      sstore\n      pop\n        /* \"Contracts/FraudReportLedger.sol\":2328:2452  Report(... */\n      mload(0x40)\n      dup1\n      0x80\n      add\n      0x40\n      mstore\n      dup1\n        /* \"Contracts/FraudReportLedger.sol\":2348:2361  reportCounter */\n      sload(0x02)\n        /* \"Contracts/FraudReportLedger.sol\":2328:2452  Report(... */\n      dup2\n      mstore\n      0x20\n      add\n        /* \"Contracts/FraudReportLedger.sol\":2375:2389  _reportDetails */\n      dup3\n        /* \"Contracts/FraudReportLedger.sol\":2328:2452  Report(... */\n      dup2\n      mstore\n      0x20\n      add\n        /* \"Contracts/FraudReportLedger.sol\":2403:2413  msg.sender */\n      caller\n        /* \"Contracts/FraudReportLedger.sol\":2328:2452  Report(... */\n      0xffffffffffffffffffffffffffffffffffffffff\n      and\n      dup2\n      mstore\n      0x20\n      add\n        /* \"Contracts/FraudReportLedger.sol\":2427:2442  block.timestamp */\n      timestamp\n        /* \"Contracts/FraudReportLedger.sol\":2328:2452  Report(... */\n      dup2\n      mstore\n      pop\n        /* \"Contracts/FraudReportLedger.sol\":2303:2310  reports */\n      0x01\n        /* \"Contracts/FraudReportLedger.sol\":2303:2325  reports[reportCounter] */\n      0x00\n        /* \"Contracts/FraudReportLedger.sol\":2311:2324  reportCounter */\n      sload(0x02)\n        /* \"Contracts/FraudReportLedger.sol\":2303:2325  reports[reportCounter] */\n      dup2\n      mstore\n      0x20\n      add\n      swap1\n      dup2\n      mstore\n      0x20\n      add\n      0x00\n      keccak256\n        /* \"Contracts/FraudReportLedger.sol\":2303:2452  reports[reportCounter] = Report(... */\n      0x00\n      dup3\n      add\n      mload\n      dup2\n      0x00\n      add\n      sstore\n      0x20\n      dup3\n      add\n      mload\n      dup2\n      0x01\n      add\n      swap1\n      dup2\n      tag_36\n      swap2\n      swap1\n      tag_37\n      jump\t// in\n    tag_36:\n      pop\n      0x40\n      dup3\n      add\n      mload\n      dup2\n      0x02\n      add\n      exp(0x0100, 0x00)\n      dup2\n      sload\n      dup2\n      0xffffffffffffffffffffffffffffffffffffffff\n      mul\n      not\n      and\n      swap1\n      dup4\n      0xffffffffffffffffffffffffffffffffffffffff\n      and\n      mul\n      or\n      swap1\n      sstore\n      pop\n      0x60\n      dup3\n      add\n      mload\n      dup2\n      0x03\n      add\n      sstore\n      swap1\n      pop\n      pop\n        /* \"Contracts/FraudReportLedger.sol\":2499:2509  msg.sender */\n      caller\n        /* \"Contracts/FraudReportLedger.sol\":2468:2510  ReportSubmitted(reportCounter, msg.sender) */\n      0xffffffffffffffffffffffffffffffffffffffff\n      and\n        /* \"Contracts/FraudReportLedger.sol\":2484:2497  reportCounter */\n      sload(0x02)\n        /* \"Contracts/FraudReportLedger.sol\":2468:2510  ReportSubmitted(reportCounter, msg.sender) */\n      0xfe73cf9b793e65d9d707a5bfe3063e5f3a58eb52b27a356478c30fc83f5200f2\n      mload(0x40)\n      mload(0x40)\n      dup1\n      swap2\n      sub\n      swap1\n      log3\n        /* \"Contracts/FraudReportLedger.sol\":1928:2517  function submitReport(string memory _reportDetails) external {... */\n      pop\n      jump\t// out\n        /* \"Contracts/FraudReportLedger.sol\":649:683  address public bankRegistryAddress */\n    tag_12:\n      0x00\n      0x00\n      swap1\n      sload\n      swap1\n      0x0100\n      exp\n      swap1\n      div\n      0xffffffffffffffffffffffffffffffffffffffff\n      and\n      dup2\n      jump\t// out\n        /* \"Contracts/FraudReportLedger.sol\":926:954  uint256 public reportCounter */\n    tag_16:\n      sload(0x02)\n      dup2\n      jump\t// out\n        /* \"Contracts/FraudReportLedger.sol\":879:920  mapping(uint256 => Report) public reports */\n    tag_22:\n      mstore(0x20, 0x01)\n      dup1\n      0x00\n      mstore\n      keccak256(0x00, 0x40)\n      0x00\n      swap2\n      pop\n      swap1\n      pop\n      dup1\n      0x00\n      add\n      sload\n      swap1\n      dup1\n      0x01\n      add\n      dup1\n      sload\n      tag_38\n      swap1\n      tag_39\n      jump\t// in\n    tag_38:\n      dup1\n      0x1f\n      add\n      0x20\n      dup1\n      swap2\n      div\n      mul\n      0x20\n      add\n      mload(0x40)\n      swap1\n      dup2\n      add\n      0x40\n      mstore\n      dup1\n      swap3\n      swap2\n      swap1\n      dup2\n      dup2\n      mstore\n      0x20\n      add\n      dup3\n      dup1\n      sload\n      tag_40\n      swap1\n      tag_39\n      jump\t// in\n    tag_40:\n      dup1\n      iszero\n      tag_41\n      jumpi\n      dup1\n      0x1f\n      lt\n      tag_42\n      jumpi\n      0x0100\n      dup1\n      dup4\n      sload\n      div\n      mul\n      dup4\n      mstore\n      swap2\n      0x20\n      add\n      swap2\n      jump(tag_41)\n    tag_42:\n      dup3\n      add\n      swap2\n      swap1\n      0x00\n      mstore\n      keccak256(0x00, 0x20)\n      swap1\n    tag_43:\n      dup2\n      sload\n      dup2\n      mstore\n      swap1\n      0x01\n      add\n      swap1\n      0x20\n      add\n      dup1\n      dup4\n      gt\n      tag_43\n      jumpi\n      dup3\n      swap1\n      sub\n      0x1f\n      and\n      dup3\n      add\n      swap2\n    tag_41:\n      pop\n      pop\n      pop\n      pop\n      pop\n      swap1\n      dup1\n      0x02\n      add\n      0x00\n      swap1\n      sload\n      swap1\n      0x0100\n      exp\n      swap1\n      div\n      0xffffffffffffffffffffffffffffffffffffffff\n      and\n      swap1\n      dup1\n      0x03\n      add\n      sload\n      swap1\n      pop\n      dup5\n      jump\t// out\n        /* \"#utility.yul\":7:82   */\n    tag_44:\n        /* \"#utility.yul\":40:46   */\n      0x00\n        /* \"#utility.yul\":73:75   */\n      0x40\n        /* \"#utility.yul\":67:76   */\n      mload\n        /* \"#utility.yul\":57:76   */\n      swap1\n      pop\n        /* \"#utility.yul\":7:82   */\n      swap1\n      jump\t// out\n        /* \"#utility.yul\":88:205   */\n    tag_45:\n        /* \"#utility.yul\":197:198   */\n      0x00\n        /* \"#utility.yul\":194:195   */\n      0x00\n        /* \"#utility.yul\":187:199   */\n      revert\n        /* \"#utility.yul\":211:328   */\n    tag_46:\n        /* \"#utility.yul\":320:321   */\n      0x00\n        /* \"#utility.yul\":317:318   */\n      0x00\n        /* \"#utility.yul\":310:322   */\n      revert\n        /* \"#utility.yul\":334:451   */\n    tag_47:\n        /* \"#utility.yul\":443:444   */\n      0x00\n        /* \"#utility.yul\":440:441   */\n      0x00\n        /* \"#utility.yul\":433:445   */\n      revert\n        /* \"#utility.yul\":457:574   */\n    tag_48:\n        /* \"#utility.yul\":566:567   */\n      0x00\n        /* \"#utility.yul\":563:564   */\n      0x00\n        /* \"#utility.yul\":556:568   */\n      revert\n        /* \"#utility.yul\":580:682   */\n    tag_49:\n        /* \"#utility.yul\":621:627   */\n      0x00\n        /* \"#utility.yul\":672:674   */\n      0x1f\n        /* \"#utility.yul\":668:675   */\n      not\n        /* \"#utility.yul\":663:665   */\n      0x1f\n        /* \"#utility.yul\":656:661   */\n      dup4\n        /* \"#utility.yul\":652:666   */\n      add\n        /* \"#utility.yul\":648:676   */\n      and\n        /* \"#utility.yul\":638:676   */\n      swap1\n      pop\n        /* \"#utility.yul\":580:682   */\n      swap2\n      swap1\n      pop\n      jump\t// out\n        /* \"#utility.yul\":688:868   */\n    tag_50:\n        /* \"#utility.yul\":736:813   */\n      0x4e487b7100000000000000000000000000000000000000000000000000000000\n        /* \"#utility.yul\":733:734   */\n      0x00\n        /* \"#utility.yul\":726:814   */\n      mstore\n        /* \"#utility.yul\":833:837   */\n      0x41\n        /* \"#utility.yul\":830:831   */\n      0x04\n        /* \"#utility.yul\":823:838   */\n      mstore\n        /* \"#utility.yul\":857:861   */\n      0x24\n        /* \"#utility.yul\":854:855   */\n      0x00\n        /* \"#utility.yul\":847:862   */\n      revert\n        /* \"#utility.yul\":874:1155   */\n    tag_51:\n        /* \"#utility.yul\":957:984   */\n      tag_99\n        /* \"#utility.yul\":979:983   */\n      dup3\n        /* \"#utility.yul\":957:984   */\n      tag_49\n      jump\t// in\n    tag_99:\n        /* \"#utility.yul\":949:955   */\n      dup2\n        /* \"#utility.yul\":945:985   */\n      add\n        /* \"#utility.yul\":1087:1093   */\n      dup2\n        /* \"#utility.yul\":1075:1085   */\n      dup2\n        /* \"#utility.yul\":1072:1094   */\n      lt\n        /* \"#utility.yul\":1051:1069   */\n      0xffffffffffffffff\n        /* \"#utility.yul\":1039:1049   */\n      dup3\n        /* \"#utility.yul\":1036:1070   */\n      gt\n        /* \"#utility.yul\":1033:1095   */\n      or\n        /* \"#utility.yul\":1030:1118   */\n      iszero\n      tag_100\n      jumpi\n        /* \"#utility.yul\":1098:1116   */\n      tag_101\n      tag_50\n      jump\t// in\n    tag_101:\n        /* \"#utility.yul\":1030:1118   */\n    tag_100:\n        /* \"#utility.yul\":1138:1148   */\n      dup1\n        /* \"#utility.yul\":1134:1136   */\n      0x40\n        /* \"#utility.yul\":1127:1149   */\n      mstore\n        /* \"#utility.yul\":917:1155   */\n      pop\n        /* \"#utility.yul\":874:1155   */\n      pop\n      pop\n      jump\t// out\n        /* \"#utility.yul\":1161:1290   */\n    tag_52:\n        /* \"#utility.yul\":1195:1201   */\n      0x00\n        /* \"#utility.yul\":1222:1242   */\n      tag_103\n      tag_44\n      jump\t// in\n    tag_103:\n        /* \"#utility.yul\":1212:1242   */\n      swap1\n      pop\n        /* \"#utility.yul\":1251:1284   */\n      tag_104\n        /* \"#utility.yul\":1279:1283   */\n      dup3\n        /* \"#utility.yul\":1271:1277   */\n      dup3\n        /* \"#utility.yul\":1251:1284   */\n      tag_51\n      jump\t// in\n    tag_104:\n        /* \"#utility.yul\":1161:1290   */\n      swap2\n      swap1\n      pop\n      jump\t// out\n        /* \"#utility.yul\":1296:1604   */\n    tag_53:\n        /* \"#utility.yul\":1358:1362   */\n      0x00\n        /* \"#utility.yul\":1448:1466   */\n      0xffffffffffffffff\n        /* \"#utility.yul\":1440:1446   */\n      dup3\n        /* \"#utility.yul\":1437:1467   */\n      gt\n        /* \"#utility.yul\":1434:1490   */\n      iszero\n      tag_106\n      jumpi\n        /* \"#utility.yul\":1470:1488   */\n      tag_107\n      tag_50\n      jump\t// in\n    tag_107:\n        /* \"#utility.yul\":1434:1490   */\n    tag_106:\n        /* \"#utility.yul\":1508:1537   */\n      tag_108\n        /* \"#utility.yul\":1530:1536   */\n      dup3\n        /* \"#utility.yul\":1508:1537   */\n      tag_49\n      jump\t// in\n    tag_108:\n        /* \"#utility.yul\":1500:1537   */\n      swap1\n      pop\n        /* \"#utility.yul\":1592:1596   */\n      0x20\n        /* \"#utility.yul\":1586:1590   */\n      dup2\n        /* \"#utility.yul\":1582:1597   */\n      add\n        /* \"#utility.yul\":1574:1597   */\n      swap1\n      pop\n        /* \"#utility.yul\":1296:1604   */\n      swap2\n      swap1\n      pop\n      jump\t// out\n        /* \"#utility.yul\":1610:1758   */\n    tag_54:\n        /* \"#utility.yul\":1708:1714   */\n      dup3\n        /* \"#utility.yul\":1703:1706   */\n      dup2\n        /* \"#utility.yul\":1698:1701   */\n      dup4\n        /* \"#utility.yul\":1685:1715   */\n      calldatacopy\n        /* \"#utility.yul\":1749:1750   */\n      0x00\n        /* \"#utility.yul\":1740:1746   */\n      dup4\n        /* \"#utility.yul\":1735:1738   */\n      dup4\n        /* \"#utility.yul\":1731:1747   */\n      add\n        /* \"#utility.yul\":1724:1751   */\n      mstore\n        /* \"#utility.yul\":1610:1758   */\n      pop\n      pop\n      pop\n      jump\t// out\n        /* \"#utility.yul\":1764:2189   */\n    tag_55:\n        /* \"#utility.yul\":1842:1847   */\n      0x00\n        /* \"#utility.yul\":1867:1933   */\n      tag_111\n        /* \"#utility.yul\":1883:1932   */\n      tag_112\n        /* \"#utility.yul\":1925:1931   */\n      dup5\n        /* \"#utility.yul\":1883:1932   */\n      tag_53\n      jump\t// in\n    tag_112:\n        /* \"#utility.yul\":1867:1933   */\n      tag_52\n      jump\t// in\n    tag_111:\n        /* \"#utility.yul\":1858:1933   */\n      swap1\n      pop\n        /* \"#utility.yul\":1956:1962   */\n      dup3\n        /* \"#utility.yul\":1949:1954   */\n      dup2\n        /* \"#utility.yul\":1942:1963   */\n      mstore\n        /* \"#utility.yul\":1994:1998   */\n      0x20\n        /* \"#utility.yul\":1987:1992   */\n      dup2\n        /* \"#utility.yul\":1983:1999   */\n      add\n        /* \"#utility.yul\":2032:2035   */\n      dup5\n        /* \"#utility.yul\":2023:2029   */\n      dup5\n        /* \"#utility.yul\":2018:2021   */\n      dup5\n        /* \"#utility.yul\":2014:2030   */\n      add\n        /* \"#utility.yul\":2011:2036   */\n      gt\n        /* \"#utility.yul\":2008:2120   */\n      iszero\n      tag_113\n      jumpi\n        /* \"#utility.yul\":2039:2118   */\n      tag_114\n      tag_48\n      jump\t// in\n    tag_114:\n        /* \"#utility.yul\":2008:2120   */\n    tag_113:\n        /* \"#utility.yul\":2129:2183   */\n      tag_115\n        /* \"#utility.yul\":2176:2182   */\n      dup5\n        /* \"#utility.yul\":2171:2174   */\n      dup3\n        /* \"#utility.yul\":2166:2169   */\n      dup6\n        /* \"#utility.yul\":2129:2183   */\n      tag_54\n      jump\t// in\n    tag_115:\n        /* \"#utility.yul\":1848:2189   */\n      pop\n        /* \"#utility.yul\":1764:2189   */\n      swap4\n      swap3\n      pop\n      pop\n      pop\n      jump\t// out\n        /* \"#utility.yul\":2209:2549   */\n    tag_56:\n        /* \"#utility.yul\":2265:2270   */\n      0x00\n        /* \"#utility.yul\":2314:2317   */\n      dup3\n        /* \"#utility.yul\":2307:2311   */\n      0x1f\n        /* \"#utility.yul\":2299:2305   */\n      dup4\n        /* \"#utility.yul\":2295:2312   */\n      add\n        /* \"#utility.yul\":2291:2318   */\n      slt\n        /* \"#utility.yul\":2281:2403   */\n      tag_117\n      jumpi\n        /* \"#utility.yul\":2322:2401   */\n      tag_118\n      tag_47\n      jump\t// in\n    tag_118:\n        /* \"#utility.yul\":2281:2403   */\n    tag_117:\n        /* \"#utility.yul\":2439:2445   */\n      dup2\n        /* \"#utility.yul\":2426:2446   */\n      calldataload\n        /* \"#utility.yul\":2464:2543   */\n      tag_119\n        /* \"#utility.yul\":2539:2542   */\n      dup5\n        /* \"#utility.yul\":2531:2537   */\n      dup3\n        /* \"#utility.yul\":2524:2528   */\n      0x20\n        /* \"#utility.yul\":2516:2522   */\n      dup7\n        /* \"#utility.yul\":2512:2529   */\n      add\n        /* \"#utility.yul\":2464:2543   */\n      tag_55\n      jump\t// in\n    tag_119:\n        /* \"#utility.yul\":2455:2543   */\n      swap2\n      pop\n        /* \"#utility.yul\":2271:2549   */\n      pop\n        /* \"#utility.yul\":2209:2549   */\n      swap3\n      swap2\n      pop\n      pop\n      jump\t// out\n        /* \"#utility.yul\":2555:3064   */\n    tag_9:\n        /* \"#utility.yul\":2624:2630   */\n      0x00\n        /* \"#utility.yul\":2673:2675   */\n      0x20\n        /* \"#utility.yul\":2661:2670   */\n      dup3\n        /* \"#utility.yul\":2652:2659   */\n      dup5\n        /* \"#utility.yul\":2648:2671   */\n      sub\n        /* \"#utility.yul\":2644:2676   */\n      slt\n        /* \"#utility.yul\":2641:2760   */\n      iszero\n      tag_121\n      jumpi\n        /* \"#utility.yul\":2679:2758   */\n      tag_122\n      tag_45\n      jump\t// in\n    tag_122:\n        /* \"#utility.yul\":2641:2760   */\n    tag_121:\n        /* \"#utility.yul\":2827:2828   */\n      0x00\n        /* \"#utility.yul\":2816:2825   */\n      dup3\n        /* \"#utility.yul\":2812:2829   */\n      add\n        /* \"#utility.yul\":2799:2830   */\n      calldataload\n        /* \"#utility.yul\":2857:2875   */\n      0xffffffffffffffff\n        /* \"#utility.yul\":2849:2855   */\n      dup2\n        /* \"#utility.yul\":2846:2876   */\n      gt\n        /* \"#utility.yul\":2843:2960   */\n      iszero\n      tag_123\n      jumpi\n        /* \"#utility.yul\":2879:2958   */\n      tag_124\n      tag_46\n      jump\t// in\n    tag_124:\n        /* \"#utility.yul\":2843:2960   */\n    tag_123:\n        /* \"#utility.yul\":2984:3047   */\n      tag_125\n        /* \"#utility.yul\":3039:3046   */\n      dup5\n        /* \"#utility.yul\":3030:3036   */\n      dup3\n        /* \"#utility.yul\":3019:3028   */\n      dup6\n        /* \"#utility.yul\":3015:3037   */\n      add\n        /* \"#utility.yul\":2984:3047   */\n      tag_56\n      jump\t// in\n    tag_125:\n        /* \"#utility.yul\":2974:3047   */\n      swap2\n      pop\n        /* \"#utility.yul\":2770:3057   */\n      pop\n        /* \"#utility.yul\":2555:3064   */\n      swap3\n      swap2\n      pop\n      pop\n      jump\t// out\n        /* \"#utility.yul\":3070:3196   */\n    tag_57:\n        /* \"#utility.yul\":3107:3114   */\n      0x00\n        /* \"#utility.yul\":3147:3189   */\n      0xffffffffffffffffffffffffffffffffffffffff\n        /* \"#utility.yul\":3140:3145   */\n      dup3\n        /* \"#utility.yul\":3136:3190   */\n      and\n        /* \"#utility.yul\":3125:3190   */\n      swap1\n      pop\n        /* \"#utility.yul\":3070:3196   */\n      swap2\n      swap1\n      pop\n      jump\t// out\n        /* \"#utility.yul\":3202:3298   */\n    tag_58:\n        /* \"#utility.yul\":3239:3246   */\n      0x00\n        /* \"#utility.yul\":3268:3292   */\n      tag_128\n        /* \"#utility.yul\":3286:3291   */\n      dup3\n        /* \"#utility.yul\":3268:3292   */\n      tag_57\n      jump\t// in\n    tag_128:\n        /* \"#utility.yul\":3257:3292   */\n      swap1\n      pop\n        /* \"#utility.yul\":3202:3298   */\n      swap2\n      swap1\n      pop\n      jump\t// out\n        /* \"#utility.yul\":3304:3422   */\n    tag_59:\n        /* \"#utility.yul\":3391:3415   */\n      tag_130\n        /* \"#utility.yul\":3409:3414   */\n      dup2\n        /* \"#utility.yul\":3391:3415   */\n      tag_58\n      jump\t// in\n    tag_130:\n        /* \"#utility.yul\":3386:3389   */\n      dup3\n        /* \"#utility.yul\":3379:3416   */\n      mstore\n        /* \"#utility.yul\":3304:3422   */\n      pop\n      pop\n      jump\t// out\n        /* \"#utility.yul\":3428:3650   */\n    tag_14:\n        /* \"#utility.yul\":3521:3525   */\n      0x00\n        /* \"#utility.yul\":3559:3561   */\n      0x20\n        /* \"#utility.yul\":3548:3557   */\n      dup3\n        /* \"#utility.yul\":3544:3562   */\n      add\n        /* \"#utility.yul\":3536:3562   */\n      swap1\n      pop\n        /* \"#utility.yul\":3572:3643   */\n      tag_132\n        /* \"#utility.yul\":3640:3641   */\n      0x00\n        /* \"#utility.yul\":3629:3638   */\n      dup4\n        /* \"#utility.yul\":3625:3642   */\n      add\n        /* \"#utility.yul\":3616:3622   */\n      dup5\n        /* \"#utility.yul\":3572:3643   */\n      tag_59\n      jump\t// in\n    tag_132:\n        /* \"#utility.yul\":3428:3650   */\n      swap3\n      swap2\n      pop\n      pop\n      jump\t// out\n        /* \"#utility.yul\":3656:3733   */\n    tag_60:\n        /* \"#utility.yul\":3693:3700   */\n      0x00\n        /* \"#utility.yul\":3722:3727   */\n      dup2\n        /* \"#utility.yul\":3711:3727   */\n      swap1\n      pop\n        /* \"#utility.yul\":3656:3733   */\n      swap2\n      swap1\n      pop\n      jump\t// out\n        /* \"#utility.yul\":3739:3857   */\n    tag_61:\n        /* \"#utility.yul\":3826:3850   */\n      tag_135\n        /* \"#utility.yul\":3844:3849   */\n      dup2\n        /* \"#utility.yul\":3826:3850   */\n      tag_60\n      jump\t// in\n    tag_135:\n        /* \"#utility.yul\":3821:3824   */\n      dup3\n        /* \"#utility.yul\":3814:3851   */\n      mstore\n        /* \"#utility.yul\":3739:3857   */\n      pop\n      pop\n      jump\t// out\n        /* \"#utility.yul\":3863:4085   */\n    tag_18:\n        /* \"#utility.yul\":3956:3960   */\n      0x00\n        /* \"#utility.yul\":3994:3996   */\n      0x20\n        /* \"#utility.yul\":3983:3992   */\n      dup3\n        /* \"#utility.yul\":3979:3997   */\n      add\n        /* \"#utility.yul\":3971:3997   */\n      swap1\n      pop\n        /* \"#utility.yul\":4007:4078   */\n      tag_137\n        /* \"#utility.yul\":4075:4076   */\n      0x00\n        /* \"#utility.yul\":4064:4073   */\n      dup4\n        /* \"#utility.yul\":4060:4077   */\n      add\n        /* \"#utility.yul\":4051:4057   */\n      dup5\n        /* \"#utility.yul\":4007:4078   */\n      tag_61\n      jump\t// in\n    tag_137:\n        /* \"#utility.yul\":3863:4085   */\n      swap3\n      swap2\n      pop\n      pop\n      jump\t// out\n        /* \"#utility.yul\":4091:4213   */\n    tag_62:\n        /* \"#utility.yul\":4164:4188   */\n      tag_139\n        /* \"#utility.yul\":4182:4187   */\n      dup2\n        /* \"#utility.yul\":4164:4188   */\n      tag_60\n      jump\t// in\n    tag_139:\n        /* \"#utility.yul\":4157:4162   */\n      dup2\n        /* \"#utility.yul\":4154:4189   */\n      eq\n        /* \"#utility.yul\":4144:4207   */\n      tag_140\n      jumpi\n        /* \"#utility.yul\":4203:4204   */\n      0x00\n        /* \"#utility.yul\":4200:4201   */\n      0x00\n        /* \"#utility.yul\":4193:4205   */\n      revert\n        /* \"#utility.yul\":4144:4207   */\n    tag_140:\n        /* \"#utility.yul\":4091:4213   */\n      pop\n      jump\t// out\n        /* \"#utility.yul\":4219:4358   */\n    tag_63:\n        /* \"#utility.yul\":4265:4270   */\n      0x00\n        /* \"#utility.yul\":4303:4309   */\n      dup2\n        /* \"#utility.yul\":4290:4310   */\n      calldataload\n        /* \"#utility.yul\":4281:4310   */\n      swap1\n      pop\n        /* \"#utility.yul\":4319:4352   */\n      tag_142\n        /* \"#utility.yul\":4346:4351   */\n      dup2\n        /* \"#utility.yul\":4319:4352   */\n      tag_62\n      jump\t// in\n    tag_142:\n        /* \"#utility.yul\":4219:4358   */\n      swap3\n      swap2\n      pop\n      pop\n      jump\t// out\n        /* \"#utility.yul\":4364:4693   */\n    tag_21:\n        /* \"#utility.yul\":4423:4429   */\n      0x00\n        /* \"#utility.yul\":4472:4474   */\n      0x20\n        /* \"#utility.yul\":4460:4469   */\n      dup3\n        /* \"#utility.yul\":4451:4458   */\n      dup5\n        /* \"#utility.yul\":4447:4470   */\n      sub\n        /* \"#utility.yul\":4443:4475   */\n      slt\n        /* \"#utility.yul\":4440:4559   */\n      iszero\n      tag_144\n      jumpi\n        /* \"#utility.yul\":4478:4557   */\n      tag_145\n      tag_45\n      jump\t// in\n    tag_145:\n        /* \"#utility.yul\":4440:4559   */\n    tag_144:\n        /* \"#utility.yul\":4598:4599   */\n      0x00\n        /* \"#utility.yul\":4623:4676   */\n      tag_146\n        /* \"#utility.yul\":4668:4675   */\n      dup5\n        /* \"#utility.yul\":4659:4665   */\n      dup3\n        /* \"#utility.yul\":4648:4657   */\n      dup6\n        /* \"#utility.yul\":4644:4666   */\n      add\n        /* \"#utility.yul\":4623:4676   */\n      tag_63\n      jump\t// in\n    tag_146:\n        /* \"#utility.yul\":4613:4676   */\n      swap2\n      pop\n        /* \"#utility.yul\":4569:4686   */\n      pop\n        /* \"#utility.yul\":4364:4693   */\n      swap3\n      swap2\n      pop\n      pop\n      jump\t// out\n        /* \"#utility.yul\":4699:4798   */\n    tag_64:\n        /* \"#utility.yul\":4751:4757   */\n      0x00\n        /* \"#utility.yul\":4785:4790   */\n      dup2\n        /* \"#utility.yul\":4779:4791   */\n      mload\n        /* \"#utility.yul\":4769:4791   */\n      swap1\n      pop\n        /* \"#utility.yul\":4699:4798   */\n      swap2\n      swap1\n      pop\n      jump\t// out\n        /* \"#utility.yul\":4804:4973   */\n    tag_65:\n        /* \"#utility.yul\":4888:4899   */\n      0x00\n        /* \"#utility.yul\":4922:4928   */\n      dup3\n        /* \"#utility.yul\":4917:4920   */\n      dup3\n        /* \"#utility.yul\":4910:4929   */\n      mstore\n        /* \"#utility.yul\":4962:4966   */\n      0x20\n        /* \"#utility.yul\":4957:4960   */\n      dup3\n        /* \"#utility.yul\":4953:4967   */\n      add\n        /* \"#utility.yul\":4938:4967   */\n      swap1\n      pop\n        /* \"#utility.yul\":4804:4973   */\n      swap3\n      swap2\n      pop\n      pop\n      jump\t// out\n        /* \"#utility.yul\":4979:5118   */\n    tag_66:\n        /* \"#utility.yul\":5068:5074   */\n      dup3\n        /* \"#utility.yul\":5063:5066   */\n      dup2\n        /* \"#utility.yul\":5058:5061   */\n      dup4\n        /* \"#utility.yul\":5052:5075   */\n      mcopy\n        /* \"#utility.yul\":5109:5110   */\n      0x00\n        /* \"#utility.yul\":5100:5106   */\n      dup4\n        /* \"#utility.yul\":5095:5098   */\n      dup4\n        /* \"#utility.yul\":5091:5107   */\n      add\n        /* \"#utility.yul\":5084:5111   */\n      mstore\n        /* \"#utility.yul\":4979:5118   */\n      pop\n      pop\n      pop\n      jump\t// out\n        /* \"#utility.yul\":5124:5501   */\n    tag_67:\n        /* \"#utility.yul\":5212:5215   */\n      0x00\n        /* \"#utility.yul\":5240:5279   */\n      tag_151\n        /* \"#utility.yul\":5273:5278   */\n      dup3\n        /* \"#utility.yul\":5240:5279   */\n      tag_64\n      jump\t// in\n    tag_151:\n        /* \"#utility.yul\":5295:5366   */\n      tag_152\n        /* \"#utility.yul\":5359:5365   */\n      dup2\n        /* \"#utility.yul\":5354:5357   */\n      dup6\n        /* \"#utility.yul\":5295:5366   */\n      tag_65\n      jump\t// in\n    tag_152:\n        /* \"#utility.yul\":5288:5366   */\n      swap4\n      pop\n        /* \"#utility.yul\":5375:5440   */\n      tag_153\n        /* \"#utility.yul\":5433:5439   */\n      dup2\n        /* \"#utility.yul\":5428:5431   */\n      dup6\n        /* \"#utility.yul\":5421:5425   */\n      0x20\n        /* \"#utility.yul\":5414:5419   */\n      dup7\n        /* \"#utility.yul\":5410:5426   */\n      add\n        /* \"#utility.yul\":5375:5440   */\n      tag_66\n      jump\t// in\n    tag_153:\n        /* \"#utility.yul\":5465:5494   */\n      tag_154\n        /* \"#utility.yul\":5487:5493   */\n      dup2\n        /* \"#utility.yul\":5465:5494   */\n      tag_49\n      jump\t// in\n    tag_154:\n        /* \"#utility.yul\":5460:5463   */\n      dup5\n        /* \"#utility.yul\":5456:5495   */\n      add\n        /* \"#utility.yul\":5449:5495   */\n      swap2\n      pop\n        /* \"#utility.yul\":5216:5501   */\n      pop\n        /* \"#utility.yul\":5124:5501   */\n      swap3\n      swap2\n      pop\n      pop\n      jump\t// out\n        /* \"#utility.yul\":5507:6151   */\n    tag_24:\n        /* \"#utility.yul\":5704:5708   */\n      0x00\n        /* \"#utility.yul\":5742:5745   */\n      0x80\n        /* \"#utility.yul\":5731:5740   */\n      dup3\n        /* \"#utility.yul\":5727:5746   */\n      add\n        /* \"#utility.yul\":5719:5746   */\n      swap1\n      pop\n        /* \"#utility.yul\":5756:5827   */\n      tag_156\n        /* \"#utility.yul\":5824:5825   */\n      0x00\n        /* \"#utility.yul\":5813:5822   */\n      dup4\n        /* \"#utility.yul\":5809:5826   */\n      add\n        /* \"#utility.yul\":5800:5806   */\n      dup8\n        /* \"#utility.yul\":5756:5827   */\n      tag_61\n      jump\t// in\n    tag_156:\n        /* \"#utility.yul\":5874:5883   */\n      dup2\n        /* \"#utility.yul\":5868:5872   */\n      dup2\n        /* \"#utility.yul\":5864:5884   */\n      sub\n        /* \"#utility.yul\":5859:5861   */\n      0x20\n        /* \"#utility.yul\":5848:5857   */\n      dup4\n        /* \"#utility.yul\":5844:5862   */\n      add\n        /* \"#utility.yul\":5837:5885   */\n      mstore\n        /* \"#utility.yul\":5902:5980   */\n      tag_157\n        /* \"#utility.yul\":5975:5979   */\n      dup2\n        /* \"#utility.yul\":5966:5972   */\n      dup7\n        /* \"#utility.yul\":5902:5980   */\n      tag_67\n      jump\t// in\n    tag_157:\n        /* \"#utility.yul\":5894:5980   */\n      swap1\n      pop\n        /* \"#utility.yul\":5990:6062   */\n      tag_158\n        /* \"#utility.yul\":6058:6060   */\n      0x40\n        /* \"#utility.yul\":6047:6056   */\n      dup4\n        /* \"#utility.yul\":6043:6061   */\n      add\n        /* \"#utility.yul\":6034:6040   */\n      dup6\n        /* \"#utility.yul\":5990:6062   */\n      tag_59\n      jump\t// in\n    tag_158:\n        /* \"#utility.yul\":6072:6144   */\n      tag_159\n        /* \"#utility.yul\":6140:6142   */\n      0x60\n        /* \"#utility.yul\":6129:6138   */\n      dup4\n        /* \"#utility.yul\":6125:6143   */\n      add\n        /* \"#utility.yul\":6116:6122   */\n      dup5\n        /* \"#utility.yul\":6072:6144   */\n      tag_61\n      jump\t// in\n    tag_159:\n        /* \"#utility.yul\":5507:6151   */\n      swap6\n      swap5\n      pop\n      pop\n      pop\n      pop\n      pop\n      jump\t// out\n        /* \"#utility.yul\":6157:6247   */\n    tag_68:\n        /* \"#utility.yul\":6191:6198   */\n      0x00\n        /* \"#utility.yul\":6234:6239   */\n      dup2\n        /* \"#utility.yul\":6227:6240   */\n      iszero\n        /* \"#utility.yul\":6220:6241   */\n      iszero\n        /* \"#utility.yul\":6209:6241   */\n      swap1\n      pop\n        /* \"#utility.yul\":6157:6247   */\n      swap2\n      swap1\n      pop\n      jump\t// out\n        /* \"#utility.yul\":6253:6369   */\n    tag_69:\n        /* \"#utility.yul\":6323:6344   */\n      tag_162\n        /* \"#utility.yul\":6338:6343   */\n      dup2\n        /* \"#utility.yul\":6323:6344   */\n      tag_68\n      jump\t// in\n    tag_162:\n        /* \"#utility.yul\":6316:6321   */\n      dup2\n        /* \"#utility.yul\":6313:6345   */\n      eq\n        /* \"#utility.yul\":6303:6363   */\n      tag_163\n      jumpi\n        /* \"#utility.yul\":6359:6360   */\n      0x00\n        /* \"#utility.yul\":6356:6357   */\n      0x00\n        /* \"#utility.yul\":6349:6361   */\n      revert\n        /* \"#utility.yul\":6303:6363   */\n    tag_163:\n        /* \"#utility.yul\":6253:6369   */\n      pop\n      jump\t// out\n        /* \"#utility.yul\":6375:6512   */\n    tag_70:\n        /* \"#utility.yul\":6429:6434   */\n      0x00\n        /* \"#utility.yul\":6460:6466   */\n      dup2\n        /* \"#utility.yul\":6454:6467   */\n      mload\n        /* \"#utility.yul\":6445:6467   */\n      swap1\n      pop\n        /* \"#utility.yul\":6476:6506   */\n      tag_165\n        /* \"#utility.yul\":6500:6505   */\n      dup2\n        /* \"#utility.yul\":6476:6506   */\n      tag_69\n      jump\t// in\n    tag_165:\n        /* \"#utility.yul\":6375:6512   */\n      swap3\n      swap2\n      pop\n      pop\n      jump\t// out\n        /* \"#utility.yul\":6518:6863   */\n    tag_30:\n        /* \"#utility.yul\":6585:6591   */\n      0x00\n        /* \"#utility.yul\":6634:6636   */\n      0x20\n        /* \"#utility.yul\":6622:6631   */\n      dup3\n        /* \"#utility.yul\":6613:6620   */\n      dup5\n        /* \"#utility.yul\":6609:6632   */\n      sub\n        /* \"#utility.yul\":6605:6637   */\n      slt\n        /* \"#utility.yul\":6602:6721   */\n      iszero\n      tag_167\n      jumpi\n        /* \"#utility.yul\":6640:6719   */\n      tag_168\n      tag_45\n      jump\t// in\n    tag_168:\n        /* \"#utility.yul\":6602:6721   */\n    tag_167:\n        /* \"#utility.yul\":6760:6761   */\n      0x00\n        /* \"#utility.yul\":6785:6846   */\n      tag_169\n        /* \"#utility.yul\":6838:6845   */\n      dup5\n        /* \"#utility.yul\":6829:6835   */\n      dup3\n        /* \"#utility.yul\":6818:6827   */\n      dup6\n        /* \"#utility.yul\":6814:6836   */\n      add\n        /* \"#utility.yul\":6785:6846   */\n      tag_70\n      jump\t// in\n    tag_169:\n        /* \"#utility.yul\":6775:6846   */\n      swap2\n      pop\n        /* \"#utility.yul\":6731:6856   */\n      pop\n        /* \"#utility.yul\":6518:6863   */\n      swap3\n      swap2\n      pop\n      pop\n      jump\t// out\n        /* \"#utility.yul\":6869:7050   */\n    tag_71:\n        /* \"#utility.yul\":7009:7042   */\n      0x43616c6c6572206973206e6f74206120726567697374657265642062616e6b00\n        /* \"#utility.yul\":7005:7006   */\n      0x00\n        /* \"#utility.yul\":6997:7003   */\n      dup3\n        /* \"#utility.yul\":6993:7007   */\n      add\n        /* \"#utility.yul\":6986:7043   */\n      mstore\n        /* \"#utility.yul\":6869:7050   */\n      pop\n      jump\t// out\n        /* \"#utility.yul\":7056:7422   */\n    tag_72:\n        /* \"#utility.yul\":7198:7201   */\n      0x00\n        /* \"#utility.yul\":7219:7286   */\n      tag_172\n        /* \"#utility.yul\":7283:7285   */\n      0x1f\n        /* \"#utility.yul\":7278:7281   */\n      dup4\n        /* \"#utility.yul\":7219:7286   */\n      tag_65\n      jump\t// in\n    tag_172:\n        /* \"#utility.yul\":7212:7286   */\n      swap2\n      pop\n        /* \"#utility.yul\":7295:7388   */\n      tag_173\n        /* \"#utility.yul\":7384:7387   */\n      dup3\n        /* \"#utility.yul\":7295:7388   */\n      tag_71\n      jump\t// in\n    tag_173:\n        /* \"#utility.yul\":7413:7415   */\n      0x20\n        /* \"#utility.yul\":7408:7411   */\n      dup3\n        /* \"#utility.yul\":7404:7416   */\n      add\n        /* \"#utility.yul\":7397:7416   */\n      swap1\n      pop\n        /* \"#utility.yul\":7056:7422   */\n      swap2\n      swap1\n      pop\n      jump\t// out\n        /* \"#utility.yul\":7428:7847   */\n    tag_33:\n        /* \"#utility.yul\":7594:7598   */\n      0x00\n        /* \"#utility.yul\":7632:7634   */\n      0x20\n        /* \"#utility.yul\":7621:7630   */\n      dup3\n        /* \"#utility.yul\":7617:7635   */\n      add\n        /* \"#utility.yul\":7609:7635   */\n      swap1\n      pop\n        /* \"#utility.yul\":7681:7690   */\n      dup2\n        /* \"#utility.yul\":7675:7679   */\n      dup2\n        /* \"#utility.yul\":7671:7691   */\n      sub\n        /* \"#utility.yul\":7667:7668   */\n      0x00\n        /* \"#utility.yul\":7656:7665   */\n      dup4\n        /* \"#utility.yul\":7652:7669   */\n      add\n        /* \"#utility.yul\":7645:7692   */\n      mstore\n        /* \"#utility.yul\":7709:7840   */\n      tag_175\n        /* \"#utility.yul\":7835:7839   */\n      dup2\n        /* \"#utility.yul\":7709:7840   */\n      tag_72\n      jump\t// in\n    tag_175:\n        /* \"#utility.yul\":7701:7840   */\n      swap1\n      pop\n        /* \"#utility.yul\":7428:7847   */\n      swap2\n      swap1\n      pop\n      jump\t// out\n        /* \"#utility.yul\":7853:8033   */\n    tag_73:\n        /* \"#utility.yul\":7901:7978   */\n      0x4e487b7100000000000000000000000000000000000000000000000000000000\n        /* \"#utility.yul\":7898:7899   */\n      0x00\n        /* \"#utility.yul\":7891:7979   */\n      mstore\n        /* \"#utility.yul\":7998:8002   */\n      0x11\n        /* \"#utility.yul\":7995:7996   */\n      0x04\n        /* \"#utility.yul\":7988:8003   */\n      mstore\n        /* \"#utility.yul\":8022:8026   */\n      0x24\n        /* \"#utility.yul\":8019:8020   */\n      0x00\n        /* \"#utility.yul\":8012:8027   */\n      revert\n        /* \"#utility.yul\":8039:8272   */\n    tag_35:\n        /* \"#utility.yul\":8078:8081   */\n      0x00\n        /* \"#utility.yul\":8101:8125   */\n      tag_178\n        /* \"#utility.yul\":8119:8124   */\n      dup3\n        /* \"#utility.yul\":8101:8125   */\n      tag_60\n      jump\t// in\n    tag_178:\n        /* \"#utility.yul\":8092:8125   */\n      swap2\n      pop\n        /* \"#utility.yul\":8147:8213   */\n      0xffffffffffffffffffffffffffffffffffffffffffffffffffffffffffffffff\n        /* \"#utility.yul\":8140:8145   */\n      dup3\n        /* \"#utility.yul\":8137:8214   */\n      sub\n        /* \"#utility.yul\":8134:8237   */\n      tag_179\n      jumpi\n        /* \"#utility.yul\":8217:8235   */\n      tag_180\n      tag_73\n      jump\t// in\n    tag_180:\n        /* \"#utility.yul\":8134:8237   */\n    tag_179:\n        /* \"#utility.yul\":8264:8265   */\n      0x01\n        /* \"#utility.yul\":8257:8262   */\n      dup3\n        /* \"#utility.yul\":8253:8266   */\n      add\n        /* \"#utility.yul\":8246:8266   */\n      swap1\n      pop\n        /* \"#utility.yul\":8039:8272   */\n      swap2\n      swap1\n      pop\n      jump\t// out\n        /* \"#utility.yul\":8278:8458   */\n    tag_74:\n        /* \"#utility.yul\":8326:8403   */\n      0x4e487b7100000000000000000000000000000000000000000000000000000000\n        /* \"#utility.yul\":8323:8324   */\n      0x00\n        /* \"#utility.yul\":8316:8404   */\n      mstore\n        /* \"#utility.yul\":8423:8427   */\n      0x22\n        /* \"#utility.yul\":8420:8421   */\n      0x04\n        /* \"#utility.yul\":8413:8428   */\n      mstore\n        /* \"#utility.yul\":8447:8451   */\n      0x24\n        /* \"#utility.yul\":8444:8445   */\n      0x00\n        /* \"#utility.yul\":8437:8452   */\n      revert\n        /* \"#utility.yul\":8464:8784   */\n    tag_39:\n        /* \"#utility.yul\":8508:8514   */\n      0x00\n        /* \"#utility.yul\":8545:8546   */\n      0x02\n        /* \"#utility.yul\":8539:8543   */\n      dup3\n        /* \"#utility.yul\":8535:8547   */\n      div\n        /* \"#utility.yul\":8525:8547   */\n      swap1\n      pop\n        /* \"#utility.yul\":8592:8593   */\n      0x01\n        /* \"#utility.yul\":8586:8590   */\n      dup3\n        /* \"#utility.yul\":8582:8594   */\n      and\n        /* \"#utility.yul\":8613:8631   */\n      dup1\n        /* \"#utility.yul\":8603:8684   */\n      tag_183\n      jumpi\n        /* \"#utility.yul\":8669:8673   */\n      0x7f\n        /* \"#utility.yul\":8661:8667   */\n      dup3\n        /* \"#utility.yul\":8657:8674   */\n      and\n        /* \"#utility.yul\":8647:8674   */\n      swap2\n      pop\n        /* \"#utility.yul\":8603:8684   */\n    tag_183:\n        /* \"#utility.yul\":8731:8733   */\n      0x20\n        /* \"#utility.yul\":8723:8729   */\n      dup3\n        /* \"#utility.yul\":8720:8734   */\n      lt\n        /* \"#utility.yul\":8700:8718   */\n      dup2\n        /* \"#utility.yul\":8697:8735   */\n      sub\n        /* \"#utility.yul\":8694:8778   */\n      tag_184\n      jumpi\n        /* \"#utility.yul\":8750:8768   */\n      tag_185\n      tag_74\n      jump\t// in\n    tag_185:\n        /* \"#utility.yul\":8694:8778   */\n    tag_184:\n        /* \"#utility.yul\":8515:8784   */\n      pop\n        /* \"#utility.yul\":8464:8784   */\n      swap2\n      swap1\n      pop\n      jump\t// out\n        /* \"#utility.yul\":8790:8931   */\n    tag_75:\n        /* \"#utility.yul\":8839:8843   */\n      0x00\n        /* \"#utility.yul\":8862:8865   */\n      dup2\n        /* \"#utility.yul\":8854:8865   */\n      swap1\n      pop\n        /* \"#utility.yul\":8885:8888   */\n      dup2\n        /* \"#utility.yul\":8882:8883   */\n      0x00\n        /* \"#utility.yul\":8875:8889   */\n      mstore\n        /* \"#utility.yul\":8919:8923   */\n      0x20\n        /* \"#utility.yul\":8916:8917   */\n      0x00\n        /* \"#utility.yul\":8906:8924   */\n      keccak256\n        /* \"#utility.yul\":8898:8924   */\n      swap1\n      pop\n        /* \"#utility.yul\":8790:8931   */\n      swap2\n      swap1\n      pop\n      jump\t// out\n        /* \"#utility.yul\":8937:9030   */\n    tag_76:\n        /* \"#utility.yul\":8974:8980   */\n      0x00\n        /* \"#utility.yul\":9021:9023   */\n      0x20\n        /* \"#utility.yul\":9016:9018   */\n      0x1f\n        /* \"#utility.yul\":9009:9014   */\n      dup4\n        /* \"#utility.yul\":9005:9019   */\n      add\n        /* \"#utility.yul\":9001:9024   */\n      div\n        /* \"#utility.yul\":8991:9024   */\n      swap1\n      pop\n        /* \"#utility.yul\":8937:9030   */\n      swap2\n      swap1\n      pop\n      jump\t// out\n        /* \"#utility.yul\":9036:9143   */\n    tag_77:\n        /* \"#utility.yul\":9080:9088   */\n      0x00\n        /* \"#utility.yul\":9130:9135   */\n      dup3\n        /* \"#utility.yul\":9124:9128   */\n      dup3\n        /* \"#utility.yul\":9120:9136   */\n      shl\n        /* \"#utility.yul\":9099:9136   */\n      swap1\n      pop\n        /* \"#utility.yul\":9036:9143   */\n      swap3\n      swap2\n      pop\n      pop\n      jump\t// out\n        /* \"#utility.yul\":9149:9542   */\n    tag_78:\n        /* \"#utility.yul\":9218:9224   */\n      0x00\n        /* \"#utility.yul\":9268:9269   */\n      0x08\n        /* \"#utility.yul\":9256:9266   */\n      dup4\n        /* \"#utility.yul\":9252:9270   */\n      mul\n        /* \"#utility.yul\":9291:9388   */\n      tag_190\n        /* \"#utility.yul\":9321:9387   */\n      0xffffffffffffffffffffffffffffffffffffffffffffffffffffffffffffffff\n        /* \"#utility.yul\":9310:9319   */\n      dup3\n        /* \"#utility.yul\":9291:9388   */\n      tag_77\n      jump\t// in\n    tag_190:\n        /* \"#utility.yul\":9409:9448   */\n      tag_191\n        /* \"#utility.yul\":9439:9447   */\n      dup7\n        /* \"#utility.yul\":9428:9437   */\n      dup4\n        /* \"#utility.yul\":9409:9448   */\n      tag_77\n      jump\t// in\n    tag_191:\n        /* \"#utility.yul\":9397:9448   */\n      swap6\n      pop\n        /* \"#utility.yul\":9481:9485   */\n      dup1\n        /* \"#utility.yul\":9477:9486   */\n      not\n        /* \"#utility.yul\":9470:9475   */\n      dup5\n        /* \"#utility.yul\":9466:9487   */\n      and\n        /* \"#utility.yul\":9457:9487   */\n      swap4\n      pop\n        /* \"#utility.yul\":9530:9534   */\n      dup1\n        /* \"#utility.yul\":9520:9528   */\n      dup7\n        /* \"#utility.yul\":9516:9535   */\n      and\n        /* \"#utility.yul\":9509:9514   */\n      dup5\n        /* \"#utility.yul\":9506:9536   */\n      or\n        /* \"#utility.yul\":9496:9536   */\n      swap3\n      pop\n        /* \"#utility.yul\":9225:9542   */\n      pop\n      pop\n        /* \"#utility.yul\":9149:9542   */\n      swap4\n      swap3\n      pop\n      pop\n      pop\n      jump\t// out\n        /* \"#utility.yul\":9548:9608   */\n    tag_79:\n        /* \"#utility.yul\":9576:9579   */\n      0x00\n        /* \"#utility.yul\":9597:9602   */\n      dup2\n        /* \"#utility.yul\":9590:9602   */\n      swap1\n      pop\n        /* \"#utility.yul\":9548:9608   */\n      swap2\n      swap1\n      pop\n      jump\t// out\n        /* \"#utility.yul\":9614:9756   */\n    tag_80:\n        /* \"#utility.yul\":9664:9673   */\n      0x00\n        /* \"#utility.yul\":9697:9750   */\n      tag_194\n        /* \"#utility.yul\":9715:9749   */\n      tag_195\n        /* \"#utility.yul\":9724:9748   */\n      tag_196\n        /* \"#utility.yul\":9742:9747   */\n      dup5\n        /* \"#utility.yul\":9724:9748   */\n      tag_60\n      jump\t// in\n    tag_196:\n        /* \"#utility.yul\":9715:9749   */\n      tag_79\n      jump\t// in\n    tag_195:\n        /* \"#utility.yul\":9697:9750   */\n      tag_60\n      jump\t// in\n    tag_194:\n        /* \"#utility.yul\":9684:9750   */\n      swap1\n      pop\n        /* \"#utility.yul\":9614:9756   */\n      swap2\n      swap1\n      pop\n      jump\t// out\n        /* \"#utility.yul\":9762:9837   */\n    tag_81:\n        /* \"#utility.yul\":9805:9808   */\n      0x00\n        /* \"#utility.yul\":9826:9831   */\n      dup2\n        /* \"#utility.yul\":9819:9831   */\n      swap1\n      pop\n        /* \"#utility.yul\":9762:9837   */\n      swap2\n      swap1\n      pop\n      jump\t// out\n        /* \"#utility.yul\":9843:10112   */\n    tag_82:\n        /* \"#utility.yul\":9953:9992   */\n      tag_199\n        /* \"#utility.yul\":9984:9991   */\n      dup4\n        /* \"#utility.yul\":9953:9992   */\n      tag_80\n      jump\t// in\n    tag_199:\n        /* \"#utility.yul\":10014:10105   */\n      tag_200\n        /* \"#utility.yul\":10063:10104   */\n      tag_201\n        /* \"#utility.yul\":10087:10103   */\n      dup3\n        /* \"#utility.yul\":10063:10104   */\n      tag_81\n      jump\t// in\n    tag_201:\n        /* \"#utility.yul\":10055:10061   */\n      dup5\n        /* \"#utility.yul\":10048:10052   */\n      dup5\n        /* \"#utility.yul\":10042:10053   */\n      sload\n        /* \"#utility.yul\":10014:10105   */\n      tag_78\n      jump\t// in\n    tag_200:\n        /* \"#utility.yul\":10008:10012   */\n      dup3\n        /* \"#utility.yul\":10001:10106   */\n      sstore\n        /* \"#utility.yul\":9919:10112   */\n      pop\n        /* \"#utility.yul\":9843:10112   */\n      pop\n      pop\n      pop\n      jump\t// out\n        /* \"#utility.yul\":10118:10191   */\n    tag_83:\n        /* \"#utility.yul\":10163:10166   */\n      0x00\n        /* \"#utility.yul\":10184:10185   */\n      0x00\n        /* \"#utility.yul\":10177:10185   */\n      swap1\n      pop\n        /* \"#utility.yul\":10118:10191   */\n      swap1\n      jump\t// out\n        /* \"#utility.yul\":10197:10386   */\n    tag_84:\n        /* \"#utility.yul\":10274:10306   */\n      tag_204\n      tag_83\n      jump\t// in\n    tag_204:\n        /* \"#utility.yul\":10315:10380   */\n      tag_205\n        /* \"#utility.yul\":10373:10379   */\n      dup2\n        /* \"#utility.yul\":10365:10371   */\n      dup5\n        /* \"#utility.yul\":10359:10363   */\n      dup5\n        /* \"#utility.yul\":10315:10380   */\n      tag_82\n      jump\t// in\n    tag_205:\n        /* \"#utility.yul\":10250:10386   */\n      pop\n        /* \"#utility.yul\":10197:10386   */\n      pop\n      pop\n      jump\t// out\n        /* \"#utility.yul\":10392:10578   */\n    tag_85:\n        /* \"#utility.yul\":10452:10572   */\n    tag_207:\n        /* \"#utility.yul\":10469:10472   */\n      dup2\n        /* \"#utility.yul\":10462:10467   */\n      dup2\n        /* \"#utility.yul\":10459:10473   */\n      lt\n        /* \"#utility.yul\":10452:10572   */\n      iszero\n      tag_209\n      jumpi\n        /* \"#utility.yul\":10523:10562   */\n      tag_210\n        /* \"#utility.yul\":10560:10561   */\n      0x00\n        /* \"#utility.yul\":10553:10558   */\n      dup3\n        /* \"#utility.yul\":10523:10562   */\n      tag_84\n      jump\t// in\n    tag_210:\n        /* \"#utility.yul\":10496:10497   */\n      0x01\n        /* \"#utility.yul\":10489:10494   */\n      dup2\n        /* \"#utility.yul\":10485:10498   */\n      add\n        /* \"#utility.yul\":10476:10498   */\n      swap1\n      pop\n        /* \"#utility.yul\":10452:10572   */\n      jump(tag_207)\n    tag_209:\n        /* \"#utility.yul\":10392:10578   */\n      pop\n      pop\n      jump\t// out\n        /* \"#utility.yul\":10584:11127   */\n    tag_86:\n        /* \"#utility.yul\":10685:10687   */\n      0x1f\n        /* \"#utility.yul\":10680:10683   */\n      dup3\n        /* \"#utility.yul\":10677:10688   */\n      gt\n        /* \"#utility.yul\":10674:11120   */\n      iszero\n      tag_212\n      jumpi\n        /* \"#utility.yul\":10719:10757   */\n      tag_213\n        /* \"#utility.yul\":10751:10756   */\n      dup2\n        /* \"#utility.yul\":10719:10757   */\n      tag_75\n      jump\t// in\n    tag_213:\n        /* \"#utility.yul\":10803:10832   */\n      tag_214\n        /* \"#utility.yul\":10821:10831   */\n      dup5\n        /* \"#utility.yul\":10803:10832   */\n      tag_76\n      jump\t// in\n    tag_214:\n        /* \"#utility.yul\":10793:10801   */\n      dup2\n        /* \"#utility.yul\":10789:10833   */\n      add\n        /* \"#utility.yul\":10986:10988   */\n      0x20\n        /* \"#utility.yul\":10974:10984   */\n      dup6\n        /* \"#utility.yul\":10971:10989   */\n      lt\n        /* \"#utility.yul\":10968:11017   */\n      iszero\n      tag_215\n      jumpi\n        /* \"#utility.yul\":11007:11015   */\n      dup2\n        /* \"#utility.yul\":10992:11015   */\n      swap1\n      pop\n        /* \"#utility.yul\":10968:11017   */\n    tag_215:\n        /* \"#utility.yul\":11030:11110   */\n      tag_216\n        /* \"#utility.yul\":11086:11108   */\n      tag_217\n        /* \"#utility.yul\":11104:11107   */\n      dup6\n        /* \"#utility.yul\":11086:11108   */\n      tag_76\n      jump\t// in\n    tag_217:\n        /* \"#utility.yul\":11076:11084   */\n      dup4\n        /* \"#utility.yul\":11072:11109   */\n      add\n        /* \"#utility.yul\":11059:11070   */\n      dup3\n        /* \"#utility.yul\":11030:11110   */\n      tag_85\n      jump\t// in\n    tag_216:\n        /* \"#utility.yul\":10689:11120   */\n      pop\n      pop\n        /* \"#utility.yul\":10674:11120   */\n    tag_212:\n        /* \"#utility.yul\":10584:11127   */\n      pop\n      pop\n      pop\n      jump\t// out\n        /* \"#utility.yul\":11133:11250   */\n    tag_87:\n        /* \"#utility.yul\":11187:11195   */\n      0x00\n        /* \"#utility.yul\":11237:11242   */\n      dup3\n        /* \"#utility.yul\":11231:11235   */\n      dup3\n        /* \"#utility.yul\":11227:11243   */\n      shr\n        /* \"#utility.yul\":11206:11243   */\n      swap1\n      pop\n        /* \"#utility.yul\":11133:11250   */\n      swap3\n      swap2\n      pop\n      pop\n      jump\t// out\n        /* \"#utility.yul\":11256:11425   */\n    tag_88:\n        /* \"#utility.yul\":11300:11306   */\n      0x00\n        /* \"#utility.yul\":11333:11384   */\n      tag_220\n        /* \"#utility.yul\":11381:11382   */\n      0x00\n        /* \"#utility.yul\":11377:11383   */\n      not\n        /* \"#utility.yul\":11369:11374   */\n      dup5\n        /* \"#utility.yul\":11366:11367   */\n      0x08\n        /* \"#utility.yul\":11362:11375   */\n      mul\n        /* \"#utility.yul\":11333:11384   */\n      tag_87\n      jump\t// in\n    tag_220:\n        /* \"#utility.yul\":11329:11385   */\n      not\n        /* \"#utility.yul\":11414:11418   */\n      dup1\n        /* \"#utility.yul\":11408:11412   */\n      dup4\n        /* \"#utility.yul\":11404:11419   */\n      and\n        /* \"#utility.yul\":11394:11419   */\n      swap2\n      pop\n        /* \"#utility.yul\":11307:11425   */\n      pop\n        /* \"#utility.yul\":11256:11425   */\n      swap3\n      swap2\n      pop\n      pop\n      jump\t// out\n        /* \"#utility.yul\":11430:11725   */\n    tag_89:\n        /* \"#utility.yul\":11506:11510   */\n      0x00\n        /* \"#utility.yul\":11652:11681   */\n      tag_222\n        /* \"#utility.yul\":11677:11680   */\n      dup4\n        /* \"#utility.yul\":11671:11675   */\n      dup4\n        /* \"#utility.yul\":11652:11681   */\n      tag_88\n      jump\t// in\n    tag_222:\n        /* \"#utility.yul\":11644:11681   */\n      swap2\n      pop\n        /* \"#utility.yul\":11714:11717   */\n      dup3\n        /* \"#utility.yul\":11711:11712   */\n      0x02\n        /* \"#utility.yul\":11707:11718   */\n      mul\n        /* \"#utility.yul\":11701:11705   */\n      dup3\n        /* \"#utility.yul\":11698:11719   */\n      or\n        /* \"#utility.yul\":11690:11719   */\n      swap1\n      pop\n        /* \"#utility.yul\":11430:11725   */\n      swap3\n      swap2\n      pop\n      pop\n      jump\t// out\n        /* \"#utility.yul\":11730:13125   */\n    tag_37:\n        /* \"#utility.yul\":11847:11884   */\n      tag_224\n        /* \"#utility.yul\":11880:11883   */\n      dup3\n        /* \"#utility.yul\":11847:11884   */\n      tag_64\n      jump\t// in\n    tag_224:\n        /* \"#utility.yul\":11949:11967   */\n      0xffffffffffffffff\n        /* \"#utility.yul\":11941:11947   */\n      dup2\n        /* \"#utility.yul\":11938:11968   */\n      gt\n        /* \"#utility.yul\":11935:11991   */\n      iszero\n      tag_225\n      jumpi\n        /* \"#utility.yul\":11971:11989   */\n      tag_226\n      tag_50\n      jump\t// in\n    tag_226:\n        /* \"#utility.yul\":11935:11991   */\n    tag_225:\n        /* \"#utility.yul\":12015:12053   */\n      tag_227\n        /* \"#utility.yul\":12047:12051   */\n      dup3\n        /* \"#utility.yul\":12041:12052   */\n      sload\n        /* \"#utility.yul\":12015:12053   */\n      tag_39\n      jump\t// in\n    tag_227:\n        /* \"#utility.yul\":12100:12167   */\n      tag_228\n        /* \"#utility.yul\":12160:12166   */\n      dup3\n        /* \"#utility.yul\":12152:12158   */\n      dup3\n        /* \"#utility.yul\":12146:12150   */\n      dup6\n        /* \"#utility.yul\":12100:12167   */\n      tag_86\n      jump\t// in\n    tag_228:\n        /* \"#utility.yul\":12194:12195   */\n      0x00\n        /* \"#utility.yul\":12218:12222   */\n      0x20\n        /* \"#utility.yul\":12205:12222   */\n      swap1\n      pop\n        /* \"#utility.yul\":12250:12252   */\n      0x1f\n        /* \"#utility.yul\":12242:12248   */\n      dup4\n        /* \"#utility.yul\":12239:12253   */\n      gt\n        /* \"#utility.yul\":12267:12268   */\n      0x01\n        /* \"#utility.yul\":12262:12880   */\n      dup2\n      eq\n      tag_230\n      jumpi\n        /* \"#utility.yul\":12924:12925   */\n      0x00\n        /* \"#utility.yul\":12941:12947   */\n      dup5\n        /* \"#utility.yul\":12938:13015   */\n      iszero\n      tag_231\n      jumpi\n        /* \"#utility.yul\":12990:12999   */\n      dup3\n        /* \"#utility.yul\":12985:12988   */\n      dup8\n        /* \"#utility.yul\":12981:13000   */\n      add\n        /* \"#utility.yul\":12975:13001   */\n      mload\n        /* \"#utility.yul\":12966:13001   */\n      swap1\n      pop\n        /* \"#utility.yul\":12938:13015   */\n    tag_231:\n        /* \"#utility.yul\":13041:13108   */\n      tag_232\n        /* \"#utility.yul\":13101:13107   */\n      dup6\n        /* \"#utility.yul\":13094:13099   */\n      dup3\n        /* \"#utility.yul\":13041:13108   */\n      tag_89\n      jump\t// in\n    tag_232:\n        /* \"#utility.yul\":13035:13039   */\n      dup7\n        /* \"#utility.yul\":13028:13109   */\n      sstore\n        /* \"#utility.yul\":12897:13119   */\n      pop\n        /* \"#utility.yul\":12232:13119   */\n      jump(tag_229)\n        /* \"#utility.yul\":12262:12880   */\n    tag_230:\n        /* \"#utility.yul\":12314:12318   */\n      0x1f\n        /* \"#utility.yul\":12310:12319   */\n      not\n        /* \"#utility.yul\":12302:12308   */\n      dup5\n        /* \"#utility.yul\":12298:12320   */\n      and\n        /* \"#utility.yul\":12348:12385   */\n      tag_233\n        /* \"#utility.yul\":12380:12384   */\n      dup7\n        /* \"#utility.yul\":12348:12385   */\n      tag_75\n      jump\t// in\n    tag_233:\n        /* \"#utility.yul\":12407:12408   */\n      0x00\n        /* \"#utility.yul\":12421:12629   */\n    tag_234:\n        /* \"#utility.yul\":12435:12442   */\n      dup3\n        /* \"#utility.yul\":12432:12433   */\n      dup2\n        /* \"#utility.yul\":12429:12443   */\n      lt\n        /* \"#utility.yul\":12421:12629   */\n      iszero\n      tag_236\n      jumpi\n        /* \"#utility.yul\":12514:12523   */\n      dup5\n        /* \"#utility.yul\":12509:12512   */\n      dup10\n        /* \"#utility.yul\":12505:12524   */\n      add\n        /* \"#utility.yul\":12499:12525   */\n      mload\n        /* \"#utility.yul\":12491:12497   */\n      dup3\n        /* \"#utility.yul\":12484:12526   */\n      sstore\n        /* \"#utility.yul\":12565:12566   */\n      0x01\n        /* \"#utility.yul\":12557:12563   */\n      dup3\n        /* \"#utility.yul\":12553:12567   */\n      add\n        /* \"#utility.yul\":12543:12567   */\n      swap2\n      pop\n        /* \"#utility.yul\":12612:12614   */\n      0x20\n        /* \"#utility.yul\":12601:12610   */\n      dup6\n        /* \"#utility.yul\":12597:12615   */\n      add\n        /* \"#utility.yul\":12584:12615   */\n      swap5\n      pop\n        /* \"#utility.yul\":12458:12462   */\n      0x20\n        /* \"#utility.yul\":12455:12456   */\n      dup2\n        /* \"#utility.yul\":12451:12463   */\n      add\n        /* \"#utility.yul\":12446:12463   */\n      swap1\n      pop\n        /* \"#utility.yul\":12421:12629   */\n      jump(tag_234)\n    tag_236:\n        /* \"#utility.yul\":12657:12663   */\n      dup7\n        /* \"#utility.yul\":12648:12655   */\n      dup4\n        /* \"#utility.yul\":12645:12664   */\n      lt\n        /* \"#utility.yul\":12642:12821   */\n      iszero\n      tag_237\n      jumpi\n        /* \"#utility.yul\":12715:12724   */\n      dup5\n        /* \"#utility.yul\":12710:12713   */\n      dup10\n        /* \"#utility.yul\":12706:12725   */\n      add\n        /* \"#utility.yul\":12700:12726   */\n      mload\n        /* \"#utility.yul\":12758:12806   */\n      tag_238\n        /* \"#utility.yul\":12800:12804   */\n      0x1f\n        /* \"#utility.yul\":12792:12798   */\n      dup10\n        /* \"#utility.yul\":12788:12805   */\n      and\n        /* \"#utility.yul\":12777:12786   */\n      dup3\n        /* \"#utility.yul\":12758:12806   */\n      tag_88\n      jump\t// in\n    tag_238:\n        /* \"#utility.yul\":12750:12756   */\n      dup4\n        /* \"#utility.yul\":12743:12807   */\n      sstore\n        /* \"#utility.yul\":12665:12821   */\n      pop\n        /* \"#utility.yul\":12642:12821   */\n    tag_237:\n        /* \"#utility.yul\":12867:12868   */\n      0x01\n        /* \"#utility.yul\":12863:12864   */\n      0x02\n        /* \"#utility.yul\":12855:12861   */\n      dup9\n        /* \"#utility.yul\":12851:12865   */\n      mul\n        /* \"#utility.yul\":12847:12869   */\n      add\n        /* \"#utility.yul\":12841:12845   */\n      dup9\n        /* \"#utility.yul\":12834:12870   */\n      sstore\n        /* \"#utility.yul\":12269:12880   */\n      pop\n      pop\n      pop\n        /* \"#utility.yul\":12232:13119   */\n    tag_229:\n      pop\n        /* \"#utility.yul\":11822:13125   */\n      pop\n      pop\n      pop\n        /* \"#utility.yul\":11730:13125   */\n      pop\n      pop\n      jump\t// out\n\n    auxdata: 0xa2646970667358221220aeaab05ae98c24229554eb94e4cc3f1e5c7747f0b76c3f629be770f9ecda987c64736f6c634300081e0033\n}\n",
				"bytecode": {
					"linkReferences": {},
					"object": "608060405234801561000f575f5ffd5b50604051610d14380380610d1483398181016040528101906100319190610142565b5f73ffffffffffffffffffffffffffffffffffffffff168173ffffffffffffffffffffffffffffffffffffffff160361009f576040517f08c379a0000000000000000000000000000000000000000000000000000000008152600401610096906101c7565b60405180910390fd5b805f5f6101000a81548173ffffffffffffffffffffffffffffffffffffffff021916908373ffffffffffffffffffffffffffffffffffffffff160217905550506101e5565b5f5ffd5b5f73ffffffffffffffffffffffffffffffffffffffff82169050919050565b5f610111826100e8565b9050919050565b61012181610107565b811461012b575f5ffd5b50565b5f8151905061013c81610118565b92915050565b5f60208284031215610157576101566100e4565b5b5f6101648482850161012e565b91505092915050565b5f82825260208201905092915050565b7f496e76616c6964207265676973747279206164647265737300000000000000005f82015250565b5f6101b160188361016d565b91506101bc8261017d565b602082019050919050565b5f6020820190508181035f8301526101de816101a5565b9050919050565b610b22806101f25f395ff3fe608060405234801561000f575f5ffd5b506004361061004a575f3560e01c8063635ac1ed1461004e578063669d55211461006a578063b9bc38f214610088578063c942adf7146100a6575b5f5ffd5b61006860048036038101906100639190610515565b6100d9565b005b6100726102cd565b60405161007f919061059b565b60405180910390f35b6100906102f1565b60405161009d91906105cc565b60405180910390f35b6100c060048036038101906100bb919061060f565b6102f7565b6040516100d0949392919061069a565b60405180910390f35b5f5f9054906101000a900473ffffffffffffffffffffffffffffffffffffffff1673ffffffffffffffffffffffffffffffffffffffff166309853a2f336040518263ffffffff1660e01b8152600401610132919061059b565b602060405180830381865afa15801561014d573d5f5f3e3d5ffd5b505050506040513d601f19601f820116820180604052508101906101719190610719565b6101b0576040517f08c379a00000000000000000000000000000000000000000000000000000000081526004016101a79061078e565b60405180910390fd5b60025f8154809291906101c2906107d9565b9190505550604051806080016040528060025481526020018281526020013373ffffffffffffffffffffffffffffffffffffffff1681526020014281525060015f60025481526020019081526020015f205f820151815f015560208201518160010190816102309190610a1d565b506040820151816002015f6101000a81548173ffffffffffffffffffffffffffffffffffffffff021916908373ffffffffffffffffffffffffffffffffffffffff160217905550606082015181600301559050503373ffffffffffffffffffffffffffffffffffffffff166002547ffe73cf9b793e65d9d707a5bfe3063e5f3a58eb52b27a356478c30fc83f5200f260405160405180910390a350565b5f5f9054906101000a900473ffffffffffffffffffffffffffffffffffffffff1681565b60025481565b6001602052805f5260405f205f91509050805f01549080600101805461031c9061084d565b80601f01602080910402602001604051908101604052809291908181526020018280546103489061084d565b80156103935780601f1061036a57610100808354040283529160200191610393565b820191905f5260205f20905b81548152906001019060200180831161037657829003601f168201915b505050505090806002015f9054906101000a900473ffffffffffffffffffffffffffffffffffffffff16908060030154905084565b5f604051905090565b5f5ffd5b5f5ffd5b5f5ffd5b5f5ffd5b5f601f19601f8301169050919050565b7f4e487b71000000000000000000000000000000000000000000000000000000005f52604160045260245ffd5b610427826103e1565b810181811067ffffffffffffffff82111715610446576104456103f1565b5b80604052505050565b5f6104586103c8565b9050610464828261041e565b919050565b5f67ffffffffffffffff821115610483576104826103f1565b5b61048c826103e1565b9050602081019050919050565b828183375f83830152505050565b5f6104b96104b484610469565b61044f565b9050828152602081018484840111156104d5576104d46103dd565b5b6104e0848285610499565b509392505050565b5f82601f8301126104fc576104fb6103d9565b5b813561050c8482602086016104a7565b91505092915050565b5f6020828403121561052a576105296103d1565b5b5f82013567ffffffffffffffff811115610547576105466103d5565b5b610553848285016104e8565b91505092915050565b5f73ffffffffffffffffffffffffffffffffffffffff82169050919050565b5f6105858261055c565b9050919050565b6105958161057b565b82525050565b5f6020820190506105ae5f83018461058c565b92915050565b5f819050919050565b6105c6816105b4565b82525050565b5f6020820190506105df5f8301846105bd565b92915050565b6105ee816105b4565b81146105f8575f5ffd5b50565b5f81359050610609816105e5565b92915050565b5f60208284031215610624576106236103d1565b5b5f610631848285016105fb565b91505092915050565b5f81519050919050565b5f82825260208201905092915050565b8281835e5f83830152505050565b5f61066c8261063a565b6106768185610644565b9350610686818560208601610654565b61068f816103e1565b840191505092915050565b5f6080820190506106ad5f8301876105bd565b81810360208301526106bf8186610662565b90506106ce604083018561058c565b6106db60608301846105bd565b95945050505050565b5f8115159050919050565b6106f8816106e4565b8114610702575f5ffd5b50565b5f81519050610713816106ef565b92915050565b5f6020828403121561072e5761072d6103d1565b5b5f61073b84828501610705565b91505092915050565b7f43616c6c6572206973206e6f74206120726567697374657265642062616e6b005f82015250565b5f610778601f83610644565b915061078382610744565b602082019050919050565b5f6020820190508181035f8301526107a58161076c565b9050919050565b7f4e487b71000000000000000000000000000000000000000000000000000000005f52601160045260245ffd5b5f6107e3826105b4565b91507fffffffffffffffffffffffffffffffffffffffffffffffffffffffffffffffff8203610815576108146107ac565b5b600182019050919050565b7f4e487b71000000000000000000000000000000000000000000000000000000005f52602260045260245ffd5b5f600282049050600182168061086457607f821691505b60208210810361087757610876610820565b5b50919050565b5f819050815f5260205f209050919050565b5f6020601f8301049050919050565b5f82821b905092915050565b5f600883026108d97fffffffffffffffffffffffffffffffffffffffffffffffffffffffffffffffff8261089e565b6108e3868361089e565b95508019841693508086168417925050509392505050565b5f819050919050565b5f61091e610919610914846105b4565b6108fb565b6105b4565b9050919050565b5f819050919050565b61093783610904565b61094b61094382610925565b8484546108aa565b825550505050565b5f5f905090565b610962610953565b61096d81848461092e565b505050565b5b81811015610990576109855f8261095a565b600181019050610973565b5050565b601f8211156109d5576109a68161087d565b6109af8461088f565b810160208510156109be578190505b6109d26109ca8561088f565b830182610972565b50505b505050565b5f82821c905092915050565b5f6109f55f19846008026109da565b1980831691505092915050565b5f610a0d83836109e6565b9150826002028217905092915050565b610a268261063a565b67ffffffffffffffff811115610a3f57610a3e6103f1565b5b610a49825461084d565b610a54828285610994565b5f60209050601f831160018114610a85575f8415610a73578287015190505b610a7d8582610a02565b865550610ae4565b601f198416610a938661087d565b5f5b82811015610aba57848901518255600182019150602085019450602081019050610a95565b86831015610ad75784890151610ad3601f8916826109e6565b8355505b6001600288020188555050505b50505050505056fea2646970667358221220aeaab05ae98c24229554eb94e4cc3f1e5c7747f0b76c3f629be770f9ecda987c64736f6c634300081e0033",
					"opcodes": "PUSH1 0x80 PUSH1 0x40 MSTORE CALLVALUE DUP1 ISZERO PUSH2 0xF JUMPI PUSH0 PUSH0 REVERT JUMPDEST POP PUSH1 0x40 MLOAD PUSH2 0xD14 CODESIZE SUB DUP1 PUSH2 0xD14 DUP4 CODECOPY DUP2 DUP2 ADD PUSH1 0x40 MSTORE DUP2 ADD SWAP1 PUSH2 0x31 SWAP2 SWAP1 PUSH2 0x142 JUMP JUMPDEST PUSH0 PUSH20 0xFFFFFFFFFFFFFFFFFFFFFFFFFFFFFFFFFFFFFFFF AND DUP2 PUSH20 0xFFFFFFFFFFFFFFFFFFFFFFFFFFFFFFFFFFFFFFFF AND SUB PUSH2 0x9F JUMPI PUSH1 0x40 MLOAD PUSH32 0x8C379A000000000000000000000000000000000000000000000000000000000 DUP2 MSTORE PUSH1 0x4 ADD PUSH2 0x96 SWAP1 PUSH2 0x1C7 JUMP JUMPDEST PUSH1 0x40 MLOAD DUP1 SWAP2 SUB SWAP1 REVERT JUMPDEST DUP1 PUSH0 PUSH0 PUSH2 0x100 EXP DUP2 SLOAD DUP2 PUSH20 0xFFFFFFFFFFFFFFFFFFFFFFFFFFFFFFFFFFFFFFFF MUL NOT AND SWAP1 DUP4 PUSH20 0xFFFFFFFFFFFFFFFFFFFFFFFFFFFFFFFFFFFFFFFF AND MUL OR SWAP1 SSTORE POP POP PUSH2 0x1E5 JUMP JUMPDEST PUSH0 PUSH0 REVERT JUMPDEST PUSH0 PUSH20 0xFFFFFFFFFFFFFFFFFFFFFFFFFFFFFFFFFFFFFFFF DUP3 AND SWAP1 POP SWAP2 SWAP1 POP JUMP JUMPDEST PUSH0 PUSH2 0x111 DUP3 PUSH2 0xE8 JUMP JUMPDEST SWAP1 POP SWAP2 SWAP1 POP JUMP JUMPDEST PUSH2 0x121 DUP2 PUSH2 0x107 JUMP JUMPDEST DUP2 EQ PUSH2 0x12B JUMPI PUSH0 PUSH0 REVERT JUMPDEST POP JUMP JUMPDEST PUSH0 DUP2 MLOAD SWAP1 POP PUSH2 0x13C DUP2 PUSH2 0x118 JUMP JUMPDEST SWAP3 SWAP2 POP POP JUMP JUMPDEST PUSH0 PUSH1 0x20 DUP3 DUP5 SUB SLT ISZERO PUSH2 0x157 JUMPI PUSH2 0x156 PUSH2 0xE4 JUMP JUMPDEST JUMPDEST PUSH0 PUSH2 0x164 DUP5 DUP3 DUP6 ADD PUSH2 0x12E JUMP JUMPDEST SWAP2 POP POP SWAP3 SWAP2 POP POP JUMP JUMPDEST PUSH0 DUP3 DUP3 MSTORE PUSH1 0x20 DUP3 ADD SWAP1 POP SWAP3 SWAP2 POP POP JUMP JUMPDEST PUSH32 0x496E76616C696420726567697374727920616464726573730000000000000000 PUSH0 DUP3 ADD MSTORE POP JUMP JUMPDEST PUSH0 PUSH2 0x1B1 PUSH1 0x18 DUP4 PUSH2 0x16D JUMP JUMPDEST SWAP2 POP PUSH2 0x1BC DUP3 PUSH2 0x17D JUMP JUMPDEST PUSH1 0x20 DUP3 ADD SWAP1 POP SWAP2 SWAP1 POP JUMP JUMPDEST PUSH0 PUSH1 0x20 DUP3 ADD SWAP1 POP DUP2 DUP2 SUB PUSH0 DUP4 ADD MSTORE PUSH2 0x1DE DUP2 PUSH2 0x1A5 JUMP JUMPDEST SWAP1 POP SWAP2 SWAP1 POP JUMP JUMPDEST PUSH2 0xB22 DUP1 PUSH2 0x1F2 PUSH0 CODECOPY PUSH0 RETURN INVALID PUSH1 0x80 PUSH1 0x40 MSTORE CALLVALUE DUP1 ISZERO PUSH2 0xF JUMPI PUSH0 PUSH0 REVERT JUMPDEST POP PUSH1 0x4 CALLDATASIZE LT PUSH2 0x4A JUMPI PUSH0 CALLDATALOAD PUSH1 0xE0 SHR DUP1 PUSH4 0x635AC1ED EQ PUSH2 0x4E JUMPI DUP1 PUSH4 0x669D5521 EQ PUSH2 0x6A JUMPI DUP1 PUSH4 0xB9BC38F2 EQ PUSH2 0x88 JUMPI DUP1 PUSH4 0xC942ADF7 EQ PUSH2 0xA6 JUMPI JUMPDEST PUSH0 PUSH0 REVERT JUMPDEST PUSH2 0x68 PUSH1 0x4 DUP1 CALLDATASIZE SUB DUP2 ADD SWAP1 PUSH2 0x63 SWAP2 SWAP1 PUSH2 0x515 JUMP JUMPDEST PUSH2 0xD9 JUMP JUMPDEST STOP JUMPDEST PUSH2 0x72 PUSH2 0x2CD JUMP JUMPDEST PUSH1 0x40 MLOAD PUSH2 0x7F SWAP2 SWAP1 PUSH2 0x59B JUMP JUMPDEST PUSH1 0x40 MLOAD DUP1 SWAP2 SUB SWAP1 RETURN JUMPDEST PUSH2 0x90 PUSH2 0x2F1 JUMP JUMPDEST PUSH1 0x40 MLOAD PUSH2 0x9D SWAP2 SWAP1 PUSH2 0x5CC JUMP JUMPDEST PUSH1 0x40 MLOAD DUP1 SWAP2 SUB SWAP1 RETURN JUMPDEST PUSH2 0xC0 PUSH1 0x4 DUP1 CALLDATASIZE SUB DUP2 ADD SWAP1 PUSH2 0xBB SWAP2 SWAP1 PUSH2 0x60F JUMP JUMPDEST PUSH2 0x2F7 JUMP JUMPDEST PUSH1 0x40 MLOAD PUSH2 0xD0 SWAP5 SWAP4 SWAP3 SWAP2 SWAP1 PUSH2 0x69A JUMP JUMPDEST PUSH1 0x40 MLOAD DUP1 SWAP2 SUB SWAP1 RETURN JUMPDEST PUSH0 PUSH0 SWAP1 SLOAD SWAP1 PUSH2 0x100 EXP SWAP1 DIV PUSH20 0xFFFFFFFFFFFFFFFFFFFFFFFFFFFFFFFFFFFFFFFF AND PUSH20 0xFFFFFFFFFFFFFFFFFFFFFFFFFFFFFFFFFFFFFFFF AND PUSH4 0x9853A2F CALLER PUSH1 0x40 MLOAD DUP3 PUSH4 0xFFFFFFFF AND PUSH1 0xE0 SHL DUP2 MSTORE PUSH1 0x4 ADD PUSH2 0x132 SWAP2 SWAP1 PUSH2 0x59B JUMP JUMPDEST PUSH1 0x20 PUSH1 0x40 MLOAD DUP1 DUP4 SUB DUP2 DUP7 GAS STATICCALL ISZERO DUP1 ISZERO PUSH2 0x14D JUMPI RETURNDATASIZE PUSH0 PUSH0 RETURNDATACOPY RETURNDATASIZE PUSH0 REVERT JUMPDEST POP POP POP POP PUSH1 0x40 MLOAD RETURNDATASIZE PUSH1 0x1F NOT PUSH1 0x1F DUP3 ADD AND DUP3 ADD DUP1 PUSH1 0x40 MSTORE POP DUP2 ADD SWAP1 PUSH2 0x171 SWAP2 SWAP1 PUSH2 0x719 JUMP JUMPDEST PUSH2 0x1B0 JUMPI PUSH1 0x40 MLOAD PUSH32 0x8C379A000000000000000000000000000000000000000000000000000000000 DUP2 MSTORE PUSH1 0x4 ADD PUSH2 0x1A7 SWAP1 PUSH2 0x78E JUMP JUMPDEST PUSH1 0x40 MLOAD DUP1 SWAP2 SUB SWAP1 REVERT JUMPDEST PUSH1 0x2 PUSH0 DUP2 SLOAD DUP1 SWAP3 SWAP2 SWAP1 PUSH2 0x1C2 SWAP1 PUSH2 0x7D9 JUMP JUMPDEST SWAP2 SWAP1 POP SSTORE POP PUSH1 0x40 MLOAD DUP1 PUSH1 0x80 ADD PUSH1 0x40 MSTORE DUP1 PUSH1 0x2 SLOAD DUP2 MSTORE PUSH1 0x20 ADD DUP3 DUP2 MSTORE PUSH1 0x20 ADD CALLER PUSH20 0xFFFFFFFFFFFFFFFFFFFFFFFFFFFFFFFFFFFFFFFF AND DUP2 MSTORE PUSH1 0x20 ADD TIMESTAMP DUP2 MSTORE POP PUSH1 0x1 PUSH0 PUSH1 0x2 SLOAD DUP2 MSTORE PUSH1 0x20 ADD SWAP1 DUP2 MSTORE PUSH1 0x20 ADD PUSH0 KECCAK256 PUSH0 DUP3 ADD MLOAD DUP2 PUSH0 ADD SSTORE PUSH1 0x20 DUP3 ADD MLOAD DUP2 PUSH1 0x1 ADD SWAP1 DUP2 PUSH2 0x230 SWAP2 SWAP1 PUSH2 0xA1D JUMP JUMPDEST POP PUSH1 0x40 DUP3 ADD MLOAD DUP2 PUSH1 0x2 ADD PUSH0 PUSH2 0x100 EXP DUP2 SLOAD DUP2 PUSH20 0xFFFFFFFFFFFFFFFFFFFFFFFFFFFFFFFFFFFFFFFF MUL NOT AND SWAP1 DUP4 PUSH20 0xFFFFFFFFFFFFFFFFFFFFFFFFFFFFFFFFFFFFFFFF AND MUL OR SWAP1 SSTORE POP PUSH1 0x60 DUP3 ADD MLOAD DUP2 PUSH1 0x3 ADD SSTORE SWAP1 POP POP CALLER PUSH20 0xFFFFFFFFFFFFFFFFFFFFFFFFFFFFFFFFFFFFFFFF AND PUSH1 0x2 SLOAD PUSH32 0xFE73CF9B793E65D9D707A5BFE3063E5F3A58EB52B27A356478C30FC83F5200F2 PUSH1 0x40 MLOAD PUSH1 0x40 MLOAD DUP1 SWAP2 SUB SWAP1 LOG3 POP JUMP JUMPDEST PUSH0 PUSH0 SWAP1 SLOAD SWAP1 PUSH2 0x100 EXP SWAP1 DIV PUSH20 0xFFFFFFFFFFFFFFFFFFFFFFFFFFFFFFFFFFFFFFFF AND DUP2 JUMP JUMPDEST PUSH1 0x2 SLOAD DUP2 JUMP JUMPDEST PUSH1 0x1 PUSH1 0x20 MSTORE DUP1 PUSH0 MSTORE PUSH1 0x40 PUSH0 KECCAK256 PUSH0 SWAP2 POP SWAP1 POP DUP1 PUSH0 ADD SLOAD SWAP1 DUP1 PUSH1 0x1 ADD DUP1 SLOAD PUSH2 0x31C SWAP1 PUSH2 0x84D JUMP JUMPDEST DUP1 PUSH1 0x1F ADD PUSH1 0x20 DUP1 SWAP2 DIV MUL PUSH1 0x20 ADD PUSH1 0x40 MLOAD SWAP1 DUP2 ADD PUSH1 0x40 MSTORE DUP1 SWAP3 SWAP2 SWAP1 DUP2 DUP2 MSTORE PUSH1 0x20 ADD DUP3 DUP1 SLOAD PUSH2 0x348 SWAP1 PUSH2 0x84D JUMP JUMPDEST DUP1 ISZERO PUSH2 0x393 JUMPI DUP1 PUSH1 0x1F LT PUSH2 0x36A JUMPI PUSH2 0x100 DUP1 DUP4 SLOAD DIV MUL DUP4 MSTORE SWAP2 PUSH1 0x20 ADD SWAP2 PUSH2 0x393 JUMP JUMPDEST DUP3 ADD SWAP2 SWAP1 PUSH0 MSTORE PUSH1 0x20 PUSH0 KECCAK256 SWAP1 JUMPDEST DUP2 SLOAD DUP2 MSTORE SWAP1 PUSH1 0x1 ADD SWAP1 PUSH1 0x20 ADD DUP1 DUP4 GT PUSH2 0x376 JUMPI DUP3 SWAP1 SUB PUSH1 0x1F AND DUP3 ADD SWAP2 JUMPDEST POP POP POP POP POP SWAP1 DUP1 PUSH1 0x2 ADD PUSH0 SWAP1 SLOAD SWAP1 PUSH2 0x100 EXP SWAP1 DIV PUSH20 0xFFFFFFFFFFFFFFFFFFFFFFFFFFFFFFFFFFFFFFFF AND SWAP1 DUP1 PUSH1 0x3 ADD SLOAD SWAP1 POP DUP5 JUMP JUMPDEST PUSH0 PUSH1 0x40 MLOAD SWAP1 POP SWAP1 JUMP JUMPDEST PUSH0 PUSH0 REVERT JUMPDEST PUSH0 PUSH0 REVERT JUMPDEST PUSH0 PUSH0 REVERT JUMPDEST PUSH0 PUSH0 REVERT JUMPDEST PUSH0 PUSH1 0x1F NOT PUSH1 0x1F DUP4 ADD AND SWAP1 POP SWAP2 SWAP1 POP JUMP JUMPDEST PUSH32 0x4E487B7100000000000000000000000000000000000000000000000000000000 PUSH0 MSTORE PUSH1 0x41 PUSH1 0x4 MSTORE PUSH1 0x24 PUSH0 REVERT JUMPDEST PUSH2 0x427 DUP3 PUSH2 0x3E1 JUMP JUMPDEST DUP2 ADD DUP2 DUP2 LT PUSH8 0xFFFFFFFFFFFFFFFF DUP3 GT OR ISZERO PUSH2 0x446 JUMPI PUSH2 0x445 PUSH2 0x3F1 JUMP JUMPDEST JUMPDEST DUP1 PUSH1 0x40 MSTORE POP POP POP JUMP JUMPDEST PUSH0 PUSH2 0x458 PUSH2 0x3C8 JUMP JUMPDEST SWAP1 POP PUSH2 0x464 DUP3 DUP3 PUSH2 0x41E JUMP JUMPDEST SWAP2 SWAP1 POP JUMP JUMPDEST PUSH0 PUSH8 0xFFFFFFFFFFFFFFFF DUP3 GT ISZERO PUSH2 0x483 JUMPI PUSH2 0x482 PUSH2 0x3F1 JUMP JUMPDEST JUMPDEST PUSH2 0x48C DUP3 PUSH2 0x3E1 JUMP JUMPDEST SWAP1 POP PUSH1 0x20 DUP2 ADD SWAP1 POP SWAP2 SWAP1 POP JUMP JUMPDEST DUP3 DUP2 DUP4 CALLDATACOPY PUSH0 DUP4 DUP4 ADD MSTORE POP POP POP JUMP JUMPDEST PUSH0 PUSH2 0x4B9 PUSH2 0x4B4 DUP5 PUSH2 0x469 JUMP JUMPDEST PUSH2 0x44F JUMP JUMPDEST SWAP1 POP DUP3 DUP2 MSTORE PUSH1 0x20 DUP2 ADD DUP5 DUP5 DUP5 ADD GT ISZERO PUSH2 0x4D5 JUMPI PUSH2 0x4D4 PUSH2 0x3DD JUMP JUMPDEST JUMPDEST PUSH2 0x4E0 DUP5 DUP3 DUP6 PUSH2 0x499 JUMP JUMPDEST POP SWAP4 SWAP3 POP POP POP JUMP JUMPDEST PUSH0 DUP3 PUSH1 0x1F DUP4 ADD SLT PUSH2 0x4FC JUMPI PUSH2 0x4FB PUSH2 0x3D9 JUMP JUMPDEST JUMPDEST DUP2 CALLDATALOAD PUSH2 0x50C DUP5 DUP3 PUSH1 0x20 DUP7 ADD PUSH2 0x4A7 JUMP JUMPDEST SWAP2 POP POP SWAP3 SWAP2 POP POP JUMP JUMPDEST PUSH0 PUSH1 0x20 DUP3 DUP5 SUB SLT ISZERO PUSH2 0x52A JUMPI PUSH2 0x529 PUSH2 0x3D1 JUMP JUMPDEST JUMPDEST PUSH0 DUP3 ADD CALLDATALOAD PUSH8 0xFFFFFFFFFFFFFFFF DUP2 GT ISZERO PUSH2 0x547 JUMPI PUSH2 0x546 PUSH2 0x3D5 JUMP JUMPDEST JUMPDEST PUSH2 0x553 DUP5 DUP3 DUP6 ADD PUSH2 0x4E8 JUMP JUMPDEST SWAP2 POP POP SWAP3 SWAP2 POP POP JUMP JUMPDEST PUSH0 PUSH20 0xFFFFFFFFFFFFFFFFFFFFFFFFFFFFFFFFFFFFFFFF DUP3 AND SWAP1 POP SWAP2 SWAP1 POP JUMP JUMPDEST PUSH0 PUSH2 0x585 DUP3 PUSH2 0x55C JUMP JUMPDEST SWAP1 POP SWAP2 SWAP1 POP JUMP JUMPDEST PUSH2 0x595 DUP2 PUSH2 0x57B JUMP JUMPDEST DUP3 MSTORE POP POP JUMP JUMPDEST PUSH0 PUSH1 0x20 DUP3 ADD SWAP1 POP PUSH2 0x5AE PUSH0 DUP4 ADD DUP5 PUSH2 0x58C JUMP JUMPDEST SWAP3 SWAP2 POP POP JUMP JUMPDEST PUSH0 DUP2 SWAP1 POP SWAP2 SWAP1 POP JUMP JUMPDEST PUSH2 0x5C6 DUP2 PUSH2 0x5B4 JUMP JUMPDEST DUP3 MSTORE POP POP JUMP JUMPDEST PUSH0 PUSH1 0x20 DUP3 ADD SWAP1 POP PUSH2 0x5DF PUSH0 DUP4 ADD DUP5 PUSH2 0x5BD JUMP JUMPDEST SWAP3 SWAP2 POP POP JUMP JUMPDEST PUSH2 0x5EE DUP2 PUSH2 0x5B4 JUMP JUMPDEST DUP2 EQ PUSH2 0x5F8 JUMPI PUSH0 PUSH0 REVERT JUMPDEST POP JUMP JUMPDEST PUSH0 DUP2 CALLDATALOAD SWAP1 POP PUSH2 0x609 DUP2 PUSH2 0x5E5 JUMP JUMPDEST SWAP3 SWAP2 POP POP JUMP JUMPDEST PUSH0 PUSH1 0x20 DUP3 DUP5 SUB SLT ISZERO PUSH2 0x624 JUMPI PUSH2 0x623 PUSH2 0x3D1 JUMP JUMPDEST JUMPDEST PUSH0 PUSH2 0x631 DUP5 DUP3 DUP6 ADD PUSH2 0x5FB JUMP JUMPDEST SWAP2 POP POP SWAP3 SWAP2 POP POP JUMP JUMPDEST PUSH0 DUP2 MLOAD SWAP1 POP SWAP2 SWAP1 POP JUMP JUMPDEST PUSH0 DUP3 DUP3 MSTORE PUSH1 0x20 DUP3 ADD SWAP1 POP SWAP3 SWAP2 POP POP JUMP JUMPDEST DUP3 DUP2 DUP4 MCOPY PUSH0 DUP4 DUP4 ADD MSTORE POP POP POP JUMP JUMPDEST PUSH0 PUSH2 0x66C DUP3 PUSH2 0x63A JUMP JUMPDEST PUSH2 0x676 DUP2 DUP6 PUSH2 0x644 JUMP JUMPDEST SWAP4 POP PUSH2 0x686 DUP2 DUP6 PUSH1 0x20 DUP7 ADD PUSH2 0x654 JUMP JUMPDEST PUSH2 0x68F DUP2 PUSH2 0x3E1 JUMP JUMPDEST DUP5 ADD SWAP2 POP POP SWAP3 SWAP2 POP POP JUMP JUMPDEST PUSH0 PUSH1 0x80 DUP3 ADD SWAP1 POP PUSH2 0x6AD PUSH0 DUP4 ADD DUP8 PUSH2 0x5BD JUMP JUMPDEST DUP2 DUP2 SUB PUSH1 0x20 DUP4 ADD MSTORE PUSH2 0x6BF DUP2 DUP7 PUSH2 0x662 JUMP JUMPDEST SWAP1 POP PUSH2 0x6CE PUSH1 0x40 DUP4 ADD DUP6 PUSH2 0x58C JUMP JUMPDEST PUSH2 0x6DB PUSH1 0x60 DUP4 ADD DUP5 PUSH2 0x5BD JUMP JUMPDEST SWAP6 SWAP5 POP POP POP POP POP JUMP JUMPDEST PUSH0 DUP2 ISZERO ISZERO SWAP1 POP SWAP2 SWAP1 POP JUMP JUMPDEST PUSH2 0x6F8 DUP2 PUSH2 0x6E4 JUMP JUMPDEST DUP2 EQ PUSH2 0x702 JUMPI PUSH0 PUSH0 REVERT JUMPDEST POP JUMP JUMPDEST PUSH0 DUP2 MLOAD SWAP1 POP PUSH2 0x713 DUP2 PUSH2 0x6EF JUMP JUMPDEST SWAP3 SWAP2 POP POP JUMP JUMPDEST PUSH0 PUSH1 0x20 DUP3 DUP5 SUB SLT ISZERO PUSH2 0x72E JUMPI PUSH2 0x72D PUSH2 0x3D1 JUMP JUMPDEST JUMPDEST PUSH0 PUSH2 0x73B DUP5 DUP3 DUP6 ADD PUSH2 0x705 JUMP JUMPDEST SWAP2 POP POP SWAP3 SWAP2 POP POP JUMP JUMPDEST PUSH32 0x43616C6C6572206973206E6F74206120726567697374657265642062616E6B00 PUSH0 DUP3 ADD MSTORE POP JUMP JUMPDEST PUSH0 PUSH2 0x778 PUSH1 0x1F DUP4 PUSH2 0x644 JUMP JUMPDEST SWAP2 POP PUSH2 0x783 DUP3 PUSH2 0x744 JUMP JUMPDEST PUSH1 0x20 DUP3 ADD SWAP1 POP SWAP2 SWAP1 POP JUMP JUMPDEST PUSH0 PUSH1 0x20 DUP3 ADD SWAP1 POP DUP2 DUP2 SUB PUSH0 DUP4 ADD MSTORE PUSH2 0x7A5 DUP2 PUSH2 0x76C JUMP JUMPDEST SWAP1 POP SWAP2 SWAP1 POP JUMP JUMPDEST PUSH32 0x4E487B7100000000000000000000000000000000000000000000000000000000 PUSH0 MSTORE PUSH1 0x11 PUSH1 0x4 MSTORE PUSH1 0x24 PUSH0 REVERT JUMPDEST PUSH0 PUSH2 0x7E3 DUP3 PUSH2 0x5B4 JUMP JUMPDEST SWAP2 POP PUSH32 0xFFFFFFFFFFFFFFFFFFFFFFFFFFFFFFFFFFFFFFFFFFFFFFFFFFFFFFFFFFFFFFFF DUP3 SUB PUSH2 0x815 JUMPI PUSH2 0x814 PUSH2 0x7AC JUMP JUMPDEST JUMPDEST PUSH1 0x1 DUP3 ADD SWAP1 POP SWAP2 SWAP1 POP JUMP JUMPDEST PUSH32 0x4E487B7100000000000000000000000000000000000000000000000000000000 PUSH0 MSTORE PUSH1 0x22 PUSH1 0x4 MSTORE PUSH1 0x24 PUSH0 REVERT JUMPDEST PUSH0 PUSH1 0x2 DUP3 DIV SWAP1 POP PUSH1 0x1 DUP3 AND DUP1 PUSH2 0x864 JUMPI PUSH1 0x7F DUP3 AND SWAP2 POP JUMPDEST PUSH1 0x20 DUP3 LT DUP2 SUB PUSH2 0x877 JUMPI PUSH2 0x876 PUSH2 0x820 JUMP JUMPDEST JUMPDEST POP SWAP2 SWAP1 POP JUMP JUMPDEST PUSH0 DUP2 SWAP1 POP DUP2 PUSH0 MSTORE PUSH1 0x20 PUSH0 KECCAK256 SWAP1 POP SWAP2 SWAP1 POP JUMP JUMPDEST PUSH0 PUSH1 0x20 PUSH1 0x1F DUP4 ADD DIV SWAP1 POP SWAP2 SWAP1 POP JUMP JUMPDEST PUSH0 DUP3 DUP3 SHL SWAP1 POP SWAP3 SWAP2 POP POP JUMP JUMPDEST PUSH0 PUSH1 0x8 DUP4 MUL PUSH2 0x8D9 PUSH32 0xFFFFFFFFFFFFFFFFFFFFFFFFFFFFFFFFFFFFFFFFFFFFFFFFFFFFFFFFFFFFFFFF DUP3 PUSH2 0x89E JUMP JUMPDEST PUSH2 0x8E3 DUP7 DUP4 PUSH2 0x89E JUMP JUMPDEST SWAP6 POP DUP1 NOT DUP5 AND SWAP4 POP DUP1 DUP7 AND DUP5 OR SWAP3 POP POP POP SWAP4 SWAP3 POP POP POP JUMP JUMPDEST PUSH0 DUP2 SWAP1 POP SWAP2 SWAP1 POP JUMP JUMPDEST PUSH0 PUSH2 0x91E PUSH2 0x919 PUSH2 0x914 DUP5 PUSH2 0x5B4 JUMP JUMPDEST PUSH2 0x8FB JUMP JUMPDEST PUSH2 0x5B4 JUMP JUMPDEST SWAP1 POP SWAP2 SWAP1 POP JUMP JUMPDEST PUSH0 DUP2 SWAP1 POP SWAP2 SWAP1 POP JUMP JUMPDEST PUSH2 0x937 DUP4 PUSH2 0x904 JUMP JUMPDEST PUSH2 0x94B PUSH2 0x943 DUP3 PUSH2 0x925 JUMP JUMPDEST DUP5 DUP5 SLOAD PUSH2 0x8AA JUMP JUMPDEST DUP3 SSTORE POP POP POP POP JUMP JUMPDEST PUSH0 PUSH0 SWAP1 POP SWAP1 JUMP JUMPDEST PUSH2 0x962 PUSH2 0x953 JUMP JUMPDEST PUSH2 0x96D DUP2 DUP5 DUP5 PUSH2 0x92E JUMP JUMPDEST POP POP POP JUMP JUMPDEST JUMPDEST DUP2 DUP2 LT ISZERO PUSH2 0x990 JUMPI PUSH2 0x985 PUSH0 DUP3 PUSH2 0x95A JUMP JUMPDEST PUSH1 0x1 DUP2 ADD SWAP1 POP PUSH2 0x973 JUMP JUMPDEST POP POP JUMP JUMPDEST PUSH1 0x1F DUP3 GT ISZERO PUSH2 0x9D5 JUMPI PUSH2 0x9A6 DUP2 PUSH2 0x87D JUMP JUMPDEST PUSH2 0x9AF DUP5 PUSH2 0x88F JUMP JUMPDEST DUP2 ADD PUSH1 0x20 DUP6 LT ISZERO PUSH2 0x9BE JUMPI DUP2 SWAP1 POP JUMPDEST PUSH2 0x9D2 PUSH2 0x9CA DUP6 PUSH2 0x88F JUMP JUMPDEST DUP4 ADD DUP3 PUSH2 0x972 JUMP JUMPDEST POP POP JUMPDEST POP POP POP JUMP JUMPDEST PUSH0 DUP3 DUP3 SHR SWAP1 POP SWAP3 SWAP2 POP POP JUMP JUMPDEST PUSH0 PUSH2 0x9F5 PUSH0 NOT DUP5 PUSH1 0x8 MUL PUSH2 0x9DA JUMP JUMPDEST NOT DUP1 DUP4 AND SWAP2 POP POP SWAP3 SWAP2 POP POP JUMP JUMPDEST PUSH0 PUSH2 0xA0D DUP4 DUP4 PUSH2 0x9E6 JUMP JUMPDEST SWAP2 POP DUP3 PUSH1 0x2 MUL DUP3 OR SWAP1 POP SWAP3 SWAP2 POP POP JUMP JUMPDEST PUSH2 0xA26 DUP3 PUSH2 0x63A JUMP JUMPDEST PUSH8 0xFFFFFFFFFFFFFFFF DUP2 GT ISZERO PUSH2 0xA3F JUMPI PUSH2 0xA3E PUSH2 0x3F1 JUMP JUMPDEST JUMPDEST PUSH2 0xA49 DUP3 SLOAD PUSH2 0x84D JUMP JUMPDEST PUSH2 0xA54 DUP3 DUP3 DUP6 PUSH2 0x994 JUMP JUMPDEST PUSH0 PUSH1 0x20 SWAP1 POP PUSH1 0x1F DUP4 GT PUSH1 0x1 DUP2 EQ PUSH2 0xA85 JUMPI PUSH0 DUP5 ISZERO PUSH2 0xA73 JUMPI DUP3 DUP8 ADD MLOAD SWAP1 POP JUMPDEST PUSH2 0xA7D DUP6 DUP3 PUSH2 0xA02 JUMP JUMPDEST DUP7 SSTORE POP PUSH2 0xAE4 JUMP JUMPDEST PUSH1 0x1F NOT DUP5 AND PUSH2 0xA93 DUP7 PUSH2 0x87D JUMP JUMPDEST PUSH0 JUMPDEST DUP3 DUP2 LT ISZERO PUSH2 0xABA JUMPI DUP5 DUP10 ADD MLOAD DUP3 SSTORE PUSH1 0x1 DUP3 ADD SWAP2 POP PUSH1 0x20 DUP6 ADD SWAP5 POP PUSH1 0x20 DUP2 ADD SWAP1 POP PUSH2 0xA95 JUMP JUMPDEST DUP7 DUP4 LT ISZERO PUSH2 0xAD7 JUMPI DUP5 DUP10 ADD MLOAD PUSH2 0xAD3 PUSH1 0x1F DUP10 AND DUP3 PUSH2 0x9E6 JUMP JUMPDEST DUP4 SSTORE POP JUMPDEST PUSH1 0x1 PUSH1 0x2 DUP9 MUL ADD DUP9 SSTORE POP POP POP JUMPDEST POP POP POP POP POP POP JUMP INVALID LOG2 PUSH5 0x6970667358 0x22 SLT KECCAK256 0xAE 0xAA 0xB0 GAS 0xE9 DUP13 0x24 0x22 SWAP6 SLOAD 0xEB SWAP5 RETF 0xCC EXTCODEHASH 0x1E TLOAD PUSH24 0x47F0B76C3F629BE770F9ECDA987C64736F6C634300081E00 CALLER "
				},
				"gasEstimates": {
					"creation": {
						"codeDepositCost": "570000",
						"executionCost": "infinite",
						"totalCost": "infinite"
					},
					"external": {
						"bankRegistryAddress()": "2507",
						"reportCounter()": "2447",
						"reports(uint256)": "infinite",
						"submitReport(string)": "infinite"
					}
				},
				"methodIdentifiers": {
					"bankRegistryAddress()": "669d5521",
					"reportCounter()": "b9bc38f2",
					"reports(uint256)": "c942adf7",
					"submitReport(string)": "635ac1ed"
				}
			},
			"storageLayout": {
				"storage": [
					{
						"astId": 13,
						"contract": "Contracts/FraudReportLedger.sol:FraudReportLedger",
						"label": "bankRegistryAddress",
						"offset": 0,
						"slot": "0",
						"type": "t_address"
					},
					{
						"astId": 27,
						"contract": "Contracts/FraudReportLedger.sol:FraudReportLedger",
						"label": "reports",
						"offset": 0,
						"slot": "1",
						"type": "t_mapping(t_uint256,t_struct(Report)22_storage)"
					},
					{
						"astId": 29,
						"contract": "Contracts/FraudReportLedger.sol:FraudReportLedger",
						"label": "reportCounter",
						"offset": 0,
						"slot": "2",
						"type": "t_uint256"
					}
				],
				"types": {
					"t_address": {
						"encoding": "inplace",
						"label": "address",
						"numberOfBytes": "20"
					},
					"t_mapping(t_uint256,t_struct(Report)22_storage)": {
						"encoding": "mapping",
						"key": "t_uint256",
						"label": "mapping(uint256 => struct FraudReportLedger.Report)",
						"numberOfBytes": "32",
						"value": "t_struct(Report)22_storage"
					},
					"t_string_storage": {
						"encoding": "bytes",
						"label": "string",
						"numberOfBytes": "32"
					},
					"t_struct(Report)22_storage": {
						"encoding": "inplace",
						"label": "struct FraudReportLedger.Report",
						"members": [
							{
								"astId": 15,
								"contract": "Contracts/FraudReportLedger.sol:FraudReportLedger",
								"label": "reportId",
								"offset": 0,
								"slot": "0",
								"type": "t_uint256"
							},
							{
								"astId": 17,
								"contract": "Contracts/FraudReportLedger.sol:FraudReportLedger",
								"label": "reportDetails",
								"offset": 0,
								"slot": "1",
								"type": "t_string_storage"
							},
							{
								"astId": 19,
								"contract": "Contracts/FraudReportLedger.sol:FraudReportLedger",
								"label": "reportingBank",
								"offset": 0,
								"slot": "2",
								"type": "t_address"
							},
							{
								"astId": 21,
								"contract": "Contracts/FraudReportLedger.sol:FraudReportLedger",
								"label": "timestamp",
								"offset": 0,
								"slot": "3",
								"type": "t_uint256"
							}
						],
						"numberOfBytes": "128"
					},
					"t_uint256": {
						"encoding": "inplace",
						"label": "uint256",
						"numberOfBytes": "32"
					}
				}
			},
			"userdoc": {
				"events": {
					"ReportSubmitted(uint256,address)": {
						"notice": "Emitted when a new fraud report is successfully submitted."
					}
				},
				"kind": "user",
				"methods": {
					"constructor": {
						"notice": "The constructor takes the address of the already deployed BankRegistry contract. This links the two contracts together."
					},
					"submitReport(string)": {
						"notice": "Allows a registered bank to submit a new fraud report."
					}
				},
				"notice": "This contract stores fraud reports submitted by authorized banks. It relies on the BankRegistry contract to verify the identity of the reporter.",
				"version": 1
			}
		}
	}
}