{
  "_format": "hh3-artifact-1",
  "contractName": "CreditDataLedger",
  "sourceName": "contracts/CreditDataLedger.sol",
  "abi": [
    {
      "inputs": [
        {
          "internalType": "address",
          "name": "_bankRegistryAddress",
          "type": "address"
        }
      ],
      "stateMutability": "nonpayable",
      "type": "constructor"
    },
    {
      "anonymous": false,
      "inputs": [
        {
          "indexed": true,
          "internalType": "address",
          "name": "userAddress",
          "type": "address"
        },
        {
          "indexed": true,
          "internalType": "address",
          "name": "bankAddress",
          "type": "address"
        },
        {
          "indexed": false,
          "internalType": "uint256",
          "name": "entryId",
          "type": "uint256"
        },
        {
          "indexed": false,
          "internalType": "string",
          "name": "ipfsCID",
          "type": "string"
        }
      ],
      "name": "CreditDataAdded",
      "type": "event"
    },
    {
      "inputs": [
        {
          "internalType": "address",
          "name": "_userAddress",
          "type": "address"
        },
        {
          "internalType": "string",
          "name": "_ipfsCID",
          "type": "string"
        }
      ],
      "name": "addCreditEntry",
      "outputs": [],
      "stateMutability": "nonpayable",
      "type": "function"
    },
    {
      "inputs": [],
      "name": "bankRegistryAddress",
      "outputs": [
        {
          "internalType": "address",
          "name": "",
          "type": "address"
        }
      ],
      "stateMutability": "view",
      "type": "function"
    },
    {
      "inputs": [],
      "name": "entryCounter",
      "outputs": [
        {
          "internalType": "uint256",
          "name": "",
          "type": "uint256"
        }
      ],
      "stateMutability": "view",
      "type": "function"
    },
    {
      "inputs": [
        {
          "internalType": "address",
          "name": "_userAddress",
          "type": "address"
        }
      ],
      "name": "getUserCreditHistory",
      "outputs": [
        {
          "components": [
            {
              "internalType": "uint256",
              "name": "entryId",
              "type": "uint256"
            },
            {
              "internalType": "string",
              "name": "ipfsCID",
              "type": "string"
            },
            {
              "internalType": "address",
              "name": "reportingBank",
              "type": "address"
            },
            {
              "internalType": "uint256",
              "name": "timestamp",
              "type": "uint256"
            }
          ],
          "internalType": "struct CreditDataLedger.CreditEntry[]",
          "name": "",
          "type": "tuple[]"
        }
      ],
      "stateMutability": "view",
      "type": "function"
    },
    {
      "inputs": [
        {
          "internalType": "address",
          "name": "",
          "type": "address"
        },
        {
          "internalType": "uint256",
          "name": "",
          "type": "uint256"
        }
      ],
      "name": "userCreditHistory",
      "outputs": [
        {
          "internalType": "uint256",
          "name": "entryId",
          "type": "uint256"
        },
        {
          "internalType": "string",
          "name": "ipfsCID",
          "type": "string"
        },
        {
          "internalType": "address",
          "name": "reportingBank",
          "type": "address"
        },
        {
          "internalType": "uint256",
          "name": "timestamp",
          "type": "uint256"
        }
      ],
      "stateMutability": "view",
      "type": "function"
    }
  ],
  "bytecode": "0x6080604052348015600e575f5ffd5b506040516109f53803806109f5833981016040819052602b9160a7565b6001600160a01b03811660845760405162461bcd60e51b815260206004820152601860248201527f496e76616c696420726567697374727920616464726573730000000000000000604482015260640160405180910390fd5b5f80546001600160a01b0319166001600160a01b039290921691909117905560d2565b5f6020828403121560b6575f5ffd5b81516001600160a01b038116811460cb575f5ffd5b9392505050565b610916806100df5f395ff3fe608060405234801561000f575f5ffd5b5060043610610055575f3560e01c806307ed3d1a146100595780631621b5731461006e57806362da83131461009a578063669d5521146100b157806397890051146100db575b5f5ffd5b61006c610067366004610539565b6100fb565b005b61008161007c3660046105fd565b610306565b6040516100919493929190610653565b60405180910390f35b6100a360025481565b604051908152602001610091565b5f546100c3906001600160a01b031681565b6040516001600160a01b039091168152602001610091565b6100ee6100e9366004610687565b6103dc565b60405161009191906106a7565b5f546040516309853a2f60e01b81523360048201526001600160a01b03909116906309853a2f90602401602060405180830381865afa158015610140573d5f5f3e3d5ffd5b505050506040513d601f19601f82011682018060405250810190610164919061073e565b6101b55760405162461bcd60e51b815260206004820152601f60248201527f43616c6c6572206973206e6f74206120726567697374657265642062616e6b0060448201526064015b60405180910390fd5b6001600160a01b0382166102025760405162461bcd60e51b8152602060048201526014602482015273496e76616c69642075736572206164647265737360601b60448201526064016101ac565b60028054905f6102118361075d565b9091555050604080516080810182526002548152602080820184815233838501524260608401526001600160a01b0386165f90815260018084529481208054808701825590825292902083516004909302019182555191928392908201906102799082610805565b506040820151816002015f6101000a8154816001600160a01b0302191690836001600160a01b03160217905550606082015181600301555050336001600160a01b0316836001600160a01b03167f7e3fb5c017199c7efec3ae7cb85d2584464956f6410fc55895788a84f701e1e1600254856040516102f99291906108c0565b60405180910390a3505050565b6001602052815f5260405f20818154811061031f575f80fd5b905f5260205f2090600402015f9150915050805f01549080600101805461034590610781565b80601f016020809104026020016040519081016040528092919081815260200182805461037190610781565b80156103bc5780601f10610393576101008083540402835291602001916103bc565b820191905f5260205f20905b81548152906001019060200180831161039f57829003601f168201915b50505050600283015460039093015491926001600160a01b031691905084565b6001600160a01b0381165f908152600160209081526040808320805482518185028101850190935280835260609492939192909184015b828210156104ff578382905f5260205f2090600402016040518060800160405290815f820154815260200160018201805461044d90610781565b80601f016020809104026020016040519081016040528092919081815260200182805461047990610781565b80156104c45780601f1061049b576101008083540402835291602001916104c4565b820191905f5260205f20905b8154815290600101906020018083116104a757829003601f168201915b505050918352505060028201546001600160a01b03166020808301919091526003909201546040909101529082526001929092019101610413565b505050509050919050565b80356001600160a01b0381168114610520575f5ffd5b919050565b634e487b7160e01b5f52604160045260245ffd5b5f5f6040838503121561054a575f5ffd5b6105538361050a565b9150602083013567ffffffffffffffff81111561056e575f5ffd5b8301601f8101851361057e575f5ffd5b803567ffffffffffffffff81111561059857610598610525565b604051601f8201601f19908116603f0116810167ffffffffffffffff811182821017156105c7576105c7610525565b6040528181528282016020018710156105de575f5ffd5b816020840160208301375f602083830101528093505050509250929050565b5f5f6040838503121561060e575f5ffd5b6106178361050a565b946020939093013593505050565b5f81518084528060208401602086015e5f602082860101526020601f19601f83011685010191505092915050565b848152608060208201525f61066b6080830186610625565b6001600160a01b03949094166040830152506060015292915050565b5f60208284031215610697575f5ffd5b6106a08261050a565b9392505050565b5f602082016020835280845180835260408501915060408160051b8601019250602086015f5b8281101561073257603f198786030184528151805186526020810151608060208801526106fd6080880182610625565b6040838101516001600160a01b03169089015260609283015192909701919091525060209384019391909101906001016106cd565b50929695505050505050565b5f6020828403121561074e575f5ffd5b815180151581146106a0575f5ffd5b5f6001820161077a57634e487b7160e01b5f52601160045260245ffd5b5060010190565b600181811c9082168061079557607f821691505b6020821081036107b357634e487b7160e01b5f52602260045260245ffd5b50919050565b601f82111561080057805f5260205f20601f840160051c810160208510156107de5750805b601f840160051c820191505b818110156107fd575f81556001016107ea565b50505b505050565b815167ffffffffffffffff81111561081f5761081f610525565b6108338161082d8454610781565b846107b9565b6020601f821160018114610865575f831561084e5750848201515b5f19600385901b1c1916600184901b1784556107fd565b5f84815260208120601f198516915b828110156108945787850151825560209485019460019092019101610874565b50848210156108b157868401515f19600387901b60f8161c191681555b50505050600190811b01905550565b828152604060208201525f6108d86040830184610625565b94935050505056fea2646970667358221220041dfb0f29c900a2b8a2c135d8b1721f76642b84bafe169a0810256508c754bd64736f6c634300081c0033",
  "linkReferences": {},
  "deployedLinkReferences": {},
  "immutableReferences": {},
  "inputSourceName": "project/contracts/CreditDataLedger.sol",
  "buildInfoId": "solc-0_8_28-faf90d911868d2a72e2785cbdd83c398c02e95c5"
}