{
  "_format": "hh3-artifact-1",
  "contractName": "FraudReportLedger",
  "sourceName": "contracts/FraudReportLedger.sol",
  "abi": [
    {
      "inputs": [
        {
          "internalType": "address",
          "name": "_bankRegistryAddress",
          "type": "address"
        }
      ],
      "stateMutability": "nonpayable",
      "type": "constructor"
    },
    {
      "anonymous": false,
      "inputs": [
        {
          "indexed": true,
          "internalType": "uint256",
          "name": "reportId",
          "type": "uint256"
        },
        {
          "indexed": true,
          "internalType": "address",
          "name": "customerAddress",
          "type": "address"
        },
        {
          "indexed": true,
          "internalType": "address",
          "name": "bankAddress",
          "type": "address"
        }
      ],
      "name": "ReportSubmitted",
      "type": "event"
    },
    {
      "inputs": [],
      "name": "bankRegistryAddress",
      "outputs": [
        {
          "internalType": "address",
          "name": "",
          "type": "address"
        }
      ],
      "stateMutability": "view",
      "type": "function"
    },
    {
      "inputs": [
        {
          "internalType": "address",
          "name": "",
          "type": "address"
        },
        {
          "internalType": "uint256",
          "name": "",
          "type": "uint256"
        }
      ],
      "name": "customerFraudReportIds",
      "outputs": [
        {
          "internalType": "uint256",
          "name": "",
          "type": "uint256"
        }
      ],
      "stateMutability": "view",
      "type": "function"
    },
    {
      "inputs": [
        {
          "internalType": "address",
          "name": "_customerAddress",
          "type": "address"
        }
      ],
      "name": "getReportsForCustomer",
      "outputs": [
        {
          "components": [
            {
              "internalType": "uint256",
              "name": "reportId",
              "type": "uint256"
            },
            {
              "internalType": "address",
              "name": "customerAddress",
              "type": "address"
            },
            {
              "internalType": "string",
              "name": "reportDetails",
              "type": "string"
            },
            {
              "internalType": "address",
              "name": "reportingBank",
              "type": "address"
            },
            {
              "internalType": "uint256",
              "name": "timestamp",
              "type": "uint256"
            }
          ],
          "internalType": "struct FraudReportLedger.Report[]",
          "name": "",
          "type": "tuple[]"
        }
      ],
      "stateMutability": "view",
      "type": "function"
    },
    {
      "inputs": [],
      "name": "reportCounter",
      "outputs": [
        {
          "internalType": "uint256",
          "name": "",
          "type": "uint256"
        }
      ],
      "stateMutability": "view",
      "type": "function"
    },
    {
      "inputs": [
        {
          "internalType": "uint256",
          "name": "",
          "type": "uint256"
        }
      ],
      "name": "reports",
      "outputs": [
        {
          "internalType": "uint256",
          "name": "reportId",
          "type": "uint256"
        },
        {
          "internalType": "address",
          "name": "customerAddress",
          "type": "address"
        },
        {
          "internalType": "string",
          "name": "reportDetails",
          "type": "string"
        },
        {
          "internalType": "address",
          "name": "reportingBank",
          "type": "address"
        },
        {
          "internalType": "uint256",
          "name": "timestamp",
          "type": "uint256"
        }
      ],
      "stateMutability": "view",
      "type": "function"
    },
    {
      "inputs": [
        {
          "internalType": "address",
          "name": "_customerAddress",
          "type": "address"
        },
        {
          "internalType": "string",
          "name": "_reportDetails",
          "type": "string"
        }
      ],
      "name": "submitReport",
      "outputs": [],
      "stateMutability": "nonpayable",
      "type": "function"
    }
  ],
  "bytecode": "0x6080604052348015600e575f5ffd5b50604051610b93380380610b93833981016040819052602b9160a7565b6001600160a01b03811660845760405162461bcd60e51b815260206004820152601860248201527f496e76616c696420726567697374727920616464726573730000000000000000604482015260640160405180910390fd5b5f80546001600160a01b0319166001600160a01b039290921691909117905560d2565b5f6020828403121560b6575f5ffd5b81516001600160a01b038116811460cb575f5ffd5b9392505050565b610ab4806100df5f395ff3fe608060405234801561000f575f5ffd5b5060043610610060575f3560e01c80632d16b81014610064578063669d55211461008d578063b9bc38f2146100b7578063c942adf7146100ce578063dad780d5146100f2578063e9e470ae14610107575b5f5ffd5b610077610072366004610694565b61011a565b60405161008491906106e2565b60405180910390f35b5f5461009f906001600160a01b031681565b6040516001600160a01b039091168152602001610084565b6100c060025481565b604051908152602001610084565b6100e16100dc36600461078b565b610360565b6040516100849594939291906107a2565b6101056101003660046107fc565b610429565b005b6100c06101153660046108c0565b61064e565b6001600160a01b0381165f90815260036020908152604080832080548251818502810185019093528083526060949383018282801561017657602002820191905f5260205f20905b815481526020019060010190808311610162575b505050505090505f815167ffffffffffffffff811115610198576101986107e8565b60405190808252806020026020018201604052801561020957816020015b6101f66040518060a001604052805f81526020015f6001600160a01b03168152602001606081526020015f6001600160a01b031681526020015f81525090565b8152602001906001900390816101b65790505b5090505f5b82518110156103585760015f84838151811061022c5761022c6108e8565b602002602001015181526020019081526020015f206040518060a00160405290815f8201548152602001600182015f9054906101000a90046001600160a01b03166001600160a01b03166001600160a01b03168152602001600282018054610293906108fc565b80601f01602080910402602001604051908101604052809291908181526020018280546102bf906108fc565b801561030a5780601f106102e15761010080835404028352916020019161030a565b820191905f5260205f20905b8154815290600101906020018083116102ed57829003601f168201915b505050918352505060038201546001600160a01b031660208201526004909101546040909101528251839083908110610345576103456108e8565b602090810291909101015260010161020e565b509392505050565b600160208190525f91825260409091208054918101546002820180546001600160a01b039092169291610392906108fc565b80601f01602080910402602001604051908101604052809291908181526020018280546103be906108fc565b80156104095780601f106103e057610100808354040283529160200191610409565b820191905f5260205f20905b8154815290600101906020018083116103ec57829003601f168201915b50505050600383015460049093015491926001600160a01b031691905085565b5f546040516309853a2f60e01b81523360048201526001600160a01b03909116906309853a2f90602401602060405180830381865afa15801561046e573d5f5f3e3d5ffd5b505050506040513d601f19601f820116820180604052508101906104929190610934565b6104e35760405162461bcd60e51b815260206004820152601f60248201527f43616c6c6572206973206e6f74206120726567697374657265642062616e6b0060448201526064015b60405180910390fd5b6001600160a01b0382166105395760405162461bcd60e51b815260206004820152601860248201527f496e76616c696420637573746f6d65722061646472657373000000000000000060448201526064016104da565b60028054905f61054883610953565b90915550506040805160a081018252600280548083526001600160a01b0386811660208086019182528587018881523360608801524260808801525f9485526001918290529690932085518155905192810180546001600160a01b031916939092169290921790559251919291908201906105c390826109c3565b506060820151600382810180546001600160a01b0319166001600160a01b0393841617905560809093015160049092019190915583165f8181526020928352604080822060028054825460018101845592855295842090910194909455925492513393917f482164c88e57de707009cc52c1ffd0a27b2091e799d4ca18fe8f109bffaeeb8291a45050565b6003602052815f5260405f208181548110610667575f80fd5b905f5260205f20015f91509150505481565b80356001600160a01b038116811461068f575f5ffd5b919050565b5f602082840312156106a4575f5ffd5b6106ad82610679565b9392505050565b5f81518084528060208401602086015e5f602082860101526020601f19601f83011685010191505092915050565b5f602082016020835280845180835260408501915060408160051b8601019250602086015f5b8281101561077f57603f1987860301845281518051865260018060a01b036020820151166020870152604081015160a0604088015261074a60a08801826106b4565b6060838101516001600160a01b0316908901526080928301519290970191909152506020938401939190910190600101610708565b50929695505050505050565b5f6020828403121561079b575f5ffd5b5035919050565b8581526001600160a01b038516602082015260a0604082018190525f906107cb908301866106b4565b6001600160a01b0394909416606083015250608001529392505050565b634e487b7160e01b5f52604160045260245ffd5b5f5f6040838503121561080d575f5ffd5b61081683610679565b9150602083013567ffffffffffffffff811115610831575f5ffd5b8301601f81018513610841575f5ffd5b803567ffffffffffffffff81111561085b5761085b6107e8565b604051601f8201601f19908116603f0116810167ffffffffffffffff8111828210171561088a5761088a6107e8565b6040528181528282016020018710156108a1575f5ffd5b816020840160208301375f602083830101528093505050509250929050565b5f5f604083850312156108d1575f5ffd5b6108da83610679565b946020939093013593505050565b634e487b7160e01b5f52603260045260245ffd5b600181811c9082168061091057607f821691505b60208210810361092e57634e487b7160e01b5f52602260045260245ffd5b50919050565b5f60208284031215610944575f5ffd5b815180151581146106ad575f5ffd5b5f6001820161097057634e487b7160e01b5f52601160045260245ffd5b5060010190565b601f8211156109be57805f5260205f20601f840160051c8101602085101561099c5750805b601f840160051c820191505b818110156109bb575f81556001016109a8565b50505b505050565b815167ffffffffffffffff8111156109dd576109dd6107e8565b6109f1816109eb84546108fc565b84610977565b6020601f821160018114610a23575f8315610a0c5750848201515b5f19600385901b1c1916600184901b1784556109bb565b5f84815260208120601f198516915b82811015610a525787850151825560209485019460019092019101610a32565b5084821015610a6f57868401515f19600387901b60f8161c191681555b50505050600190811b0190555056fea26469706673582212208488133c005e5fc13e1ede3ff4505905aa49e8d9679263566d0b5a4b94dd90b164736f6c634300081c0033",
  "linkReferences": {},
  "deployedLinkReferences": {},
  "immutableReferences": {},
  "inputSourceName": "project/contracts/FraudReportLedger.sol",
  "buildInfoId": "solc-0_8_28-7934de44c0f6428692e00b815d04cad470c5eff4"
}