{
  "_format": "hh3-artifact-1",
  "contractName": "BankRegistry",
  "sourceName": "contracts/BankRegistry.sol",
  "abi": [
    {
      "inputs": [],
      "stateMutability": "nonpayable",
      "type": "constructor"
    },
    {
      "anonymous": false,
      "inputs": [
        {
          "indexed": true,
          "internalType": "address",
          "name": "bankAddress",
          "type": "address"
        }
      ],
      "name": "BankRegistered",
      "type": "event"
    },
    {
      "anonymous": false,
      "inputs": [
        {
          "indexed": true,
          "internalType": "address",
          "name": "bankAddress",
          "type": "address"
        }
      ],
      "name": "BankRemoved",
      "type": "event"
    },
    {
      "inputs": [
        {
          "internalType": "address",
          "name": "_bankAddress",
          "type": "address"
        }
      ],
      "name": "isBankRegistered",
      "outputs": [
        {
          "internalType": "bool",
          "name": "",
          "type": "bool"
        }
      ],
      "stateMutability": "view",
      "type": "function"
    },
    {
      "inputs": [],
      "name": "owner",
      "outputs": [
        {
          "internalType": "address",
          "name": "",
          "type": "address"
        }
      ],
      "stateMutability": "view",
      "type": "function"
    },
    {
      "inputs": [
        {
          "internalType": "address",
          "name": "_bankAddress",
          "type": "address"
        }
      ],
      "name": "registerBank",
      "outputs": [],
      "stateMutability": "nonpayable",
      "type": "function"
    },
    {
      "inputs": [
        {
          "internalType": "address",
          "name": "",
          "type": "address"
        }
      ],
      "name": "registeredBanks",
      "outputs": [
        {
          "internalType": "bool",
          "name": "",
          "type": "bool"
        }
      ],
      "stateMutability": "view",
      "type": "function"
    },
    {
      "inputs": [
        {
          "internalType": "address",
          "name": "_bankAddress",
          "type": "address"
        }
      ],
      "name": "removeBank",
      "outputs": [],
      "stateMutability": "nonpayable",
      "type": "function"
    }
  ],
  "bytecode": "0x6080604052348015600e575f5ffd5b505f80546001600160a01b031916331790556103cf8061002d5f395ff3fe608060405234801561000f575f5ffd5b5060043610610055575f3560e01c806309853a2f146100595780630ff2d92b146100995780638da5cb5b146100bb5780639649650c146100e5578063c3672299146100fa575b5f5ffd5b61008461006736600461036c565b6001600160a01b03165f9081526001602052604090205460ff1690565b60405190151581526020015b60405180910390f35b6100846100a736600461036c565b60016020525f908152604090205460ff1681565b5f546100cd906001600160a01b031681565b6040516001600160a01b039091168152602001610090565b6100f86100f336600461036c565b61010d565b005b6100f861010836600461036c565b61020d565b5f546001600160a01b031633146101655760405162461bcd60e51b815260206004820152601760248201527621b0b63632b91034b9903737ba103a34329037bbb732b960491b60448201526064015b60405180910390fd5b6001600160a01b0381165f9081526001602052604090205460ff166101c55760405162461bcd60e51b815260206004820152601660248201527510985b9ac81a5cc81b9bdd081c9959da5cdd195c995960521b604482015260640161015c565b6001600160a01b0381165f81815260016020526040808220805460ff19169055517f6c6b75303e41e95dbe82479ed0a94ba1d8a0d5eea16a922bb68e5daeedb188679190a250565b5f546001600160a01b031633146102605760405162461bcd60e51b815260206004820152601760248201527621b0b63632b91034b9903737ba103a34329037bbb732b960491b604482015260640161015c565b6001600160a01b0381166102b65760405162461bcd60e51b815260206004820181905260248201527f43616e6e6f7420726567697374657220746865207a65726f2061646472657373604482015260640161015c565b6001600160a01b0381165f9081526001602052604090205460ff161561031e5760405162461bcd60e51b815260206004820152601a60248201527f42616e6b20697320616c72656164792072656769737465726564000000000000604482015260640161015c565b6001600160a01b0381165f818152600160208190526040808320805460ff1916909217909155517f4a6deab8cf14a40f9388fd118ec277f31a67b616473839fa23330a3ef9e1dc059190a250565b5f6020828403121561037c575f5ffd5b81356001600160a01b0381168114610392575f5ffd5b939250505056fea264697066735822122035b6f62dc9578788152cb257dc7b55dea4fc97e53aee759bb00c1e797593bb1664736f6c634300081c0033",
  "linkReferences": {},
  "deployedLinkReferences": {},
  "immutableReferences": {},
  "inputSourceName": "project/contracts/BankRegistry.sol",
  "buildInfoId": "solc-0_8_28-fa7cf0d8250250c2ea991f1a6bedbd45d0a0a44b"
}