{
  "_format": "hh3-artifact-1",
  "contractName": "FraudReportLedger",
  "sourceName": "contracts/FraudReportLedger.sol",
  "abi": [
    {
      "inputs": [
        {
          "internalType": "address",
          "name": "_bankRegistryAddress",
          "type": "address"
        }
      ],
      "stateMutability": "nonpayable",
      "type": "constructor"
    },
    {
      "anonymous": false,
      "inputs": [
        {
          "indexed": true,
          "internalType": "uint256",
          "name": "reportId",
          "type": "uint256"
        },
        {
          "indexed": true,
          "internalType": "address",
          "name": "customerAddress",
          "type": "address"
        },
        {
          "indexed": true,
          "internalType": "address",
          "name": "bankAddress",
          "type": "address"
        },
        {
          "indexed": false,
          "internalType": "string",
          "name": "ipfsCID",
          "type": "string"
        }
      ],
      "name": "ReportSubmitted",
      "type": "event"
    },
    {
      "inputs": [],
      "name": "bankRegistryAddress",
      "outputs": [
        {
          "internalType": "address",
          "name": "",
          "type": "address"
        }
      ],
      "stateMutability": "view",
      "type": "function"
    },
    {
      "inputs": [
        {
          "internalType": "address",
          "name": "",
          "type": "address"
        },
        {
          "internalType": "uint256",
          "name": "",
          "type": "uint256"
        }
      ],
      "name": "customerFraudReportIds",
      "outputs": [
        {
          "internalType": "uint256",
          "name": "",
          "type": "uint256"
        }
      ],
      "stateMutability": "view",
      "type": "function"
    },
    {
      "inputs": [
        {
          "internalType": "address",
          "name": "_customerAddress",
          "type": "address"
        }
      ],
      "name": "getReportsForCustomer",
      "outputs": [
        {
          "components": [
            {
              "internalType": "uint256",
              "name": "reportId",
              "type": "uint256"
            },
            {
              "internalType": "address",
              "name": "customerAddress",
              "type": "address"
            },
            {
              "internalType": "string",
              "name": "ipfsCID",
              "type": "string"
            },
            {
              "internalType": "address",
              "name": "reportingBank",
              "type": "address"
            },
            {
              "internalType": "uint256",
              "name": "timestamp",
              "type": "uint256"
            }
          ],
          "internalType": "struct FraudReportLedger.Report[]",
          "name": "",
          "type": "tuple[]"
        }
      ],
      "stateMutability": "view",
      "type": "function"
    },
    {
      "inputs": [],
      "name": "reportCounter",
      "outputs": [
        {
          "internalType": "uint256",
          "name": "",
          "type": "uint256"
        }
      ],
      "stateMutability": "view",
      "type": "function"
    },
    {
      "inputs": [
        {
          "internalType": "uint256",
          "name": "",
          "type": "uint256"
        }
      ],
      "name": "reports",
      "outputs": [
        {
          "internalType": "uint256",
          "name": "reportId",
          "type": "uint256"
        },
        {
          "internalType": "address",
          "name": "customerAddress",
          "type": "address"
        },
        {
          "internalType": "string",
          "name": "ipfsCID",
          "type": "string"
        },
        {
          "internalType": "address",
          "name": "reportingBank",
          "type": "address"
        },
        {
          "internalType": "uint256",
          "name": "timestamp",
          "type": "uint256"
        }
      ],
      "stateMutability": "view",
      "type": "function"
    },
    {
      "inputs": [
        {
          "internalType": "address",
          "name": "_customerAddress",
          "type": "address"
        },
        {
          "internalType": "string",
          "name": "_ipfsCID",
          "type": "string"
        }
      ],
      "name": "submitReport",
      "outputs": [],
      "stateMutability": "nonpayable",
      "type": "function"
    }
  ],
  "bytecode": "0x6080604052348015600e575f5ffd5b50604051610bb5380380610bb5833981016040819052602b9160a7565b6001600160a01b03811660845760405162461bcd60e51b815260206004820152601860248201527f496e76616c696420726567697374727920616464726573730000000000000000604482015260640160405180910390fd5b5f80546001600160a01b0319166001600160a01b039290921691909117905560d2565b5f6020828403121560b6575f5ffd5b81516001600160a01b038116811460cb575f5ffd5b9392505050565b610ad6806100df5f395ff3fe608060405234801561000f575f5ffd5b5060043610610060575f3560e01c80632d16b81014610064578063669d55211461008d578063b9bc38f2146100b7578063c942adf7146100ce578063dad780d5146100f2578063e9e470ae14610107575b5f5ffd5b6100776100723660046106a4565b61011a565b60405161008491906106f2565b60405180910390f35b5f5461009f906001600160a01b031681565b6040516001600160a01b039091168152602001610084565b6100c060025481565b604051908152602001610084565b6100e16100dc36600461079b565b610360565b6040516100849594939291906107b2565b61010561010036600461080c565b610429565b005b6100c06101153660046108d0565b61065e565b6001600160a01b0381165f90815260036020908152604080832080548251818502810185019093528083526060949383018282801561017657602002820191905f5260205f20905b815481526020019060010190808311610162575b505050505090505f815167ffffffffffffffff811115610198576101986107f8565b60405190808252806020026020018201604052801561020957816020015b6101f66040518060a001604052805f81526020015f6001600160a01b03168152602001606081526020015f6001600160a01b031681526020015f81525090565b8152602001906001900390816101b65790505b5090505f5b82518110156103585760015f84838151811061022c5761022c6108f8565b602002602001015181526020019081526020015f206040518060a00160405290815f8201548152602001600182015f9054906101000a90046001600160a01b03166001600160a01b03166001600160a01b031681526020016002820180546102939061090c565b80601f01602080910402602001604051908101604052809291908181526020018280546102bf9061090c565b801561030a5780601f106102e15761010080835404028352916020019161030a565b820191905f5260205f20905b8154815290600101906020018083116102ed57829003601f168201915b505050918352505060038201546001600160a01b031660208201526004909101546040909101528251839083908110610345576103456108f8565b602090810291909101015260010161020e565b509392505050565b600160208190525f91825260409091208054918101546002820180546001600160a01b0390921692916103929061090c565b80601f01602080910402602001604051908101604052809291908181526020018280546103be9061090c565b80156104095780601f106103e057610100808354040283529160200191610409565b820191905f5260205f20905b8154815290600101906020018083116103ec57829003601f168201915b50505050600383015460049093015491926001600160a01b031691905085565b5f546040516309853a2f60e01b81523360048201526001600160a01b03909116906309853a2f90602401602060405180830381865afa15801561046e573d5f5f3e3d5ffd5b505050506040513d601f19601f820116820180604052508101906104929190610944565b6104e35760405162461bcd60e51b815260206004820152601f60248201527f43616c6c6572206973206e6f74206120726567697374657265642062616e6b0060448201526064015b60405180910390fd5b6001600160a01b0382166105395760405162461bcd60e51b815260206004820152601860248201527f496e76616c696420637573746f6d65722061646472657373000000000000000060448201526064016104da565b60028054905f61054883610963565b90915550506040805160a081018252600280548083526001600160a01b0386811660208086019182528587018881523360608801524260808801525f9485526001918290529690932085518155905192810180546001600160a01b031916939092169290921790559251919291908201906105c390826109d3565b506060820151600382810180546001600160a01b0319166001600160a01b0393841617905560809093015160049092019190915583165f818152602092835260408082206002805482546001810184559285529590932001939093555491513392907fcf6c0d65399101b181dc8a2db2171180a4275e39b1d5d5e8a7e4926ab43b8ac990610652908690610a8e565b60405180910390a45050565b6003602052815f5260405f208181548110610677575f80fd5b905f5260205f20015f91509150505481565b80356001600160a01b038116811461069f575f5ffd5b919050565b5f602082840312156106b4575f5ffd5b6106bd82610689565b9392505050565b5f81518084528060208401602086015e5f602082860101526020601f19601f83011685010191505092915050565b5f602082016020835280845180835260408501915060408160051b8601019250602086015f5b8281101561078f57603f1987860301845281518051865260018060a01b036020820151166020870152604081015160a0604088015261075a60a08801826106c4565b6060838101516001600160a01b0316908901526080928301519290970191909152506020938401939190910190600101610718565b50929695505050505050565b5f602082840312156107ab575f5ffd5b5035919050565b8581526001600160a01b038516602082015260a0604082018190525f906107db908301866106c4565b6001600160a01b0394909416606083015250608001529392505050565b634e487b7160e01b5f52604160045260245ffd5b5f5f6040838503121561081d575f5ffd5b61082683610689565b9150602083013567ffffffffffffffff811115610841575f5ffd5b8301601f81018513610851575f5ffd5b803567ffffffffffffffff81111561086b5761086b6107f8565b604051601f8201601f19908116603f0116810167ffffffffffffffff8111828210171561089a5761089a6107f8565b6040528181528282016020018710156108b1575f5ffd5b816020840160208301375f602083830101528093505050509250929050565b5f5f604083850312156108e1575f5ffd5b6108ea83610689565b946020939093013593505050565b634e487b7160e01b5f52603260045260245ffd5b600181811c9082168061092057607f821691505b60208210810361093e57634e487b7160e01b5f52602260045260245ffd5b50919050565b5f60208284031215610954575f5ffd5b815180151581146106bd575f5ffd5b5f6001820161098057634e487b7160e01b5f52601160045260245ffd5b5060010190565b601f8211156109ce57805f5260205f20601f840160051c810160208510156109ac5750805b601f840160051c820191505b818110156109cb575f81556001016109b8565b50505b505050565b815167ffffffffffffffff8111156109ed576109ed6107f8565b610a01816109fb845461090c565b84610987565b6020601f821160018114610a33575f8315610a1c5750848201515b5f19600385901b1c1916600184901b1784556109cb565b5f84815260208120601f198516915b82811015610a625787850151825560209485019460019092019101610a42565b5084821015610a7f57868401515f19600387901b60f8161c191681555b50505050600190811b01905550565b602081525f6106bd60208301846106c456fea2646970667358221220a4ac838e5bbd0dc65f1d24674cd93e359d43908106afcc7505c537c858527d1164736f6c634300081c0033",
  "linkReferences": {},
  "deployedLinkReferences": {},
  "immutableReferences": {},
  "inputSourceName": "project/contracts/FraudReportLedger.sol",
  "buildInfoId": "solc-0_8_28-b129a0eccef922751bd4aa9f21aa5460023a97e6"
}