{
  "_format": "hh3-artifact-1",
  "contractName": "FraudReportLedger",
  "sourceName": "contracts/FraudReportLedger.sol",
  "abi": [
    {
      "inputs": [
        {
          "internalType": "address",
          "name": "_bankRegistryAddress",
          "type": "address"
        }
      ],
      "stateMutability": "nonpayable",
      "type": "constructor"
    },
    {
      "anonymous": false,
      "inputs": [
        {
          "indexed": true,
          "internalType": "address",
          "name": "owner",
          "type": "address"
        },
        {
          "indexed": false,
          "internalType": "uint256",
          "name": "amount",
          "type": "uint256"
        }
      ],
      "name": "FeesWithdrawn",
      "type": "event"
    },
    {
      "anonymous": false,
      "inputs": [
        {
          "indexed": true,
          "internalType": "address",
          "name": "payer",
          "type": "address"
        },
        {
          "indexed": false,
          "internalType": "uint256",
          "name": "amount",
          "type": "uint256"
        }
      ],
      "name": "QueryFeePaid",
      "type": "event"
    },
    {
      "anonymous": false,
      "inputs": [
        {
          "indexed": true,
          "internalType": "uint256",
          "name": "reportId",
          "type": "uint256"
        },
        {
          "indexed": false,
          "internalType": "enum FraudReportLedger.ReportStatus",
          "name": "finalStatus",
          "type": "uint8"
        },
        {
          "indexed": false,
          "internalType": "uint256",
          "name": "approveCount",
          "type": "uint256"
        },
        {
          "indexed": false,
          "internalType": "uint256",
          "name": "disputeCount",
          "type": "uint256"
        }
      ],
      "name": "ReportFinalized",
      "type": "event"
    },
    {
      "anonymous": false,
      "inputs": [
        {
          "indexed": true,
          "internalType": "uint256",
          "name": "reportId",
          "type": "uint256"
        },
        {
          "indexed": true,
          "internalType": "address",
          "name": "customerAddress",
          "type": "address"
        },
        {
          "indexed": true,
          "internalType": "address",
          "name": "bankAddress",
          "type": "address"
        },
        {
          "indexed": false,
          "internalType": "string",
          "name": "ipfsCID",
          "type": "string"
        },
        {
          "indexed": false,
          "internalType": "uint256",
          "name": "stake",
          "type": "uint256"
        }
      ],
      "name": "ReportSubmitted",
      "type": "event"
    },
    {
      "anonymous": false,
      "inputs": [
        {
          "indexed": true,
          "internalType": "uint256",
          "name": "reportId",
          "type": "uint256"
        },
        {
          "indexed": true,
          "internalType": "address",
          "name": "validator",
          "type": "address"
        },
        {
          "indexed": false,
          "internalType": "enum FraudReportLedger.VoteType",
          "name": "vote",
          "type": "uint8"
        },
        {
          "indexed": false,
          "internalType": "uint256",
          "name": "stake",
          "type": "uint256"
        }
      ],
      "name": "ReportValidated",
      "type": "event"
    },
    {
      "anonymous": false,
      "inputs": [
        {
          "indexed": true,
          "internalType": "address",
          "name": "recipient",
          "type": "address"
        },
        {
          "indexed": false,
          "internalType": "uint256",
          "name": "amount",
          "type": "uint256"
        }
      ],
      "name": "RewardDistributed",
      "type": "event"
    },
    {
      "anonymous": false,
      "inputs": [
        {
          "indexed": true,
          "internalType": "address",
          "name": "recipient",
          "type": "address"
        },
        {
          "indexed": false,
          "internalType": "uint256",
          "name": "amount",
          "type": "uint256"
        }
      ],
      "name": "StakeReturned",
      "type": "event"
    },
    {
      "inputs": [],
      "name": "LOCK_PERIOD",
      "outputs": [
        {
          "internalType": "uint256",
          "name": "",
          "type": "uint256"
        }
      ],
      "stateMutability": "view",
      "type": "function"
    },
    {
      "inputs": [],
      "name": "MAJORITY_INCENTIVE",
      "outputs": [
        {
          "internalType": "uint256",
          "name": "",
          "type": "uint256"
        }
      ],
      "stateMutability": "view",
      "type": "function"
    },
    {
      "inputs": [],
      "name": "REPORTER_STAKE",
      "outputs": [
        {
          "internalType": "uint256",
          "name": "",
          "type": "uint256"
        }
      ],
      "stateMutability": "view",
      "type": "function"
    },
    {
      "inputs": [],
      "name": "REPORT_PURCHASE_FEE_PER_REPORT",
      "outputs": [
        {
          "internalType": "uint256",
          "name": "",
          "type": "uint256"
        }
      ],
      "stateMutability": "view",
      "type": "function"
    },
    {
      "inputs": [],
      "name": "SCORE_QUERY_FEE",
      "outputs": [
        {
          "internalType": "uint256",
          "name": "",
          "type": "uint256"
        }
      ],
      "stateMutability": "view",
      "type": "function"
    },
    {
      "inputs": [],
      "name": "VALIDATOR_STAKE",
      "outputs": [
        {
          "internalType": "uint256",
          "name": "",
          "type": "uint256"
        }
      ],
      "stateMutability": "view",
      "type": "function"
    },
    {
      "inputs": [],
      "name": "accumulatedFees",
      "outputs": [
        {
          "internalType": "uint256",
          "name": "",
          "type": "uint256"
        }
      ],
      "stateMutability": "view",
      "type": "function"
    },
    {
      "inputs": [],
      "name": "bankRegistryAddress",
      "outputs": [
        {
          "internalType": "address",
          "name": "",
          "type": "address"
        }
      ],
      "stateMutability": "view",
      "type": "function"
    },
    {
      "inputs": [
        {
          "internalType": "address",
          "name": "",
          "type": "address"
        }
      ],
      "name": "bankRewardsEarned",
      "outputs": [
        {
          "internalType": "uint256",
          "name": "",
          "type": "uint256"
        }
      ],
      "stateMutability": "view",
      "type": "function"
    },
    {
      "inputs": [
        {
          "internalType": "address",
          "name": "",
          "type": "address"
        }
      ],
      "name": "bankStakesLost",
      "outputs": [
        {
          "internalType": "uint256",
          "name": "",
          "type": "uint256"
        }
      ],
      "stateMutability": "view",
      "type": "function"
    },
    {
      "inputs": [
        {
          "internalType": "uint256",
          "name": "_reportId",
          "type": "uint256"
        }
      ],
      "name": "canFinalize",
      "outputs": [
        {
          "internalType": "bool",
          "name": "",
          "type": "bool"
        }
      ],
      "stateMutability": "view",
      "type": "function"
    },
    {
      "inputs": [
        {
          "internalType": "address",
          "name": "",
          "type": "address"
        },
        {
          "internalType": "uint256",
          "name": "",
          "type": "uint256"
        }
      ],
      "name": "customerFraudReportIds",
      "outputs": [
        {
          "internalType": "uint256",
          "name": "",
          "type": "uint256"
        }
      ],
      "stateMutability": "view",
      "type": "function"
    },
    {
      "inputs": [
        {
          "internalType": "uint256",
          "name": "_reportId",
          "type": "uint256"
        }
      ],
      "name": "finalizeReport",
      "outputs": [],
      "stateMutability": "nonpayable",
      "type": "function"
    },
    {
      "inputs": [
        {
          "internalType": "address",
          "name": "_bankAddress",
          "type": "address"
        }
      ],
      "name": "getBankStats",
      "outputs": [
        {
          "internalType": "uint256",
          "name": "reportsSubmitted",
          "type": "uint256"
        },
        {
          "internalType": "uint256",
          "name": "validationsMade",
          "type": "uint256"
        },
        {
          "internalType": "uint256",
          "name": "rewardsEarned",
          "type": "uint256"
        },
        {
          "internalType": "uint256",
          "name": "stakesLost",
          "type": "uint256"
        }
      ],
      "stateMutability": "view",
      "type": "function"
    },
    {
      "inputs": [],
      "name": "getFinalizableReports",
      "outputs": [
        {
          "internalType": "uint256[]",
          "name": "",
          "type": "uint256[]"
        }
      ],
      "stateMutability": "view",
      "type": "function"
    },
    {
      "inputs": [
        {
          "internalType": "address",
          "name": "_customerAddress",
          "type": "address"
        }
      ],
      "name": "getFraudScore",
      "outputs": [
        {
          "internalType": "uint256",
          "name": "score",
          "type": "uint256"
        }
      ],
      "stateMutability": "view",
      "type": "function"
    },
    {
      "inputs": [
        {
          "internalType": "address",
          "name": "_customerAddress",
          "type": "address"
        }
      ],
      "name": "getFraudScorePayable",
      "outputs": [
        {
          "internalType": "uint256",
          "name": "score",
          "type": "uint256"
        }
      ],
      "stateMutability": "payable",
      "type": "function"
    },
    {
      "inputs": [],
      "name": "getPendingReports",
      "outputs": [
        {
          "internalType": "uint256[]",
          "name": "",
          "type": "uint256[]"
        }
      ],
      "stateMutability": "view",
      "type": "function"
    },
    {
      "inputs": [
        {
          "internalType": "uint256",
          "name": "_reportId",
          "type": "uint256"
        }
      ],
      "name": "getReport",
      "outputs": [
        {
          "components": [
            {
              "internalType": "uint256",
              "name": "reportId",
              "type": "uint256"
            },
            {
              "internalType": "address",
              "name": "customerAddress",
              "type": "address"
            },
            {
              "internalType": "string",
              "name": "ipfsCID",
              "type": "string"
            },
            {
              "internalType": "address",
              "name": "reportingBank",
              "type": "address"
            },
            {
              "internalType": "uint256",
              "name": "timestamp",
              "type": "uint256"
            },
            {
              "internalType": "uint256",
              "name": "reporterStake",
              "type": "uint256"
            },
            {
              "internalType": "uint256",
              "name": "finalizeTime",
              "type": "uint256"
            },
            {
              "internalType": "enum FraudReportLedger.ReportStatus",
              "name": "status",
              "type": "uint8"
            },
            {
              "internalType": "bool",
              "name": "isFinalized",
              "type": "bool"
            }
          ],
          "internalType": "struct FraudReportLedger.Report",
          "name": "",
          "type": "tuple"
        }
      ],
      "stateMutability": "view",
      "type": "function"
    },
    {
      "inputs": [
        {
          "internalType": "address",
          "name": "_customerAddress",
          "type": "address"
        }
      ],
      "name": "getReportCount",
      "outputs": [
        {
          "internalType": "uint256",
          "name": "",
          "type": "uint256"
        }
      ],
      "stateMutability": "view",
      "type": "function"
    },
    {
      "inputs": [
        {
          "internalType": "address",
          "name": "_customerAddress",
          "type": "address"
        }
      ],
      "name": "getReportIds",
      "outputs": [
        {
          "internalType": "uint256[]",
          "name": "",
          "type": "uint256[]"
        }
      ],
      "stateMutability": "view",
      "type": "function"
    },
    {
      "inputs": [
        {
          "internalType": "uint256",
          "name": "_reportId",
          "type": "uint256"
        }
      ],
      "name": "getReportValidations",
      "outputs": [
        {
          "components": [
            {
              "internalType": "address",
              "name": "validator",
              "type": "address"
            },
            {
              "internalType": "uint256",
              "name": "stake",
              "type": "uint256"
            },
            {
              "internalType": "enum FraudReportLedger.VoteType",
              "name": "vote",
              "type": "uint8"
            },
            {
              "internalType": "uint256",
              "name": "timestamp",
              "type": "uint256"
            }
          ],
          "internalType": "struct FraudReportLedger.Validation[]",
          "name": "",
          "type": "tuple[]"
        }
      ],
      "stateMutability": "view",
      "type": "function"
    },
    {
      "inputs": [
        {
          "internalType": "address",
          "name": "_customerAddress",
          "type": "address"
        }
      ],
      "name": "getReportsForCustomer",
      "outputs": [
        {
          "components": [
            {
              "internalType": "uint256",
              "name": "reportId",
              "type": "uint256"
            },
            {
              "internalType": "address",
              "name": "customerAddress",
              "type": "address"
            },
            {
              "internalType": "string",
              "name": "ipfsCID",
              "type": "string"
            },
            {
              "internalType": "address",
              "name": "reportingBank",
              "type": "address"
            },
            {
              "internalType": "uint256",
              "name": "timestamp",
              "type": "uint256"
            },
            {
              "internalType": "uint256",
              "name": "reporterStake",
              "type": "uint256"
            },
            {
              "internalType": "uint256",
              "name": "finalizeTime",
              "type": "uint256"
            },
            {
              "internalType": "enum FraudReportLedger.ReportStatus",
              "name": "status",
              "type": "uint8"
            },
            {
              "internalType": "bool",
              "name": "isFinalized",
              "type": "bool"
            }
          ],
          "internalType": "struct FraudReportLedger.Report[]",
          "name": "",
          "type": "tuple[]"
        }
      ],
      "stateMutability": "payable",
      "type": "function"
    },
    {
      "inputs": [
        {
          "internalType": "uint256",
          "name": "_reportId",
          "type": "uint256"
        }
      ],
      "name": "getVoteCounts",
      "outputs": [
        {
          "internalType": "uint256",
          "name": "approveCount",
          "type": "uint256"
        },
        {
          "internalType": "uint256",
          "name": "disputeCount",
          "type": "uint256"
        }
      ],
      "stateMutability": "view",
      "type": "function"
    },
    {
      "inputs": [
        {
          "internalType": "uint256",
          "name": "",
          "type": "uint256"
        },
        {
          "internalType": "address",
          "name": "",
          "type": "address"
        }
      ],
      "name": "hasVoted",
      "outputs": [
        {
          "internalType": "bool",
          "name": "",
          "type": "bool"
        }
      ],
      "stateMutability": "view",
      "type": "function"
    },
    {
      "inputs": [],
      "name": "owner",
      "outputs": [
        {
          "internalType": "address",
          "name": "",
          "type": "address"
        }
      ],
      "stateMutability": "view",
      "type": "function"
    },
    {
      "inputs": [
        {
          "internalType": "address",
          "name": "_customerAddress",
          "type": "address"
        }
      ],
      "name": "purchaseReportDetails",
      "outputs": [
        {
          "internalType": "string[]",
          "name": "",
          "type": "string[]"
        }
      ],
      "stateMutability": "payable",
      "type": "function"
    },
    {
      "inputs": [],
      "name": "reportCounter",
      "outputs": [
        {
          "internalType": "uint256",
          "name": "",
          "type": "uint256"
        }
      ],
      "stateMutability": "view",
      "type": "function"
    },
    {
      "inputs": [
        {
          "internalType": "uint256",
          "name": "",
          "type": "uint256"
        },
        {
          "internalType": "uint256",
          "name": "",
          "type": "uint256"
        }
      ],
      "name": "reportValidations",
      "outputs": [
        {
          "internalType": "address",
          "name": "validator",
          "type": "address"
        },
        {
          "internalType": "uint256",
          "name": "stake",
          "type": "uint256"
        },
        {
          "internalType": "enum FraudReportLedger.VoteType",
          "name": "vote",
          "type": "uint8"
        },
        {
          "internalType": "uint256",
          "name": "timestamp",
          "type": "uint256"
        }
      ],
      "stateMutability": "view",
      "type": "function"
    },
    {
      "inputs": [
        {
          "internalType": "uint256",
          "name": "",
          "type": "uint256"
        }
      ],
      "name": "reports",
      "outputs": [
        {
          "internalType": "uint256",
          "name": "reportId",
          "type": "uint256"
        },
        {
          "internalType": "address",
          "name": "customerAddress",
          "type": "address"
        },
        {
          "internalType": "string",
          "name": "ipfsCID",
          "type": "string"
        },
        {
          "internalType": "address",
          "name": "reportingBank",
          "type": "address"
        },
        {
          "internalType": "uint256",
          "name": "timestamp",
          "type": "uint256"
        },
        {
          "internalType": "uint256",
          "name": "reporterStake",
          "type": "uint256"
        },
        {
          "internalType": "uint256",
          "name": "finalizeTime",
          "type": "uint256"
        },
        {
          "internalType": "enum FraudReportLedger.ReportStatus",
          "name": "status",
          "type": "uint8"
        },
        {
          "internalType": "bool",
          "name": "isFinalized",
          "type": "bool"
        }
      ],
      "stateMutability": "view",
      "type": "function"
    },
    {
      "inputs": [
        {
          "internalType": "address",
          "name": "_customerAddress",
          "type": "address"
        },
        {
          "internalType": "string",
          "name": "_ipfsCID",
          "type": "string"
        }
      ],
      "name": "submitReport",
      "outputs": [],
      "stateMutability": "payable",
      "type": "function"
    },
    {
      "inputs": [
        {
          "internalType": "uint256",
          "name": "_reportId",
          "type": "uint256"
        },
        {
          "internalType": "enum FraudReportLedger.VoteType",
          "name": "_vote",
          "type": "uint8"
        }
      ],
      "name": "validateReport",
      "outputs": [],
      "stateMutability": "payable",
      "type": "function"
    },
    {
      "inputs": [],
      "name": "withdrawFees",
      "outputs": [],
      "stateMutability": "nonpayable",
      "type": "function"
    }
  ],
  "bytecode": "0x6080604052348015600e575f5ffd5b50604051612e80380380612e80833981016040819052602b9160b0565b6001600160a01b03811660845760405162461bcd60e51b815260206004820152601860248201527f496e76616c696420726567697374727920616464726573730000000000000000604482015260640160405180910390fd5b5f80546001600160a01b039092166001600160a01b0319928316179055600980549091163317905560db565b5f6020828403121560bf575f5ffd5b81516001600160a01b038116811460d4575f5ffd5b9392505050565b612d98806100e85f395ff3fe6080604052600436106101e6575f3560e01c80638a241f4c11610108578063b46f85061161009d578063dad780d51161006d578063dad780d5146105d4578063e4e2bfe4146105e7578063e6f8afe1146103d7578063e9e470ae14610606578063fa9c48b714610625575f5ffd5b8063b46f85061461053d578063b9bc38f21461055c578063bd254b6b14610571578063c942adf7146105a0575f5ffd5b80639e5da194116100d85780639e5da194146104b9578063a0ad71e3146104e4578063a1be47401461050f578063b3ab851014610523575f5ffd5b80638a241f4c146103f35780638a3ea29d146104275780638da5cb5b146104665780639e22a89314610485575f5ffd5b8063438596321161017e5780635b070f861161014e5780635b070f861461038e57806364cd8bd1146102a1578063669d5521146103a15780636eb301f4146103d7575f5ffd5b806343859632146102ee578063476343ee146103375780634e7f9b191461034d578063587f5ed714610379575f5ffd5b806321464007116101b957806321464007146102815780632bd82768146102a15780632d16b810146102bb5780632f3947f3146102db575f5ffd5b80630b010a31146101ea57806312c78768146102145780631820cabb1461024057806318b9810114610262575b5f5ffd5b3480156101f5575f5ffd5b506101fe610644565b60405161020b9190612628565b60405180910390f35b34801561021f575f5ffd5b5061023361022e36600461266a565b610784565b60405161020b91906126a9565b34801561024b575f5ffd5b50610254603c81565b60405190815260200161020b565b34801561026d575f5ffd5b506101fe61027c366004612731565b61084c565b61029461028f366004612731565b6108b5565b60405161020b9190612778565b3480156102ac575f5ffd5b50610254660aa87bee53800081565b6102ce6102c9366004612731565b610ae5565b60405161020b9190612889565b6102546102e9366004612731565b610dfe565b3480156102f9575f5ffd5b506103276103083660046128e0565b600560209081525f928352604080842090915290825290205460ff1681565b604051901515815260200161020b565b348015610342575f5ffd5b5061034b610eb0565b005b348015610358575f5ffd5b5061036c61036736600461266a565b610fd2565b60405161020b919061290a565b348015610384575f5ffd5b5061025460085481565b61034b61039c36600461291c565b61114f565b3480156103ac575f5ffd5b505f546103bf906001600160a01b031681565b6040516001600160a01b03909116815260200161020b565b3480156103e2575f5ffd5b506102546801bc16d674ec80000081565b3480156103fe575f5ffd5b5061041261040d36600461266a565b611520565b6040805192835260208301919091520161020b565b348015610432575f5ffd5b50610446610441366004612731565b6115a8565b60408051948552602085019390935291830152606082015260800161020b565b348015610471575f5ffd5b506009546103bf906001600160a01b031681565b348015610490575f5ffd5b5061025461049f366004612731565b6001600160a01b03165f9081526003602052604090205490565b3480156104c4575f5ffd5b506102546104d3366004612731565b60076020525f908152604090205481565b3480156104ef575f5ffd5b506102546104fe366004612731565b60066020525f908152604090205481565b34801561051a575f5ffd5b506101fe611680565b34801561052e575f5ffd5b506102546601c6bf5263400081565b348015610548575f5ffd5b50610254610557366004612731565b61177b565b348015610567575f5ffd5b5061025460025481565b34801561057c575f5ffd5b5061059061058b36600461294d565b6118a2565b60405161020b949392919061296d565b3480156105ab575f5ffd5b506105bf6105ba36600461266a565b6118f4565b60405161020b999897969594939291906129a0565b61034b6105e2366004612a28565b6119dc565b3480156105f2575f5ffd5b5061032761060136600461266a565b611da5565b348015610611575f5ffd5b50610254610620366004612aec565b611df2565b348015610630575f5ffd5b5061034b61063f36600461266a565b611e1d565b60605f60015b60025481116106ae575f81815260016020526040902060070154610100900460ff1615801561068957505f818152600160205260409020600601544210155b1561069c578161069881612b28565b9250505b806106a681612b28565b91505061064a565b505f8167ffffffffffffffff8111156106c9576106c9612a14565b6040519080825280602002602001820160405280156106f2578160200160208202803683370190505b5090505f60015b600254811161077b575f81815260016020526040902060070154610100900460ff1615801561073857505f818152600160205260409020600601544210155b15610769578083838151811061075057610750612b40565b60209081029190910101528161076581612b28565b9250505b8061077381612b28565b9150506106f9565b50909392505050565b606060045f8381526020019081526020015f20805480602002602001604051908101604052809291908181526020015f905b82821015610841575f848152602090819020604080516080810182526004860290920180546001600160a01b03168352600180820154948401949094526002810154929390929184019160ff169081111561081357610813612681565b600181111561082457610824612681565b8152602001600382015481525050815260200190600101906107b6565b505050509050919050565b6001600160a01b0381165f908152600360209081526040918290208054835181840281018401909452808452606093928301828280156108a957602002820191905f5260205f20905b815481526020019060010190808311610895575b50505050509050919050565b6001600160a01b0381165f90815260036020908152604080832080548251818502810185019093528083526060949383018282801561091157602002820191905f5260205f20905b8154815260200190600101908083116108fd575b505050505090505f6601c6bf52634000825161092d9190612b54565b9050803410156109905760405162461bcd60e51b815260206004820152602360248201527f496e73756666696369656e742066656520666f72207265706f72742064657461604482015262696c7360e81b60648201526084015b60405180910390fd5b3460085f8282546109a19190612b6b565b909155505081515f9067ffffffffffffffff8111156109c2576109c2612a14565b6040519080825280602002602001820160405280156109f557816020015b60608152602001906001900390816109e05790505b5090505f5b8351811015610adc5760015f858381518110610a1857610a18612b40565b602002602001015181526020019081526020015f206002018054610a3b90612b7e565b80601f0160208091040260200160405190810160405280929190818152602001828054610a6790612b7e565b8015610ab25780601f10610a8957610100808354040283529160200191610ab2565b820191905f5260205f20905b815481529060010190602001808311610a9557829003601f168201915b5050505050828281518110610ac957610ac9612b40565b60209081029190910101526001016109fa565b50949350505050565b6060660aa87bee538000341015610b485760405162461bcd60e51b815260206004820152602160248201527f496e73756666696369656e742066656520666f72207265706f727420717565726044820152607960f81b6064820152608401610987565b3460085f828254610b599190612b6b565b909155505060405134815233907fb8ca1d82abfdedbd1b9b1102ecbfc42527b90f9c774fd37e837f170fcfaf43189060200160405180910390a26001600160a01b0382165f90815260036020908152604080832080548251818502810185019093528083529192909190830182828015610bf057602002820191905f5260205f20905b815481526020019060010190808311610bdc575b505050505090505f815167ffffffffffffffff811115610c1257610c12612a14565b604051908082528060200260200182016040528015610c4b57816020015b610c386125c1565b815260200190600190039081610c305790505b5090505f5b8251811015610df65760015f848381518110610c6e57610c6e612b40565b602002602001015181526020019081526020015f20604051806101200160405290815f8201548152602001600182015f9054906101000a90046001600160a01b03166001600160a01b03166001600160a01b03168152602001600282018054610cd690612b7e565b80601f0160208091040260200160405190810160405280929190818152602001828054610d0290612b7e565b8015610d4d5780601f10610d2457610100808354040283529160200191610d4d565b820191905f5260205f20905b815481529060010190602001808311610d3057829003601f168201915b50505091835250506003828101546001600160a01b03166020830152600483015460408301526005830154606083015260068301546080830152600783015460a09092019160ff1690811115610da557610da5612681565b6003811115610db657610db6612681565b815260079190910154610100900460ff1615156020909101528251839083908110610de357610de3612b40565b6020908102919091010152600101610c50565b509392505050565b5f660aa87bee538000341015610e565760405162461bcd60e51b815260206004820181905260248201527f496e73756666696369656e742066656520666f722073636f72652071756572796044820152606401610987565b3460085f828254610e679190612b6b565b909155505060405134815233907fb8ca1d82abfdedbd1b9b1102ecbfc42527b90f9c774fd37e837f170fcfaf43189060200160405180910390a2610eaa8261177b565b92915050565b6009546001600160a01b03163314610f0a5760405162461bcd60e51b815260206004820152601760248201527f43616c6c6572206973206e6f7420746865206f776e65720000000000000000006044820152606401610987565b60085480610f505760405162461bcd60e51b81526020600482015260136024820152724e6f206665657320746f20776974686472617760681b6044820152606401610987565b5f60088190556009546040516001600160a01b039091169183156108fc02918491818181858888f19350505050158015610f8c573d5f5f3e3d5ffd5b506009546040518281526001600160a01b03909116907fc0819c13be868895eb93e40eaceb96de976442fa1d404e5c55f14bb65a8c489a9060200160405180910390a250565b610fda6125c1565b5f82118015610feb57506002548211155b6110075760405162461bcd60e51b815260040161098790612bb6565b5f8281526001602081815260409283902083516101208101855281548152928101546001600160a01b031691830191909152600281018054929391929184019161105090612b7e565b80601f016020809104026020016040519081016040528092919081815260200182805461107c90612b7e565b80156110c75780601f1061109e576101008083540402835291602001916110c7565b820191905f5260205f20905b8154815290600101906020018083116110aa57829003601f168201915b50505091835250506003828101546001600160a01b03166020830152600483015460408301526005830154606083015260068301546080830152600783015460a09092019160ff169081111561111f5761111f612681565b600381111561113057611130612681565b815260079190910154610100900460ff16151560209091015292915050565b5f546040516309853a2f60e01b81523360048201526001600160a01b03909116906309853a2f90602401602060405180830381865afa158015611194573d5f5f3e3d5ffd5b505050506040513d601f19601f820116820180604052508101906111b89190612be1565b6112045760405162461bcd60e51b815260206004820152601f60248201527f43616c6c6572206973206e6f74206120726567697374657265642062616e6b006044820152606401610987565b5f8211801561121557506002548211155b6112315760405162461bcd60e51b815260040161098790612bb6565b6801bc16d674ec8000003410156112865760405162461bcd60e51b8152602060048201526019602482015278125b9cdd59999a58da595b9d081cdd185ad948185b5bdd5b9d603a1b6044820152606401610987565b5f82815260056020908152604080832033845290915290205460ff16156112ef5760405162461bcd60e51b815260206004820152601c60248201527f416c726561647920766f746564206f6e2074686973207265706f7274000000006044820152606401610987565b5f8281526001602052604090206007810154610100900460ff16156113515760405162461bcd60e51b815260206004820152601860248201527714995c1bdc9d08185b1c9958591e48199a5b985b1a5e995960421b6044820152606401610987565b8060060154421061139a5760405162461bcd60e51b8152602060048201526013602482015272159bdd1a5b99c81c195c9a5bd908195b991959606a1b6044820152606401610987565b60038101546001600160a01b031633036113f65760405162461bcd60e51b815260206004820152601a60248201527f43616e6e6f742076616c6964617465206f776e207265706f72740000000000006044820152606401610987565b60045f8481526020019081526020015f206040518060800160405280336001600160a01b0316815260200134815260200184600181111561143957611439612681565b8152426020918201528254600180820185555f94855293829020835160049092020180546001600160a01b0319166001600160a01b0390921691909117815590820151818401556040820151600282018054939492939192909160ff19169083818111156114a9576114a9612681565b0217905550606091909101516003909101555f83815260056020908152604080832033808552925291829020805460ff19166001179055905184907f65ab32e8ebb554c18851a01bc756bec852cb32055ec176a8719c9f6e24715438906115139086903490612c00565b60405180910390a3505050565b5f8181526004602052604081208190815b81548110156115a1575f82828154811061154d5761154d612b40565b5f91825260209091206002600490920201015460ff16600181111561157457611574612681565b0361158b578361158381612b28565b945050611599565b8261159581612b28565b9350505b600101611531565b5050915091565b5f80808060015b60025481116115fb575f818152600160205260409020600301546001600160a01b038088169116036115e957846115e581612b28565b9550505b806115f381612b28565b9150506115af565b5060015b6002548111611652575f8181526005602090815260408083206001600160a01b038a16845290915290205460ff1615611640578361163c81612b28565b9450505b8061164a81612b28565b9150506115ff565b5050506001600160a01b0383165f908152600660209081526040808320546007909252909120549193509193565b60605f60015b60025481116116cc575f81815260016020526040902060070154610100900460ff166116ba57816116b681612b28565b9250505b806116c481612b28565b915050611686565b505f8167ffffffffffffffff8111156116e7576116e7612a14565b604051908082528060200260200182016040528015611710578160200160208202803683370190505b5090505f60015b600254811161077b575f81815260016020526040902060070154610100900460ff16611769578083838151811061175057611750612b40565b60209081029190910101528161176581612b28565b9250505b8061177381612b28565b915050611717565b6001600160a01b0381165f9081526003602090815260408083208054825181850281018501909352808352849384939291908301828280156117da57602002820191905f5260205f20905b8154815260200190600101908083116117c6575b509394505f93505050505b8151811015611850576001805f84848151811061180457611804612b40565b60209081029190910181015182528101919091526040015f206007015460ff16600381111561183557611835612681565b03611848578261184481612b28565b9350505b6001016117e5565b50815f03611862575060649392505050565b816001036118745750604b9392505050565b81600203611886575060379392505050565b60058211611898575060239392505050565b50600a9392505050565b6004602052815f5260405f2081815481106118bb575f80fd5b5f91825260209091206004909102018054600182015460028301546003909301546001600160a01b039092169450925060ff9091169084565b600160208190525f91825260409091208054918101546002820180546001600160a01b03909216929161192690612b7e565b80601f016020809104026020016040519081016040528092919081815260200182805461195290612b7e565b801561199d5780601f106119745761010080835404028352916020019161199d565b820191905f5260205f20905b81548152906001019060200180831161198057829003601f168201915b505050600384015460048501546005860154600687015460079097015495966001600160a01b0390931695919450925060ff8082169161010090041689565b5f546040516309853a2f60e01b81523360048201526001600160a01b03909116906309853a2f90602401602060405180830381865afa158015611a21573d5f5f3e3d5ffd5b505050506040513d601f19601f82011682018060405250810190611a459190612be1565b611a915760405162461bcd60e51b815260206004820152601f60248201527f43616c6c6572206973206e6f74206120726567697374657265642062616e6b006044820152606401610987565b6001600160a01b038216611ae75760405162461bcd60e51b815260206004820152601860248201527f496e76616c696420637573746f6d6572206164647265737300000000000000006044820152606401610987565b5f815111611b375760405162461bcd60e51b815260206004820152601860248201527f49504653204349442063616e6e6f7420626520656d70747900000000000000006044820152606401610987565b602e81511015611b895760405162461bcd60e51b815260206004820152601760248201527f496e76616c696420495046532043494420666f726d61740000000000000000006044820152606401610987565b6801bc16d674ec800000341015611bde5760405162461bcd60e51b8152602060048201526019602482015278125b9cdd59999a58da595b9d081cdd185ad948185b5bdd5b9d603a1b6044820152606401610987565b60028054905f611bed83612b28565b91905055506040518061012001604052806002548152602001836001600160a01b03168152602001828152602001336001600160a01b03168152602001428152602001348152602001603c42611c439190612b6b565b81526020015f81525f60209182018190526002805482526001808452604092839020855181559385015190840180546001600160a01b0319166001600160a01b039092169190911790559083015190820190611c9f9082612c67565b506060820151600382810180546001600160a01b0319166001600160a01b03909316929092179091556080830151600483015560a0830151600583015560c0830151600683015560e08301516007830180549192909160ff1916906001908490811115611d0e57611d0e612681565b021790555061010091820151600791909101805461ff0019169115159092021790556001600160a01b0382165f81815260036020908152604080832060028054825460018101845592865293909420019190915590549051339291907f34eaa275389aceab266f97a68ac3e573cc4922564ce181cc6322febf12cd8aca90611d999086903490612d22565b60405180910390a45050565b5f811580611db4575060025482115b15611dc057505f919050565b5f8281526001602052604090206007810154610100900460ff16158015611deb575080600601544210155b9392505050565b6003602052815f5260405f208181548110611e0b575f80fd5b905f5260205f20015f91509150505481565b5f81118015611e2e57506002548111155b611e4a5760405162461bcd60e51b815260040161098790612bb6565b5f8181526001602052604090206007810154610100900460ff1615611eac5760405162461bcd60e51b815260206004820152601860248201527714995c1bdc9d08185b1c9958591e48199a5b985b1a5e995960421b6044820152606401610987565b8060060154421015611ef75760405162461bcd60e51b81526020600482015260146024820152732637b1b5903832b934b7b2103737ba1037bb32b960611b6044820152606401610987565b5f8281526004602052604081209080805b8354811015611f78575f848281548110611f2457611f24612b40565b5f91825260209091206002600490920201015460ff166001811115611f4b57611f4b612681565b03611f625782611f5a81612b28565b935050611f70565b81611f6c81612b28565b9250505b600101611f08565b5080821180611f88576002611f8b565b60015b60078601805460ff19166001836003811115611fa957611fa9612681565b021790555060078501805461ff001916610100179055611fc98682612016565b600785015460405187917f4d5f0d497d76303a15a22942ac70f5d3368e32b94ca60efe8c67184a34cdc027916120069160ff169087908790612d43565b60405180910390a2505050505050565b5f8281526001602090815260408083206004909252822080549192909184919067ffffffffffffffff81111561204e5761204e612a14565b604051908082528060200260200182016040528015612077578160200160208202803683370190505b5083549091505f90819067ffffffffffffffff81111561209957612099612a14565b6040519080825280602002602001820160405280156120c2578160200160208202803683370190505b5090505f805b86548110156122bb575f89801561211657505f8883815481106120ed576120ed612b40565b5f91825260209091206002600490920201015460ff16600181111561211457612114612681565b145b806121625750891580156121625750600188838154811061213957612139612b40565b5f91825260209091206002600490920201015460ff16600181111561216057612160612681565b145b905080156121d65787828154811061217c5761217c612b40565b5f91825260209091206004909102015486516001600160a01b03909116908790879081106121ac576121ac612b40565b6001600160a01b0390921660209283029190910190910152846121ce81612b28565b9550506122b2565b8782815481106121e8576121e8612b40565b5f91825260209091206004909102015484516001600160a01b039091169085908590811061221857612218612b40565b6001600160a01b03909216602092830291909101909101528261223a81612b28565b93505087828154811061224f5761224f612b40565b905f5260205f2090600402016001015460075f8a858154811061227457612274612b40565b5f91825260208083206004909202909101546001600160a01b03168352820192909252604001812080549091906122ac908490612b6b565b90915550505b506001016120c8565b5084156123e457600387015460058801546001600160a01b03909116906108fc906122ee90660aa87bee53800090612b6b565b6040518115909202915f818181858888f19350505050158015612313573d5f5f3e3d5ffd5b5060038701546001600160a01b03165f9081526006602052604081208054660aa87bee5380009290612346908490612b6b565b9091555050600387015460058801546040519081526001600160a01b03909116907fd2ba84da58fee5faf229bb112f12eec4ff1d1be2f6b9c38440dd02d482b32cff9060200160405180910390a26003870154604051660aa87bee53800081526001600160a01b03909116907fe34918ff1c7084970068b53fd71ad6d8b04e9f15d3886cbf006443e6cdc52ea69060200160405180910390a261241a565b600587015460038801546001600160a01b03165f9081526007602052604081208054909190612414908490612b6b565b90915550505b5f5b838110156125b55784818151811061243657612436612b40565b60200260200101516001600160a01b03166108fc660aa87bee5380006801bc16d674ec8000006124669190612b6b565b6040518115909202915f818181858888f1935050505015801561248b573d5f5f3e3d5ffd5b50660aa87bee53800060065f8784815181106124a9576124a9612b40565b60200260200101516001600160a01b03166001600160a01b031681526020019081526020015f205f8282546124de9190612b6b565b925050819055508481815181106124f7576124f7612b40565b60200260200101516001600160a01b03167fd2ba84da58fee5faf229bb112f12eec4ff1d1be2f6b9c38440dd02d482b32cff6801bc16d674ec80000060405161254291815260200190565b60405180910390a284818151811061255c5761255c612b40565b60200260200101516001600160a01b03167fe34918ff1c7084970068b53fd71ad6d8b04e9f15d3886cbf006443e6cdc52ea6660aa87bee5380006040516125a591815260200190565b60405180910390a260010161241c565b50505050505050505050565b6040518061012001604052805f81526020015f6001600160a01b03168152602001606081526020015f6001600160a01b031681526020015f81526020015f81526020015f81526020015f600381111561261c5761261c612681565b81525f60209091015290565b602080825282518282018190525f918401906040840190835b8181101561265f578351835260209384019390920191600101612641565b509095945050505050565b5f6020828403121561267a575f5ffd5b5035919050565b634e487b7160e01b5f52602160045260245ffd5b600281106126a5576126a5612681565b9052565b602080825282518282018190525f918401906040840190835b8181101561265f57835180516001600160a01b0316845260208082015190850152604080820151906126f690860182612695565b5060609081015190840152602093909301926080909201916001016126c2565b80356001600160a01b038116811461272c575f5ffd5b919050565b5f60208284031215612741575f5ffd5b611deb82612716565b5f81518084528060208401602086015e5f602082860101526020601f19601f83011685010191505092915050565b5f602082016020835280845180835260408501915060408160051b8601019250602086015f5b828110156127cf57603f198786030184526127ba85835161274a565b9450602093840193919091019060010161279e565b50929695505050505050565b600481106126a5576126a5612681565b805182525f602082015161280a60208501826001600160a01b03169052565b506040820151610120604085015261282661012085018261274a565b9050606083015161284260608601826001600160a01b03169052565b506080830151608085015260a083015160a085015260c083015160c085015260e083015161287360e08601826127db565b50610100830151610df661010086018215159052565b5f602082016020835280845180835260408501915060408160051b8601019250602086015f5b828110156127cf57603f198786030184526128cb8583516127eb565b945060209384019391909101906001016128af565b5f5f604083850312156128f1575f5ffd5b8235915061290160208401612716565b90509250929050565b602081525f611deb60208301846127eb565b5f5f6040838503121561292d575f5ffd5b82359150602083013560028110612942575f5ffd5b809150509250929050565b5f5f6040838503121561295e575f5ffd5b50508035926020909101359150565b6001600160a01b038516815260208101849052608081016129916040830185612695565b82606083015295945050505050565b8981526001600160a01b0389166020820152610120604082018190525f906129ca9083018a61274a565b6001600160a01b03891660608401526080830188905260a0830187905260c0830186905290506129fd60e08301856127db565b8215156101008301529a9950505050505050505050565b634e487b7160e01b5f52604160045260245ffd5b5f5f60408385031215612a39575f5ffd5b612a4283612716565b9150602083013567ffffffffffffffff811115612a5d575f5ffd5b8301601f81018513612a6d575f5ffd5b803567ffffffffffffffff811115612a8757612a87612a14565b604051601f8201601f19908116603f0116810167ffffffffffffffff81118282101715612ab657612ab6612a14565b604052818152828201602001871015612acd575f5ffd5b816020840160208301375f602083830101528093505050509250929050565b5f5f60408385031215612afd575f5ffd5b612b0683612716565b946020939093013593505050565b634e487b7160e01b5f52601160045260245ffd5b5f60018201612b3957612b39612b14565b5060010190565b634e487b7160e01b5f52603260045260245ffd5b8082028115828204841417610eaa57610eaa612b14565b80820180821115610eaa57610eaa612b14565b600181811c90821680612b9257607f821691505b602082108103612bb057634e487b7160e01b5f52602260045260245ffd5b50919050565b602080825260119082015270125b9d985b1a59081c995c1bdc9d081251607a1b604082015260600190565b5f60208284031215612bf1575f5ffd5b81518015158114611deb575f5ffd5b60408101612c0e8285612695565b8260208301529392505050565b601f821115612c6257805f5260205f20601f840160051c81016020851015612c405750805b601f840160051c820191505b81811015612c5f575f8155600101612c4c565b50505b505050565b815167ffffffffffffffff811115612c8157612c81612a14565b612c9581612c8f8454612b7e565b84612c1b565b6020601f821160018114612cc7575f8315612cb05750848201515b5f19600385901b1c1916600184901b178455612c5f565b5f84815260208120601f198516915b82811015612cf65787850151825560209485019460019092019101612cd6565b5084821015612d1357868401515f19600387901b60f8161c191681555b50505050600190811b01905550565b604081525f612d34604083018561274a565b90508260208301529392505050565b60608101612d5182866127db565b60208201939093526040015291905056fea26469706673582212207fc776f54725a810015877283dd3f555e56ecb8aa8e049dd800124d53878910164736f6c634300081c0033",
  "linkReferences": {},
  "deployedLinkReferences": {},
  "immutableReferences": {},
  "inputSourceName": "project/contracts/FraudReportLedger.sol",
  "buildInfoId": "solc-0_8_28-3958c4e126e0619d7688010d618faea9d9fc195d"
}